{
	"Solidity/RomanNum.sol": {
		"RomanConvertInt": {
			"abi": [
				{
					"inputs": [
						{
							"internalType": "string",
							"name": "roman",
							"type": "string"
						}
					],
					"name": "ConvertInt",
					"outputs": [
						{
							"internalType": "uint256",
							"name": "",
							"type": "uint256"
						}
					],
					"stateMutability": "pure",
					"type": "function"
				}
			],
			"devdoc": {
				"kind": "dev",
				"methods": {},
				"version": 1
			},
			"evm": {
				"assembly": "    /* \"Solidity/RomanNum.sol\":55:2154  contract RomanConvertInt{... */\n  mstore(0x40, 0x80)\n  callvalue\n  dup1\n  iszero\n  tag_1\n  jumpi\n  revert(0x00, 0x00)\ntag_1:\n  pop\n  dataSize(sub_0)\n  dup1\n  dataOffset(sub_0)\n  0x00\n  codecopy\n  0x00\n  return\nstop\n\nsub_0: assembly {\n        /* \"Solidity/RomanNum.sol\":55:2154  contract RomanConvertInt{... */\n      mstore(0x40, 0x80)\n      callvalue\n      dup1\n      iszero\n      tag_1\n      jumpi\n      revert(0x00, 0x00)\n    tag_1:\n      pop\n      jumpi(tag_2, lt(calldatasize, 0x04))\n      shr(0xe0, calldataload(0x00))\n      dup1\n      0x7f424aea\n      eq\n      tag_3\n      jumpi\n    tag_2:\n      revert(0x00, 0x00)\n        /* \"Solidity/RomanNum.sol\":86:2152  function ConvertInt(string memory roman) public pure returns (uint){... */\n    tag_3:\n      tag_4\n      0x04\n      dup1\n      calldatasize\n      sub\n      dup2\n      add\n      swap1\n      tag_5\n      swap2\n      swap1\n      tag_6\n      jump\t// in\n    tag_5:\n      tag_7\n      jump\t// in\n    tag_4:\n      mload(0x40)\n      tag_8\n      swap2\n      swap1\n      tag_9\n      jump\t// in\n    tag_8:\n      mload(0x40)\n      dup1\n      swap2\n      sub\n      swap1\n      return\n    tag_7:\n        /* \"Solidity/RomanNum.sol\":148:152  uint */\n      0x00\n        /* \"Solidity/RomanNum.sol\":163:174  uint result */\n      0x00\n        /* \"Solidity/RomanNum.sol\":176:177  0 */\n      0x00\n        /* \"Solidity/RomanNum.sol\":163:177  uint result =0 */\n      swap1\n      pop\n        /* \"Solidity/RomanNum.sol\":187:211  bytes memory  romanBytes */\n      0x00\n        /* \"Solidity/RomanNum.sol\":220:225  roman */\n      dup4\n        /* \"Solidity/RomanNum.sol\":187:226  bytes memory  romanBytes = bytes(roman) */\n      swap1\n      pop\n        /* \"Solidity/RomanNum.sol\":236:247  uint length */\n      0x00\n        /* \"Solidity/RomanNum.sol\":250:260  romanBytes */\n      dup2\n        /* \"Solidity/RomanNum.sol\":250:267  romanBytes.length */\n      mload\n        /* \"Solidity/RomanNum.sol\":236:267  uint length = romanBytes.length */\n      swap1\n      pop\n        /* \"Solidity/RomanNum.sol\":282:288  uint i */\n      0x00\n        /* \"Solidity/RomanNum.sol\":291:292  0 */\n      0x00\n        /* \"Solidity/RomanNum.sol\":282:292  uint i = 0 */\n      swap1\n      pop\n        /* \"Solidity/RomanNum.sol\":277:2122  for (uint i = 0;i< length;){... */\n    tag_11:\n        /* \"Solidity/RomanNum.sol\":296:302  length */\n      dup2\n        /* \"Solidity/RomanNum.sol\":293:294  i */\n      dup2\n        /* \"Solidity/RomanNum.sol\":293:302  i< length */\n      lt\n        /* \"Solidity/RomanNum.sol\":277:2122  for (uint i = 0;i< length;){... */\n      iszero\n      tag_12\n      jumpi\n        /* \"Solidity/RomanNum.sol\":321:341  romanBytes[i] == \"M\" */\n      0x4d00000000000000000000000000000000000000000000000000000000000000\n        /* \"Solidity/RomanNum.sol\":321:331  romanBytes */\n      dup4\n        /* \"Solidity/RomanNum.sol\":332:333  i */\n      dup3\n        /* \"Solidity/RomanNum.sol\":321:334  romanBytes[i] */\n      dup2\n      mload\n      dup2\n      lt\n      tag_14\n      jumpi\n      tag_15\n      tag_16\n      jump\t// in\n    tag_15:\n    tag_14:\n      0x20\n      add\n      add\n      mload\n      0xf8\n      shr\n      0xf8\n      shl\n        /* \"Solidity/RomanNum.sol\":321:341  romanBytes[i] == \"M\" */\n      not(0xffffffffffffffffffffffffffffffffffffffffffffffffffffffffffffff)\n      and\n      sub\n        /* \"Solidity/RomanNum.sol\":318:2095  if(romanBytes[i] == \"M\")... */\n      tag_17\n      jumpi\n        /* \"Solidity/RomanNum.sol\":382:386  1000 */\n      0x03e8\n        /* \"Solidity/RomanNum.sol\":373:386  result+= 1000 */\n      dup5\n      tag_18\n      swap2\n      swap1\n      tag_19\n      jump\t// in\n    tag_18:\n      swap4\n      pop\n        /* \"Solidity/RomanNum.sol\":318:2095  if(romanBytes[i] == \"M\")... */\n      jump(tag_20)\n    tag_17:\n        /* \"Solidity/RomanNum.sol\":422:442  romanBytes[i] == \"D\" */\n      0x4400000000000000000000000000000000000000000000000000000000000000\n        /* \"Solidity/RomanNum.sol\":422:432  romanBytes */\n      dup4\n        /* \"Solidity/RomanNum.sol\":433:434  i */\n      dup3\n        /* \"Solidity/RomanNum.sol\":422:435  romanBytes[i] */\n      dup2\n      mload\n      dup2\n      lt\n      tag_21\n      jumpi\n      tag_22\n      tag_16\n      jump\t// in\n    tag_22:\n    tag_21:\n      0x20\n      add\n      add\n      mload\n      0xf8\n      shr\n      0xf8\n      shl\n        /* \"Solidity/RomanNum.sol\":422:442  romanBytes[i] == \"D\" */\n      not(0xffffffffffffffffffffffffffffffffffffffffffffffffffffffffffffff)\n      and\n      sub\n        /* \"Solidity/RomanNum.sol\":419:2095  if(romanBytes[i] == \"D\")... */\n      tag_23\n      jumpi\n        /* \"Solidity/RomanNum.sol\":483:486  500 */\n      0x01f4\n        /* \"Solidity/RomanNum.sol\":474:486  result+= 500 */\n      dup5\n      tag_24\n      swap2\n      swap1\n      tag_19\n      jump\t// in\n    tag_24:\n      swap4\n      pop\n        /* \"Solidity/RomanNum.sol\":419:2095  if(romanBytes[i] == \"D\")... */\n      jump(tag_25)\n    tag_23:\n        /* \"Solidity/RomanNum.sol\":522:542  romanBytes[i] == \"C\" */\n      0x4300000000000000000000000000000000000000000000000000000000000000\n        /* \"Solidity/RomanNum.sol\":522:532  romanBytes */\n      dup4\n        /* \"Solidity/RomanNum.sol\":533:534  i */\n      dup3\n        /* \"Solidity/RomanNum.sol\":522:535  romanBytes[i] */\n      dup2\n      mload\n      dup2\n      lt\n      tag_26\n      jumpi\n      tag_27\n      tag_16\n      jump\t// in\n    tag_27:\n    tag_26:\n      0x20\n      add\n      add\n      mload\n      0xf8\n      shr\n      0xf8\n      shl\n        /* \"Solidity/RomanNum.sol\":522:542  romanBytes[i] == \"C\" */\n      not(0xffffffffffffffffffffffffffffffffffffffffffffffffffffffffffffff)\n      and\n      eq\n        /* \"Solidity/RomanNum.sol\":522:560  romanBytes[i] == \"C\" && i + 1 < length */\n      dup1\n      iszero\n      tag_28\n      jumpi\n      pop\n        /* \"Solidity/RomanNum.sol\":554:560  length */\n      dup2\n        /* \"Solidity/RomanNum.sol\":550:551  1 */\n      0x01\n        /* \"Solidity/RomanNum.sol\":546:547  i */\n      dup3\n        /* \"Solidity/RomanNum.sol\":546:551  i + 1 */\n      tag_29\n      swap2\n      swap1\n      tag_19\n      jump\t// in\n    tag_29:\n        /* \"Solidity/RomanNum.sol\":546:560  i + 1 < length */\n      lt\n        /* \"Solidity/RomanNum.sol\":522:560  romanBytes[i] == \"C\" && i + 1 < length */\n    tag_28:\n        /* \"Solidity/RomanNum.sol\":519:2095  if(romanBytes[i] == \"C\" && i + 1 < length)... */\n      iszero\n      tag_30\n      jumpi\n        /* \"Solidity/RomanNum.sol\":595:617  romanBytes[i+1] == \"M\" */\n      0x4d00000000000000000000000000000000000000000000000000000000000000\n        /* \"Solidity/RomanNum.sol\":595:605  romanBytes */\n      dup4\n        /* \"Solidity/RomanNum.sol\":608:609  1 */\n      0x01\n        /* \"Solidity/RomanNum.sol\":606:607  i */\n      dup4\n        /* \"Solidity/RomanNum.sol\":606:609  i+1 */\n      tag_31\n      swap2\n      swap1\n      tag_19\n      jump\t// in\n    tag_31:\n        /* \"Solidity/RomanNum.sol\":595:610  romanBytes[i+1] */\n      dup2\n      mload\n      dup2\n      lt\n      tag_32\n      jumpi\n      tag_33\n      tag_16\n      jump\t// in\n    tag_33:\n    tag_32:\n      0x20\n      add\n      add\n      mload\n      0xf8\n      shr\n      0xf8\n      shl\n        /* \"Solidity/RomanNum.sol\":595:617  romanBytes[i+1] == \"M\" */\n      not(0xffffffffffffffffffffffffffffffffffffffffffffffffffffffffffffff)\n      and\n      sub\n        /* \"Solidity/RomanNum.sol\":592:927  if(romanBytes[i+1] == \"M\")... */\n      tag_34\n      jumpi\n        /* \"Solidity/RomanNum.sol\":666:669  900 */\n      0x0384\n        /* \"Solidity/RomanNum.sol\":657:669  result+= 900 */\n      dup5\n      tag_35\n      swap2\n      swap1\n      tag_19\n      jump\t// in\n    tag_35:\n      swap4\n      pop\n        /* \"Solidity/RomanNum.sol\":691:694  i++ */\n      dup1\n      dup1\n      tag_36\n      swap1\n      tag_37\n      jump\t// in\n    tag_36:\n      swap2\n      pop\n      pop\n        /* \"Solidity/RomanNum.sol\":592:927  if(romanBytes[i+1] == \"M\")... */\n      jump(tag_38)\n    tag_34:\n        /* \"Solidity/RomanNum.sol\":738:760  romanBytes[i+1] == \"D\" */\n      0x4400000000000000000000000000000000000000000000000000000000000000\n        /* \"Solidity/RomanNum.sol\":738:748  romanBytes */\n      dup4\n        /* \"Solidity/RomanNum.sol\":751:752  1 */\n      0x01\n        /* \"Solidity/RomanNum.sol\":749:750  i */\n      dup4\n        /* \"Solidity/RomanNum.sol\":749:752  i+1 */\n      tag_39\n      swap2\n      swap1\n      tag_19\n      jump\t// in\n    tag_39:\n        /* \"Solidity/RomanNum.sol\":738:753  romanBytes[i+1] */\n      dup2\n      mload\n      dup2\n      lt\n      tag_40\n      jumpi\n      tag_41\n      tag_16\n      jump\t// in\n    tag_41:\n    tag_40:\n      0x20\n      add\n      add\n      mload\n      0xf8\n      shr\n      0xf8\n      shl\n        /* \"Solidity/RomanNum.sol\":738:760  romanBytes[i+1] == \"D\" */\n      not(0xffffffffffffffffffffffffffffffffffffffffffffffffffffffffffffff)\n      and\n      sub\n        /* \"Solidity/RomanNum.sol\":735:927  if(romanBytes[i+1] == \"D\")... */\n      tag_42\n      jumpi\n        /* \"Solidity/RomanNum.sol\":813:816  400 */\n      0x0190\n        /* \"Solidity/RomanNum.sol\":804:816  result+= 400 */\n      dup5\n      tag_43\n      swap2\n      swap1\n      tag_19\n      jump\t// in\n    tag_43:\n      swap4\n      pop\n        /* \"Solidity/RomanNum.sol\":735:927  if(romanBytes[i+1] == \"D\")... */\n      jump(tag_44)\n    tag_42:\n        /* \"Solidity/RomanNum.sol\":905:908  100 */\n      0x64\n        /* \"Solidity/RomanNum.sol\":896:908  result+= 100 */\n      dup5\n      tag_45\n      swap2\n      swap1\n      tag_19\n      jump\t// in\n    tag_45:\n      swap4\n      pop\n        /* \"Solidity/RomanNum.sol\":735:927  if(romanBytes[i+1] == \"D\")... */\n    tag_44:\n        /* \"Solidity/RomanNum.sol\":592:927  if(romanBytes[i+1] == \"M\")... */\n    tag_38:\n        /* \"Solidity/RomanNum.sol\":519:2095  if(romanBytes[i] == \"C\" && i + 1 < length)... */\n      jump(tag_46)\n    tag_30:\n        /* \"Solidity/RomanNum.sol\":964:984  romanBytes[i] == \"L\" */\n      0x4c00000000000000000000000000000000000000000000000000000000000000\n        /* \"Solidity/RomanNum.sol\":964:974  romanBytes */\n      dup4\n        /* \"Solidity/RomanNum.sol\":975:976  i */\n      dup3\n        /* \"Solidity/RomanNum.sol\":964:977  romanBytes[i] */\n      dup2\n      mload\n      dup2\n      lt\n      tag_47\n      jumpi\n      tag_48\n      tag_16\n      jump\t// in\n    tag_48:\n    tag_47:\n      0x20\n      add\n      add\n      mload\n      0xf8\n      shr\n      0xf8\n      shl\n        /* \"Solidity/RomanNum.sol\":964:984  romanBytes[i] == \"L\" */\n      not(0xffffffffffffffffffffffffffffffffffffffffffffffffffffffffffffff)\n      and\n      sub\n        /* \"Solidity/RomanNum.sol\":960:2095  if (romanBytes[i] == \"L\")... */\n      tag_49\n      jumpi\n        /* \"Solidity/RomanNum.sol\":1026:1028  50 */\n      0x32\n        /* \"Solidity/RomanNum.sol\":1016:1028  result += 50 */\n      dup5\n      tag_50\n      swap2\n      swap1\n      tag_19\n      jump\t// in\n    tag_50:\n      swap4\n      pop\n        /* \"Solidity/RomanNum.sol\":960:2095  if (romanBytes[i] == \"L\")... */\n      jump(tag_51)\n    tag_49:\n        /* \"Solidity/RomanNum.sol\":1064:1084  romanBytes[i] == \"X\" */\n      0x5800000000000000000000000000000000000000000000000000000000000000\n        /* \"Solidity/RomanNum.sol\":1064:1074  romanBytes */\n      dup4\n        /* \"Solidity/RomanNum.sol\":1075:1076  i */\n      dup3\n        /* \"Solidity/RomanNum.sol\":1064:1077  romanBytes[i] */\n      dup2\n      mload\n      dup2\n      lt\n      tag_52\n      jumpi\n      tag_53\n      tag_16\n      jump\t// in\n    tag_53:\n    tag_52:\n      0x20\n      add\n      add\n      mload\n      0xf8\n      shr\n      0xf8\n      shl\n        /* \"Solidity/RomanNum.sol\":1064:1084  romanBytes[i] == \"X\" */\n      not(0xffffffffffffffffffffffffffffffffffffffffffffffffffffffffffffff)\n      and\n      eq\n        /* \"Solidity/RomanNum.sol\":1064:1099  romanBytes[i] == \"X\" && i+1 <length */\n      dup1\n      iszero\n      tag_54\n      jumpi\n      pop\n        /* \"Solidity/RomanNum.sol\":1093:1099  length */\n      dup2\n        /* \"Solidity/RomanNum.sol\":1090:1091  1 */\n      0x01\n        /* \"Solidity/RomanNum.sol\":1088:1089  i */\n      dup3\n        /* \"Solidity/RomanNum.sol\":1088:1091  i+1 */\n      tag_55\n      swap2\n      swap1\n      tag_19\n      jump\t// in\n    tag_55:\n        /* \"Solidity/RomanNum.sol\":1088:1099  i+1 <length */\n      lt\n        /* \"Solidity/RomanNum.sol\":1064:1099  romanBytes[i] == \"X\" && i+1 <length */\n    tag_54:\n        /* \"Solidity/RomanNum.sol\":1061:2095  if(romanBytes[i] == \"X\" && i+1 <length)... */\n      iszero\n      tag_56\n      jumpi\n        /* \"Solidity/RomanNum.sol\":1134:1156  romanBytes[i+1] == \"C\" */\n      0x4300000000000000000000000000000000000000000000000000000000000000\n        /* \"Solidity/RomanNum.sol\":1134:1144  romanBytes */\n      dup4\n        /* \"Solidity/RomanNum.sol\":1147:1148  1 */\n      0x01\n        /* \"Solidity/RomanNum.sol\":1145:1146  i */\n      dup4\n        /* \"Solidity/RomanNum.sol\":1145:1148  i+1 */\n      tag_57\n      swap2\n      swap1\n      tag_19\n      jump\t// in\n    tag_57:\n        /* \"Solidity/RomanNum.sol\":1134:1149  romanBytes[i+1] */\n      dup2\n      mload\n      dup2\n      lt\n      tag_58\n      jumpi\n      tag_59\n      tag_16\n      jump\t// in\n    tag_59:\n    tag_58:\n      0x20\n      add\n      add\n      mload\n      0xf8\n      shr\n      0xf8\n      shl\n        /* \"Solidity/RomanNum.sol\":1134:1156  romanBytes[i+1] == \"C\" */\n      not(0xffffffffffffffffffffffffffffffffffffffffffffffffffffffffffffff)\n      and\n      sub\n        /* \"Solidity/RomanNum.sol\":1131:1463  if(romanBytes[i+1] == \"C\")... */\n      tag_60\n      jumpi\n        /* \"Solidity/RomanNum.sol\":1205:1207  90 */\n      0x5a\n        /* \"Solidity/RomanNum.sol\":1196:1207  result+= 90 */\n      dup5\n      tag_61\n      swap2\n      swap1\n      tag_19\n      jump\t// in\n    tag_61:\n      swap4\n      pop\n        /* \"Solidity/RomanNum.sol\":1229:1232  i++ */\n      dup1\n      dup1\n      tag_62\n      swap1\n      tag_37\n      jump\t// in\n    tag_62:\n      swap2\n      pop\n      pop\n        /* \"Solidity/RomanNum.sol\":1131:1463  if(romanBytes[i+1] == \"C\")... */\n      jump(tag_63)\n    tag_60:\n        /* \"Solidity/RomanNum.sol\":1276:1298  romanBytes[i+1] == \"L\" */\n      0x4c00000000000000000000000000000000000000000000000000000000000000\n        /* \"Solidity/RomanNum.sol\":1276:1286  romanBytes */\n      dup4\n        /* \"Solidity/RomanNum.sol\":1289:1290  1 */\n      0x01\n        /* \"Solidity/RomanNum.sol\":1287:1288  i */\n      dup4\n        /* \"Solidity/RomanNum.sol\":1287:1290  i+1 */\n      tag_64\n      swap2\n      swap1\n      tag_19\n      jump\t// in\n    tag_64:\n        /* \"Solidity/RomanNum.sol\":1276:1291  romanBytes[i+1] */\n      dup2\n      mload\n      dup2\n      lt\n      tag_65\n      jumpi\n      tag_66\n      tag_16\n      jump\t// in\n    tag_66:\n    tag_65:\n      0x20\n      add\n      add\n      mload\n      0xf8\n      shr\n      0xf8\n      shl\n        /* \"Solidity/RomanNum.sol\":1276:1298  romanBytes[i+1] == \"L\" */\n      not(0xffffffffffffffffffffffffffffffffffffffffffffffffffffffffffffff)\n      and\n      sub\n        /* \"Solidity/RomanNum.sol\":1273:1463  if(romanBytes[i+1] == \"L\")... */\n      tag_67\n      jumpi\n        /* \"Solidity/RomanNum.sol\":1351:1353  40 */\n      0x28\n        /* \"Solidity/RomanNum.sol\":1342:1353  result+= 40 */\n      dup5\n      tag_68\n      swap2\n      swap1\n      tag_19\n      jump\t// in\n    tag_68:\n      swap4\n      pop\n        /* \"Solidity/RomanNum.sol\":1273:1463  if(romanBytes[i+1] == \"L\")... */\n      jump(tag_69)\n    tag_67:\n        /* \"Solidity/RomanNum.sol\":1442:1444  10 */\n      0x0a\n        /* \"Solidity/RomanNum.sol\":1433:1444  result+= 10 */\n      dup5\n      tag_70\n      swap2\n      swap1\n      tag_19\n      jump\t// in\n    tag_70:\n      swap4\n      pop\n        /* \"Solidity/RomanNum.sol\":1273:1463  if(romanBytes[i+1] == \"L\")... */\n    tag_69:\n        /* \"Solidity/RomanNum.sol\":1131:1463  if(romanBytes[i+1] == \"C\")... */\n    tag_63:\n        /* \"Solidity/RomanNum.sol\":1061:2095  if(romanBytes[i] == \"X\" && i+1 <length)... */\n      jump(tag_71)\n    tag_56:\n        /* \"Solidity/RomanNum.sol\":1500:1520  romanBytes[i] == \"V\" */\n      0x5600000000000000000000000000000000000000000000000000000000000000\n        /* \"Solidity/RomanNum.sol\":1500:1510  romanBytes */\n      dup4\n        /* \"Solidity/RomanNum.sol\":1511:1512  i */\n      dup3\n        /* \"Solidity/RomanNum.sol\":1500:1513  romanBytes[i] */\n      dup2\n      mload\n      dup2\n      lt\n      tag_72\n      jumpi\n      tag_73\n      tag_16\n      jump\t// in\n    tag_73:\n    tag_72:\n      0x20\n      add\n      add\n      mload\n      0xf8\n      shr\n      0xf8\n      shl\n        /* \"Solidity/RomanNum.sol\":1500:1520  romanBytes[i] == \"V\" */\n      not(0xffffffffffffffffffffffffffffffffffffffffffffffffffffffffffffff)\n      and\n      sub\n        /* \"Solidity/RomanNum.sol\":1496:2095  if (romanBytes[i] == \"V\") {... */\n      tag_74\n      jumpi\n        /* \"Solidity/RomanNum.sol\":1550:1551  5 */\n      0x05\n        /* \"Solidity/RomanNum.sol\":1540:1551  result += 5 */\n      dup5\n      tag_75\n      swap2\n      swap1\n      tag_19\n      jump\t// in\n    tag_75:\n      swap4\n      pop\n        /* \"Solidity/RomanNum.sol\":1496:2095  if (romanBytes[i] == \"V\") {... */\n      jump(tag_76)\n    tag_74:\n        /* \"Solidity/RomanNum.sol\":1589:1609  romanBytes[i] == \"I\" */\n      0x4900000000000000000000000000000000000000000000000000000000000000\n        /* \"Solidity/RomanNum.sol\":1589:1599  romanBytes */\n      dup4\n        /* \"Solidity/RomanNum.sol\":1600:1601  i */\n      dup3\n        /* \"Solidity/RomanNum.sol\":1589:1602  romanBytes[i] */\n      dup2\n      mload\n      dup2\n      lt\n      tag_77\n      jumpi\n      tag_78\n      tag_16\n      jump\t// in\n    tag_78:\n    tag_77:\n      0x20\n      add\n      add\n      mload\n      0xf8\n      shr\n      0xf8\n      shl\n        /* \"Solidity/RomanNum.sol\":1589:1609  romanBytes[i] == \"I\" */\n      not(0xffffffffffffffffffffffffffffffffffffffffffffffffffffffffffffff)\n      and\n      eq\n        /* \"Solidity/RomanNum.sol\":1589:1627  romanBytes[i] == \"I\" && i + 1 < length */\n      dup1\n      iszero\n      tag_79\n      jumpi\n      pop\n        /* \"Solidity/RomanNum.sol\":1621:1627  length */\n      dup2\n        /* \"Solidity/RomanNum.sol\":1617:1618  1 */\n      0x01\n        /* \"Solidity/RomanNum.sol\":1613:1614  i */\n      dup3\n        /* \"Solidity/RomanNum.sol\":1613:1618  i + 1 */\n      tag_80\n      swap2\n      swap1\n      tag_19\n      jump\t// in\n    tag_80:\n        /* \"Solidity/RomanNum.sol\":1613:1627  i + 1 < length */\n      lt\n        /* \"Solidity/RomanNum.sol\":1589:1627  romanBytes[i] == \"I\" && i + 1 < length */\n    tag_79:\n        /* \"Solidity/RomanNum.sol\":1585:2095  if (romanBytes[i] == \"I\" && i + 1 < length) ... */\n      iszero\n      tag_81\n      jumpi\n        /* \"Solidity/RomanNum.sol\":1664:1688  romanBytes[i + 1] == \"X\" */\n      0x5800000000000000000000000000000000000000000000000000000000000000\n        /* \"Solidity/RomanNum.sol\":1664:1674  romanBytes */\n      dup4\n        /* \"Solidity/RomanNum.sol\":1679:1680  1 */\n      0x01\n        /* \"Solidity/RomanNum.sol\":1675:1676  i */\n      dup4\n        /* \"Solidity/RomanNum.sol\":1675:1680  i + 1 */\n      tag_82\n      swap2\n      swap1\n      tag_19\n      jump\t// in\n    tag_82:\n        /* \"Solidity/RomanNum.sol\":1664:1681  romanBytes[i + 1] */\n      dup2\n      mload\n      dup2\n      lt\n      tag_83\n      jumpi\n      tag_84\n      tag_16\n      jump\t// in\n    tag_84:\n    tag_83:\n      0x20\n      add\n      add\n      mload\n      0xf8\n      shr\n      0xf8\n      shl\n        /* \"Solidity/RomanNum.sol\":1664:1688  romanBytes[i + 1] == \"X\" */\n      not(0xffffffffffffffffffffffffffffffffffffffffffffffffffffffffffffff)\n      and\n      sub\n        /* \"Solidity/RomanNum.sol\":1660:2006  if (romanBytes[i + 1] == \"X\") ... */\n      tag_85\n      jumpi\n        /* \"Solidity/RomanNum.sol\":1739:1740  9 */\n      0x09\n        /* \"Solidity/RomanNum.sol\":1729:1740  result += 9 */\n      dup5\n      tag_86\n      swap2\n      swap1\n      tag_19\n      jump\t// in\n    tag_86:\n      swap4\n      pop\n        /* \"Solidity/RomanNum.sol\":1762:1765  i++ */\n      dup1\n      dup1\n      tag_87\n      swap1\n      tag_37\n      jump\t// in\n    tag_87:\n      swap2\n      pop\n      pop\n        /* \"Solidity/RomanNum.sol\":1660:2006  if (romanBytes[i + 1] == \"X\") ... */\n      jump(tag_88)\n    tag_85:\n        /* \"Solidity/RomanNum.sol\":1794:1818  romanBytes[i + 1] == \"V\" */\n      0x5600000000000000000000000000000000000000000000000000000000000000\n        /* \"Solidity/RomanNum.sol\":1794:1804  romanBytes */\n      dup4\n        /* \"Solidity/RomanNum.sol\":1809:1810  1 */\n      0x01\n        /* \"Solidity/RomanNum.sol\":1805:1806  i */\n      dup4\n        /* \"Solidity/RomanNum.sol\":1805:1810  i + 1 */\n      tag_89\n      swap2\n      swap1\n      tag_19\n      jump\t// in\n    tag_89:\n        /* \"Solidity/RomanNum.sol\":1794:1811  romanBytes[i + 1] */\n      dup2\n      mload\n      dup2\n      lt\n      tag_90\n      jumpi\n      tag_91\n      tag_16\n      jump\t// in\n    tag_91:\n    tag_90:\n      0x20\n      add\n      add\n      mload\n      0xf8\n      shr\n      0xf8\n      shl\n        /* \"Solidity/RomanNum.sol\":1794:1818  romanBytes[i + 1] == \"V\" */\n      not(0xffffffffffffffffffffffffffffffffffffffffffffffffffffffffffffff)\n      and\n      sub\n        /* \"Solidity/RomanNum.sol\":1790:2006  if (romanBytes[i + 1] == \"V\") ... */\n      tag_92\n      jumpi\n        /* \"Solidity/RomanNum.sol\":1869:1870  4 */\n      0x04\n        /* \"Solidity/RomanNum.sol\":1859:1870  result += 4 */\n      dup5\n      tag_93\n      swap2\n      swap1\n      tag_19\n      jump\t// in\n    tag_93:\n      swap4\n      pop\n        /* \"Solidity/RomanNum.sol\":1892:1895  i++ */\n      dup1\n      dup1\n      tag_94\n      swap1\n      tag_37\n      jump\t// in\n    tag_94:\n      swap2\n      pop\n      pop\n        /* \"Solidity/RomanNum.sol\":1790:2006  if (romanBytes[i + 1] == \"V\") ... */\n      jump(tag_95)\n    tag_92:\n        /* \"Solidity/RomanNum.sol\":1986:1987  1 */\n      0x01\n        /* \"Solidity/RomanNum.sol\":1976:1987  result += 1 */\n      dup5\n      tag_96\n      swap2\n      swap1\n      tag_19\n      jump\t// in\n    tag_96:\n      swap4\n      pop\n        /* \"Solidity/RomanNum.sol\":1790:2006  if (romanBytes[i + 1] == \"V\") ... */\n    tag_95:\n        /* \"Solidity/RomanNum.sol\":1660:2006  if (romanBytes[i + 1] == \"X\") ... */\n    tag_88:\n        /* \"Solidity/RomanNum.sol\":1585:2095  if (romanBytes[i] == \"I\" && i + 1 < length) ... */\n      jump(tag_97)\n    tag_81:\n        /* \"Solidity/RomanNum.sol\":2030:2050  romanBytes[i] == \"I\" */\n      0x4900000000000000000000000000000000000000000000000000000000000000\n        /* \"Solidity/RomanNum.sol\":2030:2040  romanBytes */\n      dup4\n        /* \"Solidity/RomanNum.sol\":2041:2042  i */\n      dup3\n        /* \"Solidity/RomanNum.sol\":2030:2043  romanBytes[i] */\n      dup2\n      mload\n      dup2\n      lt\n      tag_98\n      jumpi\n      tag_99\n      tag_16\n      jump\t// in\n    tag_99:\n    tag_98:\n      0x20\n      add\n      add\n      mload\n      0xf8\n      shr\n      0xf8\n      shl\n        /* \"Solidity/RomanNum.sol\":2030:2050  romanBytes[i] == \"I\" */\n      not(0xffffffffffffffffffffffffffffffffffffffffffffffffffffffffffffff)\n      and\n      sub\n        /* \"Solidity/RomanNum.sol\":2026:2095  if (romanBytes[i] == \"I\"){... */\n      tag_100\n      jumpi\n        /* \"Solidity/RomanNum.sol\":2079:2080  1 */\n      0x01\n        /* \"Solidity/RomanNum.sol\":2069:2080  result += 1 */\n      dup5\n      tag_101\n      swap2\n      swap1\n      tag_19\n      jump\t// in\n    tag_101:\n      swap4\n      pop\n        /* \"Solidity/RomanNum.sol\":2026:2095  if (romanBytes[i] == \"I\"){... */\n    tag_100:\n        /* \"Solidity/RomanNum.sol\":1585:2095  if (romanBytes[i] == \"I\" && i + 1 < length) ... */\n    tag_97:\n        /* \"Solidity/RomanNum.sol\":1496:2095  if (romanBytes[i] == \"V\") {... */\n    tag_76:\n        /* \"Solidity/RomanNum.sol\":1061:2095  if(romanBytes[i] == \"X\" && i+1 <length)... */\n    tag_71:\n        /* \"Solidity/RomanNum.sol\":960:2095  if (romanBytes[i] == \"L\")... */\n    tag_51:\n        /* \"Solidity/RomanNum.sol\":519:2095  if(romanBytes[i] == \"C\" && i + 1 < length)... */\n    tag_46:\n        /* \"Solidity/RomanNum.sol\":419:2095  if(romanBytes[i] == \"D\")... */\n    tag_25:\n        /* \"Solidity/RomanNum.sol\":318:2095  if(romanBytes[i] == \"M\")... */\n    tag_20:\n        /* \"Solidity/RomanNum.sol\":2108:2111  i++ */\n      dup1\n      dup1\n      tag_102\n      swap1\n      tag_37\n      jump\t// in\n    tag_102:\n      swap2\n      pop\n      pop\n        /* \"Solidity/RomanNum.sol\":277:2122  for (uint i = 0;i< length;){... */\n      jump(tag_11)\n    tag_12:\n      pop\n        /* \"Solidity/RomanNum.sol\":2139:2145  result */\n      dup3\n        /* \"Solidity/RomanNum.sol\":2132:2145  return result */\n      swap4\n      pop\n      pop\n      pop\n      pop\n        /* \"Solidity/RomanNum.sol\":86:2152  function ConvertInt(string memory roman) public pure returns (uint){... */\n      swap2\n      swap1\n      pop\n      jump\t// out\n        /* \"#utility.yul\":7:82   */\n    tag_103:\n        /* \"#utility.yul\":40:46   */\n      0x00\n        /* \"#utility.yul\":73:75   */\n      0x40\n        /* \"#utility.yul\":67:76   */\n      mload\n        /* \"#utility.yul\":57:76   */\n      swap1\n      pop\n        /* \"#utility.yul\":7:82   */\n      swap1\n      jump\t// out\n        /* \"#utility.yul\":88:205   */\n    tag_104:\n        /* \"#utility.yul\":197:198   */\n      0x00\n        /* \"#utility.yul\":194:195   */\n      0x00\n        /* \"#utility.yul\":187:199   */\n      revert\n        /* \"#utility.yul\":211:328   */\n    tag_105:\n        /* \"#utility.yul\":320:321   */\n      0x00\n        /* \"#utility.yul\":317:318   */\n      0x00\n        /* \"#utility.yul\":310:322   */\n      revert\n        /* \"#utility.yul\":334:451   */\n    tag_106:\n        /* \"#utility.yul\":443:444   */\n      0x00\n        /* \"#utility.yul\":440:441   */\n      0x00\n        /* \"#utility.yul\":433:445   */\n      revert\n        /* \"#utility.yul\":457:574   */\n    tag_107:\n        /* \"#utility.yul\":566:567   */\n      0x00\n        /* \"#utility.yul\":563:564   */\n      0x00\n        /* \"#utility.yul\":556:568   */\n      revert\n        /* \"#utility.yul\":580:682   */\n    tag_108:\n        /* \"#utility.yul\":621:627   */\n      0x00\n        /* \"#utility.yul\":672:674   */\n      0x1f\n        /* \"#utility.yul\":668:675   */\n      not\n        /* \"#utility.yul\":663:665   */\n      0x1f\n        /* \"#utility.yul\":656:661   */\n      dup4\n        /* \"#utility.yul\":652:666   */\n      add\n        /* \"#utility.yul\":648:676   */\n      and\n        /* \"#utility.yul\":638:676   */\n      swap1\n      pop\n        /* \"#utility.yul\":580:682   */\n      swap2\n      swap1\n      pop\n      jump\t// out\n        /* \"#utility.yul\":688:868   */\n    tag_109:\n        /* \"#utility.yul\":736:813   */\n      0x4e487b7100000000000000000000000000000000000000000000000000000000\n        /* \"#utility.yul\":733:734   */\n      0x00\n        /* \"#utility.yul\":726:814   */\n      mstore\n        /* \"#utility.yul\":833:837   */\n      0x41\n        /* \"#utility.yul\":830:831   */\n      0x04\n        /* \"#utility.yul\":823:838   */\n      mstore\n        /* \"#utility.yul\":857:861   */\n      0x24\n        /* \"#utility.yul\":854:855   */\n      0x00\n        /* \"#utility.yul\":847:862   */\n      revert\n        /* \"#utility.yul\":874:1155   */\n    tag_110:\n        /* \"#utility.yul\":957:984   */\n      tag_128\n        /* \"#utility.yul\":979:983   */\n      dup3\n        /* \"#utility.yul\":957:984   */\n      tag_108\n      jump\t// in\n    tag_128:\n        /* \"#utility.yul\":949:955   */\n      dup2\n        /* \"#utility.yul\":945:985   */\n      add\n        /* \"#utility.yul\":1087:1093   */\n      dup2\n        /* \"#utility.yul\":1075:1085   */\n      dup2\n        /* \"#utility.yul\":1072:1094   */\n      lt\n        /* \"#utility.yul\":1051:1069   */\n      0xffffffffffffffff\n        /* \"#utility.yul\":1039:1049   */\n      dup3\n        /* \"#utility.yul\":1036:1070   */\n      gt\n        /* \"#utility.yul\":1033:1095   */\n      or\n        /* \"#utility.yul\":1030:1118   */\n      iszero\n      tag_129\n      jumpi\n        /* \"#utility.yul\":1098:1116   */\n      tag_130\n      tag_109\n      jump\t// in\n    tag_130:\n        /* \"#utility.yul\":1030:1118   */\n    tag_129:\n        /* \"#utility.yul\":1138:1148   */\n      dup1\n        /* \"#utility.yul\":1134:1136   */\n      0x40\n        /* \"#utility.yul\":1127:1149   */\n      mstore\n        /* \"#utility.yul\":917:1155   */\n      pop\n        /* \"#utility.yul\":874:1155   */\n      pop\n      pop\n      jump\t// out\n        /* \"#utility.yul\":1161:1290   */\n    tag_111:\n        /* \"#utility.yul\":1195:1201   */\n      0x00\n        /* \"#utility.yul\":1222:1242   */\n      tag_132\n      tag_103\n      jump\t// in\n    tag_132:\n        /* \"#utility.yul\":1212:1242   */\n      swap1\n      pop\n        /* \"#utility.yul\":1251:1284   */\n      tag_133\n        /* \"#utility.yul\":1279:1283   */\n      dup3\n        /* \"#utility.yul\":1271:1277   */\n      dup3\n        /* \"#utility.yul\":1251:1284   */\n      tag_110\n      jump\t// in\n    tag_133:\n        /* \"#utility.yul\":1161:1290   */\n      swap2\n      swap1\n      pop\n      jump\t// out\n        /* \"#utility.yul\":1296:1604   */\n    tag_112:\n        /* \"#utility.yul\":1358:1362   */\n      0x00\n        /* \"#utility.yul\":1448:1466   */\n      0xffffffffffffffff\n        /* \"#utility.yul\":1440:1446   */\n      dup3\n        /* \"#utility.yul\":1437:1467   */\n      gt\n        /* \"#utility.yul\":1434:1490   */\n      iszero\n      tag_135\n      jumpi\n        /* \"#utility.yul\":1470:1488   */\n      tag_136\n      tag_109\n      jump\t// in\n    tag_136:\n        /* \"#utility.yul\":1434:1490   */\n    tag_135:\n        /* \"#utility.yul\":1508:1537   */\n      tag_137\n        /* \"#utility.yul\":1530:1536   */\n      dup3\n        /* \"#utility.yul\":1508:1537   */\n      tag_108\n      jump\t// in\n    tag_137:\n        /* \"#utility.yul\":1500:1537   */\n      swap1\n      pop\n        /* \"#utility.yul\":1592:1596   */\n      0x20\n        /* \"#utility.yul\":1586:1590   */\n      dup2\n        /* \"#utility.yul\":1582:1597   */\n      add\n        /* \"#utility.yul\":1574:1597   */\n      swap1\n      pop\n        /* \"#utility.yul\":1296:1604   */\n      swap2\n      swap1\n      pop\n      jump\t// out\n        /* \"#utility.yul\":1610:1758   */\n    tag_113:\n        /* \"#utility.yul\":1708:1714   */\n      dup3\n        /* \"#utility.yul\":1703:1706   */\n      dup2\n        /* \"#utility.yul\":1698:1701   */\n      dup4\n        /* \"#utility.yul\":1685:1715   */\n      calldatacopy\n        /* \"#utility.yul\":1749:1750   */\n      0x00\n        /* \"#utility.yul\":1740:1746   */\n      dup4\n        /* \"#utility.yul\":1735:1738   */\n      dup4\n        /* \"#utility.yul\":1731:1747   */\n      add\n        /* \"#utility.yul\":1724:1751   */\n      mstore\n        /* \"#utility.yul\":1610:1758   */\n      pop\n      pop\n      pop\n      jump\t// out\n        /* \"#utility.yul\":1764:2189   */\n    tag_114:\n        /* \"#utility.yul\":1842:1847   */\n      0x00\n        /* \"#utility.yul\":1867:1933   */\n      tag_140\n        /* \"#utility.yul\":1883:1932   */\n      tag_141\n        /* \"#utility.yul\":1925:1931   */\n      dup5\n        /* \"#utility.yul\":1883:1932   */\n      tag_112\n      jump\t// in\n    tag_141:\n        /* \"#utility.yul\":1867:1933   */\n      tag_111\n      jump\t// in\n    tag_140:\n        /* \"#utility.yul\":1858:1933   */\n      swap1\n      pop\n        /* \"#utility.yul\":1956:1962   */\n      dup3\n        /* \"#utility.yul\":1949:1954   */\n      dup2\n        /* \"#utility.yul\":1942:1963   */\n      mstore\n        /* \"#utility.yul\":1994:1998   */\n      0x20\n        /* \"#utility.yul\":1987:1992   */\n      dup2\n        /* \"#utility.yul\":1983:1999   */\n      add\n        /* \"#utility.yul\":2032:2035   */\n      dup5\n        /* \"#utility.yul\":2023:2029   */\n      dup5\n        /* \"#utility.yul\":2018:2021   */\n      dup5\n        /* \"#utility.yul\":2014:2030   */\n      add\n        /* \"#utility.yul\":2011:2036   */\n      gt\n        /* \"#utility.yul\":2008:2120   */\n      iszero\n      tag_142\n      jumpi\n        /* \"#utility.yul\":2039:2118   */\n      tag_143\n      tag_107\n      jump\t// in\n    tag_143:\n        /* \"#utility.yul\":2008:2120   */\n    tag_142:\n        /* \"#utility.yul\":2129:2183   */\n      tag_144\n        /* \"#utility.yul\":2176:2182   */\n      dup5\n        /* \"#utility.yul\":2171:2174   */\n      dup3\n        /* \"#utility.yul\":2166:2169   */\n      dup6\n        /* \"#utility.yul\":2129:2183   */\n      tag_113\n      jump\t// in\n    tag_144:\n        /* \"#utility.yul\":1848:2189   */\n      pop\n        /* \"#utility.yul\":1764:2189   */\n      swap4\n      swap3\n      pop\n      pop\n      pop\n      jump\t// out\n        /* \"#utility.yul\":2209:2549   */\n    tag_115:\n        /* \"#utility.yul\":2265:2270   */\n      0x00\n        /* \"#utility.yul\":2314:2317   */\n      dup3\n        /* \"#utility.yul\":2307:2311   */\n      0x1f\n        /* \"#utility.yul\":2299:2305   */\n      dup4\n        /* \"#utility.yul\":2295:2312   */\n      add\n        /* \"#utility.yul\":2291:2318   */\n      slt\n        /* \"#utility.yul\":2281:2403   */\n      tag_146\n      jumpi\n        /* \"#utility.yul\":2322:2401   */\n      tag_147\n      tag_106\n      jump\t// in\n    tag_147:\n        /* \"#utility.yul\":2281:2403   */\n    tag_146:\n        /* \"#utility.yul\":2439:2445   */\n      dup2\n        /* \"#utility.yul\":2426:2446   */\n      calldataload\n        /* \"#utility.yul\":2464:2543   */\n      tag_148\n        /* \"#utility.yul\":2539:2542   */\n      dup5\n        /* \"#utility.yul\":2531:2537   */\n      dup3\n        /* \"#utility.yul\":2524:2528   */\n      0x20\n        /* \"#utility.yul\":2516:2522   */\n      dup7\n        /* \"#utility.yul\":2512:2529   */\n      add\n        /* \"#utility.yul\":2464:2543   */\n      tag_114\n      jump\t// in\n    tag_148:\n        /* \"#utility.yul\":2455:2543   */\n      swap2\n      pop\n        /* \"#utility.yul\":2271:2549   */\n      pop\n        /* \"#utility.yul\":2209:2549   */\n      swap3\n      swap2\n      pop\n      pop\n      jump\t// out\n        /* \"#utility.yul\":2555:3064   */\n    tag_6:\n        /* \"#utility.yul\":2624:2630   */\n      0x00\n        /* \"#utility.yul\":2673:2675   */\n      0x20\n        /* \"#utility.yul\":2661:2670   */\n      dup3\n        /* \"#utility.yul\":2652:2659   */\n      dup5\n        /* \"#utility.yul\":2648:2671   */\n      sub\n        /* \"#utility.yul\":2644:2676   */\n      slt\n        /* \"#utility.yul\":2641:2760   */\n      iszero\n      tag_150\n      jumpi\n        /* \"#utility.yul\":2679:2758   */\n      tag_151\n      tag_104\n      jump\t// in\n    tag_151:\n        /* \"#utility.yul\":2641:2760   */\n    tag_150:\n        /* \"#utility.yul\":2827:2828   */\n      0x00\n        /* \"#utility.yul\":2816:2825   */\n      dup3\n        /* \"#utility.yul\":2812:2829   */\n      add\n        /* \"#utility.yul\":2799:2830   */\n      calldataload\n        /* \"#utility.yul\":2857:2875   */\n      0xffffffffffffffff\n        /* \"#utility.yul\":2849:2855   */\n      dup2\n        /* \"#utility.yul\":2846:2876   */\n      gt\n        /* \"#utility.yul\":2843:2960   */\n      iszero\n      tag_152\n      jumpi\n        /* \"#utility.yul\":2879:2958   */\n      tag_153\n      tag_105\n      jump\t// in\n    tag_153:\n        /* \"#utility.yul\":2843:2960   */\n    tag_152:\n        /* \"#utility.yul\":2984:3047   */\n      tag_154\n        /* \"#utility.yul\":3039:3046   */\n      dup5\n        /* \"#utility.yul\":3030:3036   */\n      dup3\n        /* \"#utility.yul\":3019:3028   */\n      dup6\n        /* \"#utility.yul\":3015:3037   */\n      add\n        /* \"#utility.yul\":2984:3047   */\n      tag_115\n      jump\t// in\n    tag_154:\n        /* \"#utility.yul\":2974:3047   */\n      swap2\n      pop\n        /* \"#utility.yul\":2770:3057   */\n      pop\n        /* \"#utility.yul\":2555:3064   */\n      swap3\n      swap2\n      pop\n      pop\n      jump\t// out\n        /* \"#utility.yul\":3070:3147   */\n    tag_116:\n        /* \"#utility.yul\":3107:3114   */\n      0x00\n        /* \"#utility.yul\":3136:3141   */\n      dup2\n        /* \"#utility.yul\":3125:3141   */\n      swap1\n      pop\n        /* \"#utility.yul\":3070:3147   */\n      swap2\n      swap1\n      pop\n      jump\t// out\n        /* \"#utility.yul\":3153:3271   */\n    tag_117:\n        /* \"#utility.yul\":3240:3264   */\n      tag_157\n        /* \"#utility.yul\":3258:3263   */\n      dup2\n        /* \"#utility.yul\":3240:3264   */\n      tag_116\n      jump\t// in\n    tag_157:\n        /* \"#utility.yul\":3235:3238   */\n      dup3\n        /* \"#utility.yul\":3228:3265   */\n      mstore\n        /* \"#utility.yul\":3153:3271   */\n      pop\n      pop\n      jump\t// out\n        /* \"#utility.yul\":3277:3499   */\n    tag_9:\n        /* \"#utility.yul\":3370:3374   */\n      0x00\n        /* \"#utility.yul\":3408:3410   */\n      0x20\n        /* \"#utility.yul\":3397:3406   */\n      dup3\n        /* \"#utility.yul\":3393:3411   */\n      add\n        /* \"#utility.yul\":3385:3411   */\n      swap1\n      pop\n        /* \"#utility.yul\":3421:3492   */\n      tag_159\n        /* \"#utility.yul\":3489:3490   */\n      0x00\n        /* \"#utility.yul\":3478:3487   */\n      dup4\n        /* \"#utility.yul\":3474:3491   */\n      add\n        /* \"#utility.yul\":3465:3471   */\n      dup5\n        /* \"#utility.yul\":3421:3492   */\n      tag_117\n      jump\t// in\n    tag_159:\n        /* \"#utility.yul\":3277:3499   */\n      swap3\n      swap2\n      pop\n      pop\n      jump\t// out\n        /* \"#utility.yul\":3505:3685   */\n    tag_16:\n        /* \"#utility.yul\":3553:3630   */\n      0x4e487b7100000000000000000000000000000000000000000000000000000000\n        /* \"#utility.yul\":3550:3551   */\n      0x00\n        /* \"#utility.yul\":3543:3631   */\n      mstore\n        /* \"#utility.yul\":3650:3654   */\n      0x32\n        /* \"#utility.yul\":3647:3648   */\n      0x04\n        /* \"#utility.yul\":3640:3655   */\n      mstore\n        /* \"#utility.yul\":3674:3678   */\n      0x24\n        /* \"#utility.yul\":3671:3672   */\n      0x00\n        /* \"#utility.yul\":3664:3679   */\n      revert\n        /* \"#utility.yul\":3691:3871   */\n    tag_118:\n        /* \"#utility.yul\":3739:3816   */\n      0x4e487b7100000000000000000000000000000000000000000000000000000000\n        /* \"#utility.yul\":3736:3737   */\n      0x00\n        /* \"#utility.yul\":3729:3817   */\n      mstore\n        /* \"#utility.yul\":3836:3840   */\n      0x11\n        /* \"#utility.yul\":3833:3834   */\n      0x04\n        /* \"#utility.yul\":3826:3841   */\n      mstore\n        /* \"#utility.yul\":3860:3864   */\n      0x24\n        /* \"#utility.yul\":3857:3858   */\n      0x00\n        /* \"#utility.yul\":3850:3865   */\n      revert\n        /* \"#utility.yul\":3877:4068   */\n    tag_19:\n        /* \"#utility.yul\":3917:3920   */\n      0x00\n        /* \"#utility.yul\":3936:3956   */\n      tag_163\n        /* \"#utility.yul\":3954:3955   */\n      dup3\n        /* \"#utility.yul\":3936:3956   */\n      tag_116\n      jump\t// in\n    tag_163:\n        /* \"#utility.yul\":3931:3956   */\n      swap2\n      pop\n        /* \"#utility.yul\":3970:3990   */\n      tag_164\n        /* \"#utility.yul\":3988:3989   */\n      dup4\n        /* \"#utility.yul\":3970:3990   */\n      tag_116\n      jump\t// in\n    tag_164:\n        /* \"#utility.yul\":3965:3990   */\n      swap3\n      pop\n        /* \"#utility.yul\":4013:4014   */\n      dup3\n        /* \"#utility.yul\":4010:4011   */\n      dup3\n        /* \"#utility.yul\":4006:4015   */\n      add\n        /* \"#utility.yul\":3999:4015   */\n      swap1\n      pop\n        /* \"#utility.yul\":4034:4037   */\n      dup1\n        /* \"#utility.yul\":4031:4032   */\n      dup3\n        /* \"#utility.yul\":4028:4038   */\n      gt\n        /* \"#utility.yul\":4025:4061   */\n      iszero\n      tag_165\n      jumpi\n        /* \"#utility.yul\":4041:4059   */\n      tag_166\n      tag_118\n      jump\t// in\n    tag_166:\n        /* \"#utility.yul\":4025:4061   */\n    tag_165:\n        /* \"#utility.yul\":3877:4068   */\n      swap3\n      swap2\n      pop\n      pop\n      jump\t// out\n        /* \"#utility.yul\":4074:4307   */\n    tag_37:\n        /* \"#utility.yul\":4113:4116   */\n      0x00\n        /* \"#utility.yul\":4136:4160   */\n      tag_168\n        /* \"#utility.yul\":4154:4159   */\n      dup3\n        /* \"#utility.yul\":4136:4160   */\n      tag_116\n      jump\t// in\n    tag_168:\n        /* \"#utility.yul\":4127:4160   */\n      swap2\n      pop\n        /* \"#utility.yul\":4182:4248   */\n      0xffffffffffffffffffffffffffffffffffffffffffffffffffffffffffffffff\n        /* \"#utility.yul\":4175:4180   */\n      dup3\n        /* \"#utility.yul\":4172:4249   */\n      sub\n        /* \"#utility.yul\":4169:4272   */\n      tag_169\n      jumpi\n        /* \"#utility.yul\":4252:4270   */\n      tag_170\n      tag_118\n      jump\t// in\n    tag_170:\n        /* \"#utility.yul\":4169:4272   */\n    tag_169:\n        /* \"#utility.yul\":4299:4300   */\n      0x01\n        /* \"#utility.yul\":4292:4297   */\n      dup3\n        /* \"#utility.yul\":4288:4301   */\n      add\n        /* \"#utility.yul\":4281:4301   */\n      swap1\n      pop\n        /* \"#utility.yul\":4074:4307   */\n      swap2\n      swap1\n      pop\n      jump\t// out\n\n    auxdata: 0xa2646970667358221220d6ae58a4f6c7cf7219c622405259defe1d682e2cd511a6f5b6001355787cbd1364736f6c634300081e0033\n}\n",
				"bytecode": {
					"linkReferences": {},
					"object": "6080604052348015600e575f5ffd5b50610ae78061001c5f395ff3fe608060405234801561000f575f5ffd5b5060043610610029575f3560e01c80637f424aea1461002d575b5f5ffd5b61004760048036038101906100429190610965565b61005d565b60405161005491906109c4565b60405180910390f35b5f5f5f90505f8390505f815190505f5f90505b8181101561080c577f4d000000000000000000000000000000000000000000000000000000000000008382815181106100ac576100ab6109dd565b5b602001015160f81c60f81b7effffffffffffffffffffffffffffffffffffffffffffffffffffffffffffff1916036100f3576103e8846100ec9190610a37565b93506107f9565b7f4400000000000000000000000000000000000000000000000000000000000000838281518110610127576101266109dd565b5b602001015160f81c60f81b7effffffffffffffffffffffffffffffffffffffffffffffffffffffffffffff19160361016e576101f4846101679190610a37565b93506107f8565b7f43000000000000000000000000000000000000000000000000000000000000008382815181106101a2576101a16109dd565b5b602001015160f81c60f81b7effffffffffffffffffffffffffffffffffffffffffffffffffffffffffffff19161480156101e75750816001826101e59190610a37565b105b1561031e577f4d000000000000000000000000000000000000000000000000000000000000008360018361021b9190610a37565b8151811061022c5761022b6109dd565b5b602001015160f81c60f81b7effffffffffffffffffffffffffffffffffffffffffffffffffffffffffffff191603610281576103848461026c9190610a37565b9350808061027990610a6a565b915050610319565b7f4400000000000000000000000000000000000000000000000000000000000000836001836102b09190610a37565b815181106102c1576102c06109dd565b5b602001015160f81c60f81b7effffffffffffffffffffffffffffffffffffffffffffffffffffffffffffff19160361030857610190846103019190610a37565b9350610318565b6064846103159190610a37565b93505b5b6107f7565b7f4c00000000000000000000000000000000000000000000000000000000000000838281518110610352576103516109dd565b5b602001015160f81c60f81b7effffffffffffffffffffffffffffffffffffffffffffffffffffffffffffff191603610398576032846103919190610a37565b93506107f6565b7f58000000000000000000000000000000000000000000000000000000000000008382815181106103cc576103cb6109dd565b5b602001015160f81c60f81b7effffffffffffffffffffffffffffffffffffffffffffffffffffffffffffff191614801561041157508160018261040f9190610a37565b105b15610546577f4300000000000000000000000000000000000000000000000000000000000000836001836104459190610a37565b81518110610456576104556109dd565b5b602001015160f81c60f81b7effffffffffffffffffffffffffffffffffffffffffffffffffffffffffffff1916036104aa57605a846104959190610a37565b935080806104a290610a6a565b915050610541565b7f4c00000000000000000000000000000000000000000000000000000000000000836001836104d99190610a37565b815181106104ea576104e96109dd565b5b602001015160f81c60f81b7effffffffffffffffffffffffffffffffffffffffffffffffffffffffffffff191603610530576028846105299190610a37565b9350610540565b600a8461053d9190610a37565b93505b5b6107f5565b7f560000000000000000000000000000000000000000000000000000000000000083828151811061057a576105796109dd565b5b602001015160f81c60f81b7effffffffffffffffffffffffffffffffffffffffffffffffffffffffffffff1916036105c0576005846105b99190610a37565b93506107f4565b7f49000000000000000000000000000000000000000000000000000000000000008382815181106105f4576105f36109dd565b5b602001015160f81c60f81b7effffffffffffffffffffffffffffffffffffffffffffffffffffffffffffff19161480156106395750816001826106379190610a37565b105b1561077c577f58000000000000000000000000000000000000000000000000000000000000008360018361066d9190610a37565b8151811061067e5761067d6109dd565b5b602001015160f81c60f81b7effffffffffffffffffffffffffffffffffffffffffffffffffffffffffffff1916036106d2576009846106bd9190610a37565b935080806106ca90610a6a565b915050610777565b7f5600000000000000000000000000000000000000000000000000000000000000836001836107019190610a37565b81518110610712576107116109dd565b5b602001015160f81c60f81b7effffffffffffffffffffffffffffffffffffffffffffffffffffffffffffff191603610766576004846107519190610a37565b9350808061075e90610a6a565b915050610776565b6001846107739190610a37565b93505b5b6107f3565b7f49000000000000000000000000000000000000000000000000000000000000008382815181106107b0576107af6109dd565b5b602001015160f81c60f81b7effffffffffffffffffffffffffffffffffffffffffffffffffffffffffffff1916036107f2576001846107ef9190610a37565b93505b5b5b5b5b5b5b5b808061080490610a6a565b915050610070565b50829350505050919050565b5f604051905090565b5f5ffd5b5f5ffd5b5f5ffd5b5f5ffd5b5f601f19601f8301169050919050565b7f4e487b71000000000000000000000000000000000000000000000000000000005f52604160045260245ffd5b61087782610831565b810181811067ffffffffffffffff8211171561089657610895610841565b5b80604052505050565b5f6108a8610818565b90506108b4828261086e565b919050565b5f67ffffffffffffffff8211156108d3576108d2610841565b5b6108dc82610831565b9050602081019050919050565b828183375f83830152505050565b5f610909610904846108b9565b61089f565b9050828152602081018484840111156109255761092461082d565b5b6109308482856108e9565b509392505050565b5f82601f83011261094c5761094b610829565b5b813561095c8482602086016108f7565b91505092915050565b5f6020828403121561097a57610979610821565b5b5f82013567ffffffffffffffff81111561099757610996610825565b5b6109a384828501610938565b91505092915050565b5f819050919050565b6109be816109ac565b82525050565b5f6020820190506109d75f8301846109b5565b92915050565b7f4e487b71000000000000000000000000000000000000000000000000000000005f52603260045260245ffd5b7f4e487b71000000000000000000000000000000000000000000000000000000005f52601160045260245ffd5b5f610a41826109ac565b9150610a4c836109ac565b9250828201905080821115610a6457610a63610a0a565b5b92915050565b5f610a74826109ac565b91507fffffffffffffffffffffffffffffffffffffffffffffffffffffffffffffffff8203610aa657610aa5610a0a565b5b60018201905091905056fea2646970667358221220d6ae58a4f6c7cf7219c622405259defe1d682e2cd511a6f5b6001355787cbd1364736f6c634300081e0033",
					"opcodes": "PUSH1 0x80 PUSH1 0x40 MSTORE CALLVALUE DUP1 ISZERO PUSH1 0xE JUMPI PUSH0 PUSH0 REVERT JUMPDEST POP PUSH2 0xAE7 DUP1 PUSH2 0x1C PUSH0 CODECOPY PUSH0 RETURN INVALID PUSH1 0x80 PUSH1 0x40 MSTORE CALLVALUE DUP1 ISZERO PUSH2 0xF JUMPI PUSH0 PUSH0 REVERT JUMPDEST POP PUSH1 0x4 CALLDATASIZE LT PUSH2 0x29 JUMPI PUSH0 CALLDATALOAD PUSH1 0xE0 SHR DUP1 PUSH4 0x7F424AEA EQ PUSH2 0x2D JUMPI JUMPDEST PUSH0 PUSH0 REVERT JUMPDEST PUSH2 0x47 PUSH1 0x4 DUP1 CALLDATASIZE SUB DUP2 ADD SWAP1 PUSH2 0x42 SWAP2 SWAP1 PUSH2 0x965 JUMP JUMPDEST PUSH2 0x5D JUMP JUMPDEST PUSH1 0x40 MLOAD PUSH2 0x54 SWAP2 SWAP1 PUSH2 0x9C4 JUMP JUMPDEST PUSH1 0x40 MLOAD DUP1 SWAP2 SUB SWAP1 RETURN JUMPDEST PUSH0 PUSH0 PUSH0 SWAP1 POP PUSH0 DUP4 SWAP1 POP PUSH0 DUP2 MLOAD SWAP1 POP PUSH0 PUSH0 SWAP1 POP JUMPDEST DUP2 DUP2 LT ISZERO PUSH2 0x80C JUMPI PUSH32 0x4D00000000000000000000000000000000000000000000000000000000000000 DUP4 DUP3 DUP2 MLOAD DUP2 LT PUSH2 0xAC JUMPI PUSH2 0xAB PUSH2 0x9DD JUMP JUMPDEST JUMPDEST PUSH1 0x20 ADD ADD MLOAD PUSH1 0xF8 SHR PUSH1 0xF8 SHL PUSH31 0xFFFFFFFFFFFFFFFFFFFFFFFFFFFFFFFFFFFFFFFFFFFFFFFFFFFFFFFFFFFFFF NOT AND SUB PUSH2 0xF3 JUMPI PUSH2 0x3E8 DUP5 PUSH2 0xEC SWAP2 SWAP1 PUSH2 0xA37 JUMP JUMPDEST SWAP4 POP PUSH2 0x7F9 JUMP JUMPDEST PUSH32 0x4400000000000000000000000000000000000000000000000000000000000000 DUP4 DUP3 DUP2 MLOAD DUP2 LT PUSH2 0x127 JUMPI PUSH2 0x126 PUSH2 0x9DD JUMP JUMPDEST JUMPDEST PUSH1 0x20 ADD ADD MLOAD PUSH1 0xF8 SHR PUSH1 0xF8 SHL PUSH31 0xFFFFFFFFFFFFFFFFFFFFFFFFFFFFFFFFFFFFFFFFFFFFFFFFFFFFFFFFFFFFFF NOT AND SUB PUSH2 0x16E JUMPI PUSH2 0x1F4 DUP5 PUSH2 0x167 SWAP2 SWAP1 PUSH2 0xA37 JUMP JUMPDEST SWAP4 POP PUSH2 0x7F8 JUMP JUMPDEST PUSH32 0x4300000000000000000000000000000000000000000000000000000000000000 DUP4 DUP3 DUP2 MLOAD DUP2 LT PUSH2 0x1A2 JUMPI PUSH2 0x1A1 PUSH2 0x9DD JUMP JUMPDEST JUMPDEST PUSH1 0x20 ADD ADD MLOAD PUSH1 0xF8 SHR PUSH1 0xF8 SHL PUSH31 0xFFFFFFFFFFFFFFFFFFFFFFFFFFFFFFFFFFFFFFFFFFFFFFFFFFFFFFFFFFFFFF NOT AND EQ DUP1 ISZERO PUSH2 0x1E7 JUMPI POP DUP2 PUSH1 0x1 DUP3 PUSH2 0x1E5 SWAP2 SWAP1 PUSH2 0xA37 JUMP JUMPDEST LT JUMPDEST ISZERO PUSH2 0x31E JUMPI PUSH32 0x4D00000000000000000000000000000000000000000000000000000000000000 DUP4 PUSH1 0x1 DUP4 PUSH2 0x21B SWAP2 SWAP1 PUSH2 0xA37 JUMP JUMPDEST DUP2 MLOAD DUP2 LT PUSH2 0x22C JUMPI PUSH2 0x22B PUSH2 0x9DD JUMP JUMPDEST JUMPDEST PUSH1 0x20 ADD ADD MLOAD PUSH1 0xF8 SHR PUSH1 0xF8 SHL PUSH31 0xFFFFFFFFFFFFFFFFFFFFFFFFFFFFFFFFFFFFFFFFFFFFFFFFFFFFFFFFFFFFFF NOT AND SUB PUSH2 0x281 JUMPI PUSH2 0x384 DUP5 PUSH2 0x26C SWAP2 SWAP1 PUSH2 0xA37 JUMP JUMPDEST SWAP4 POP DUP1 DUP1 PUSH2 0x279 SWAP1 PUSH2 0xA6A JUMP JUMPDEST SWAP2 POP POP PUSH2 0x319 JUMP JUMPDEST PUSH32 0x4400000000000000000000000000000000000000000000000000000000000000 DUP4 PUSH1 0x1 DUP4 PUSH2 0x2B0 SWAP2 SWAP1 PUSH2 0xA37 JUMP JUMPDEST DUP2 MLOAD DUP2 LT PUSH2 0x2C1 JUMPI PUSH2 0x2C0 PUSH2 0x9DD JUMP JUMPDEST JUMPDEST PUSH1 0x20 ADD ADD MLOAD PUSH1 0xF8 SHR PUSH1 0xF8 SHL PUSH31 0xFFFFFFFFFFFFFFFFFFFFFFFFFFFFFFFFFFFFFFFFFFFFFFFFFFFFFFFFFFFFFF NOT AND SUB PUSH2 0x308 JUMPI PUSH2 0x190 DUP5 PUSH2 0x301 SWAP2 SWAP1 PUSH2 0xA37 JUMP JUMPDEST SWAP4 POP PUSH2 0x318 JUMP JUMPDEST PUSH1 0x64 DUP5 PUSH2 0x315 SWAP2 SWAP1 PUSH2 0xA37 JUMP JUMPDEST SWAP4 POP JUMPDEST JUMPDEST PUSH2 0x7F7 JUMP JUMPDEST PUSH32 0x4C00000000000000000000000000000000000000000000000000000000000000 DUP4 DUP3 DUP2 MLOAD DUP2 LT PUSH2 0x352 JUMPI PUSH2 0x351 PUSH2 0x9DD JUMP JUMPDEST JUMPDEST PUSH1 0x20 ADD ADD MLOAD PUSH1 0xF8 SHR PUSH1 0xF8 SHL PUSH31 0xFFFFFFFFFFFFFFFFFFFFFFFFFFFFFFFFFFFFFFFFFFFFFFFFFFFFFFFFFFFFFF NOT AND SUB PUSH2 0x398 JUMPI PUSH1 0x32 DUP5 PUSH2 0x391 SWAP2 SWAP1 PUSH2 0xA37 JUMP JUMPDEST SWAP4 POP PUSH2 0x7F6 JUMP JUMPDEST PUSH32 0x5800000000000000000000000000000000000000000000000000000000000000 DUP4 DUP3 DUP2 MLOAD DUP2 LT PUSH2 0x3CC JUMPI PUSH2 0x3CB PUSH2 0x9DD JUMP JUMPDEST JUMPDEST PUSH1 0x20 ADD ADD MLOAD PUSH1 0xF8 SHR PUSH1 0xF8 SHL PUSH31 0xFFFFFFFFFFFFFFFFFFFFFFFFFFFFFFFFFFFFFFFFFFFFFFFFFFFFFFFFFFFFFF NOT AND EQ DUP1 ISZERO PUSH2 0x411 JUMPI POP DUP2 PUSH1 0x1 DUP3 PUSH2 0x40F SWAP2 SWAP1 PUSH2 0xA37 JUMP JUMPDEST LT JUMPDEST ISZERO PUSH2 0x546 JUMPI PUSH32 0x4300000000000000000000000000000000000000000000000000000000000000 DUP4 PUSH1 0x1 DUP4 PUSH2 0x445 SWAP2 SWAP1 PUSH2 0xA37 JUMP JUMPDEST DUP2 MLOAD DUP2 LT PUSH2 0x456 JUMPI PUSH2 0x455 PUSH2 0x9DD JUMP JUMPDEST JUMPDEST PUSH1 0x20 ADD ADD MLOAD PUSH1 0xF8 SHR PUSH1 0xF8 SHL PUSH31 0xFFFFFFFFFFFFFFFFFFFFFFFFFFFFFFFFFFFFFFFFFFFFFFFFFFFFFFFFFFFFFF NOT AND SUB PUSH2 0x4AA JUMPI PUSH1 0x5A DUP5 PUSH2 0x495 SWAP2 SWAP1 PUSH2 0xA37 JUMP JUMPDEST SWAP4 POP DUP1 DUP1 PUSH2 0x4A2 SWAP1 PUSH2 0xA6A JUMP JUMPDEST SWAP2 POP POP PUSH2 0x541 JUMP JUMPDEST PUSH32 0x4C00000000000000000000000000000000000000000000000000000000000000 DUP4 PUSH1 0x1 DUP4 PUSH2 0x4D9 SWAP2 SWAP1 PUSH2 0xA37 JUMP JUMPDEST DUP2 MLOAD DUP2 LT PUSH2 0x4EA JUMPI PUSH2 0x4E9 PUSH2 0x9DD JUMP JUMPDEST JUMPDEST PUSH1 0x20 ADD ADD MLOAD PUSH1 0xF8 SHR PUSH1 0xF8 SHL PUSH31 0xFFFFFFFFFFFFFFFFFFFFFFFFFFFFFFFFFFFFFFFFFFFFFFFFFFFFFFFFFFFFFF NOT AND SUB PUSH2 0x530 JUMPI PUSH1 0x28 DUP5 PUSH2 0x529 SWAP2 SWAP1 PUSH2 0xA37 JUMP JUMPDEST SWAP4 POP PUSH2 0x540 JUMP JUMPDEST PUSH1 0xA DUP5 PUSH2 0x53D SWAP2 SWAP1 PUSH2 0xA37 JUMP JUMPDEST SWAP4 POP JUMPDEST JUMPDEST PUSH2 0x7F5 JUMP JUMPDEST PUSH32 0x5600000000000000000000000000000000000000000000000000000000000000 DUP4 DUP3 DUP2 MLOAD DUP2 LT PUSH2 0x57A JUMPI PUSH2 0x579 PUSH2 0x9DD JUMP JUMPDEST JUMPDEST PUSH1 0x20 ADD ADD MLOAD PUSH1 0xF8 SHR PUSH1 0xF8 SHL PUSH31 0xFFFFFFFFFFFFFFFFFFFFFFFFFFFFFFFFFFFFFFFFFFFFFFFFFFFFFFFFFFFFFF NOT AND SUB PUSH2 0x5C0 JUMPI PUSH1 0x5 DUP5 PUSH2 0x5B9 SWAP2 SWAP1 PUSH2 0xA37 JUMP JUMPDEST SWAP4 POP PUSH2 0x7F4 JUMP JUMPDEST PUSH32 0x4900000000000000000000000000000000000000000000000000000000000000 DUP4 DUP3 DUP2 MLOAD DUP2 LT PUSH2 0x5F4 JUMPI PUSH2 0x5F3 PUSH2 0x9DD JUMP JUMPDEST JUMPDEST PUSH1 0x20 ADD ADD MLOAD PUSH1 0xF8 SHR PUSH1 0xF8 SHL PUSH31 0xFFFFFFFFFFFFFFFFFFFFFFFFFFFFFFFFFFFFFFFFFFFFFFFFFFFFFFFFFFFFFF NOT AND EQ DUP1 ISZERO PUSH2 0x639 JUMPI POP DUP2 PUSH1 0x1 DUP3 PUSH2 0x637 SWAP2 SWAP1 PUSH2 0xA37 JUMP JUMPDEST LT JUMPDEST ISZERO PUSH2 0x77C JUMPI PUSH32 0x5800000000000000000000000000000000000000000000000000000000000000 DUP4 PUSH1 0x1 DUP4 PUSH2 0x66D SWAP2 SWAP1 PUSH2 0xA37 JUMP JUMPDEST DUP2 MLOAD DUP2 LT PUSH2 0x67E JUMPI PUSH2 0x67D PUSH2 0x9DD JUMP JUMPDEST JUMPDEST PUSH1 0x20 ADD ADD MLOAD PUSH1 0xF8 SHR PUSH1 0xF8 SHL PUSH31 0xFFFFFFFFFFFFFFFFFFFFFFFFFFFFFFFFFFFFFFFFFFFFFFFFFFFFFFFFFFFFFF NOT AND SUB PUSH2 0x6D2 JUMPI PUSH1 0x9 DUP5 PUSH2 0x6BD SWAP2 SWAP1 PUSH2 0xA37 JUMP JUMPDEST SWAP4 POP DUP1 DUP1 PUSH2 0x6CA SWAP1 PUSH2 0xA6A JUMP JUMPDEST SWAP2 POP POP PUSH2 0x777 JUMP JUMPDEST PUSH32 0x5600000000000000000000000000000000000000000000000000000000000000 DUP4 PUSH1 0x1 DUP4 PUSH2 0x701 SWAP2 SWAP1 PUSH2 0xA37 JUMP JUMPDEST DUP2 MLOAD DUP2 LT PUSH2 0x712 JUMPI PUSH2 0x711 PUSH2 0x9DD JUMP JUMPDEST JUMPDEST PUSH1 0x20 ADD ADD MLOAD PUSH1 0xF8 SHR PUSH1 0xF8 SHL PUSH31 0xFFFFFFFFFFFFFFFFFFFFFFFFFFFFFFFFFFFFFFFFFFFFFFFFFFFFFFFFFFFFFF NOT AND SUB PUSH2 0x766 JUMPI PUSH1 0x4 DUP5 PUSH2 0x751 SWAP2 SWAP1 PUSH2 0xA37 JUMP JUMPDEST SWAP4 POP DUP1 DUP1 PUSH2 0x75E SWAP1 PUSH2 0xA6A JUMP JUMPDEST SWAP2 POP POP PUSH2 0x776 JUMP JUMPDEST PUSH1 0x1 DUP5 PUSH2 0x773 SWAP2 SWAP1 PUSH2 0xA37 JUMP JUMPDEST SWAP4 POP JUMPDEST JUMPDEST PUSH2 0x7F3 JUMP JUMPDEST PUSH32 0x4900000000000000000000000000000000000000000000000000000000000000 DUP4 DUP3 DUP2 MLOAD DUP2 LT PUSH2 0x7B0 JUMPI PUSH2 0x7AF PUSH2 0x9DD JUMP JUMPDEST JUMPDEST PUSH1 0x20 ADD ADD MLOAD PUSH1 0xF8 SHR PUSH1 0xF8 SHL PUSH31 0xFFFFFFFFFFFFFFFFFFFFFFFFFFFFFFFFFFFFFFFFFFFFFFFFFFFFFFFFFFFFFF NOT AND SUB PUSH2 0x7F2 JUMPI PUSH1 0x1 DUP5 PUSH2 0x7EF SWAP2 SWAP1 PUSH2 0xA37 JUMP JUMPDEST SWAP4 POP JUMPDEST JUMPDEST JUMPDEST JUMPDEST JUMPDEST JUMPDEST JUMPDEST JUMPDEST DUP1 DUP1 PUSH2 0x804 SWAP1 PUSH2 0xA6A JUMP JUMPDEST SWAP2 POP POP PUSH2 0x70 JUMP JUMPDEST POP DUP3 SWAP4 POP POP POP POP SWAP2 SWAP1 POP JUMP JUMPDEST PUSH0 PUSH1 0x40 MLOAD SWAP1 POP SWAP1 JUMP JUMPDEST PUSH0 PUSH0 REVERT JUMPDEST PUSH0 PUSH0 REVERT JUMPDEST PUSH0 PUSH0 REVERT JUMPDEST PUSH0 PUSH0 REVERT JUMPDEST PUSH0 PUSH1 0x1F NOT PUSH1 0x1F DUP4 ADD AND SWAP1 POP SWAP2 SWAP1 POP JUMP JUMPDEST PUSH32 0x4E487B7100000000000000000000000000000000000000000000000000000000 PUSH0 MSTORE PUSH1 0x41 PUSH1 0x4 MSTORE PUSH1 0x24 PUSH0 REVERT JUMPDEST PUSH2 0x877 DUP3 PUSH2 0x831 JUMP JUMPDEST DUP2 ADD DUP2 DUP2 LT PUSH8 0xFFFFFFFFFFFFFFFF DUP3 GT OR ISZERO PUSH2 0x896 JUMPI PUSH2 0x895 PUSH2 0x841 JUMP JUMPDEST JUMPDEST DUP1 PUSH1 0x40 MSTORE POP POP POP JUMP JUMPDEST PUSH0 PUSH2 0x8A8 PUSH2 0x818 JUMP JUMPDEST SWAP1 POP PUSH2 0x8B4 DUP3 DUP3 PUSH2 0x86E JUMP JUMPDEST SWAP2 SWAP1 POP JUMP JUMPDEST PUSH0 PUSH8 0xFFFFFFFFFFFFFFFF DUP3 GT ISZERO PUSH2 0x8D3 JUMPI PUSH2 0x8D2 PUSH2 0x841 JUMP JUMPDEST JUMPDEST PUSH2 0x8DC DUP3 PUSH2 0x831 JUMP JUMPDEST SWAP1 POP PUSH1 0x20 DUP2 ADD SWAP1 POP SWAP2 SWAP1 POP JUMP JUMPDEST DUP3 DUP2 DUP4 CALLDATACOPY PUSH0 DUP4 DUP4 ADD MSTORE POP POP POP JUMP JUMPDEST PUSH0 PUSH2 0x909 PUSH2 0x904 DUP5 PUSH2 0x8B9 JUMP JUMPDEST PUSH2 0x89F JUMP JUMPDEST SWAP1 POP DUP3 DUP2 MSTORE PUSH1 0x20 DUP2 ADD DUP5 DUP5 DUP5 ADD GT ISZERO PUSH2 0x925 JUMPI PUSH2 0x924 PUSH2 0x82D JUMP JUMPDEST JUMPDEST PUSH2 0x930 DUP5 DUP3 DUP6 PUSH2 0x8E9 JUMP JUMPDEST POP SWAP4 SWAP3 POP POP POP JUMP JUMPDEST PUSH0 DUP3 PUSH1 0x1F DUP4 ADD SLT PUSH2 0x94C JUMPI PUSH2 0x94B PUSH2 0x829 JUMP JUMPDEST JUMPDEST DUP2 CALLDATALOAD PUSH2 0x95C DUP5 DUP3 PUSH1 0x20 DUP7 ADD PUSH2 0x8F7 JUMP JUMPDEST SWAP2 POP POP SWAP3 SWAP2 POP POP JUMP JUMPDEST PUSH0 PUSH1 0x20 DUP3 DUP5 SUB SLT ISZERO PUSH2 0x97A JUMPI PUSH2 0x979 PUSH2 0x821 JUMP JUMPDEST JUMPDEST PUSH0 DUP3 ADD CALLDATALOAD PUSH8 0xFFFFFFFFFFFFFFFF DUP2 GT ISZERO PUSH2 0x997 JUMPI PUSH2 0x996 PUSH2 0x825 JUMP JUMPDEST JUMPDEST PUSH2 0x9A3 DUP5 DUP3 DUP6 ADD PUSH2 0x938 JUMP JUMPDEST SWAP2 POP POP SWAP3 SWAP2 POP POP JUMP JUMPDEST PUSH0 DUP2 SWAP1 POP SWAP2 SWAP1 POP JUMP JUMPDEST PUSH2 0x9BE DUP2 PUSH2 0x9AC JUMP JUMPDEST DUP3 MSTORE POP POP JUMP JUMPDEST PUSH0 PUSH1 0x20 DUP3 ADD SWAP1 POP PUSH2 0x9D7 PUSH0 DUP4 ADD DUP5 PUSH2 0x9B5 JUMP JUMPDEST SWAP3 SWAP2 POP POP JUMP JUMPDEST PUSH32 0x4E487B7100000000000000000000000000000000000000000000000000000000 PUSH0 MSTORE PUSH1 0x32 PUSH1 0x4 MSTORE PUSH1 0x24 PUSH0 REVERT JUMPDEST PUSH32 0x4E487B7100000000000000000000000000000000000000000000000000000000 PUSH0 MSTORE PUSH1 0x11 PUSH1 0x4 MSTORE PUSH1 0x24 PUSH0 REVERT JUMPDEST PUSH0 PUSH2 0xA41 DUP3 PUSH2 0x9AC JUMP JUMPDEST SWAP2 POP PUSH2 0xA4C DUP4 PUSH2 0x9AC JUMP JUMPDEST SWAP3 POP DUP3 DUP3 ADD SWAP1 POP DUP1 DUP3 GT ISZERO PUSH2 0xA64 JUMPI PUSH2 0xA63 PUSH2 0xA0A JUMP JUMPDEST JUMPDEST SWAP3 SWAP2 POP POP JUMP JUMPDEST PUSH0 PUSH2 0xA74 DUP3 PUSH2 0x9AC JUMP JUMPDEST SWAP2 POP PUSH32 0xFFFFFFFFFFFFFFFFFFFFFFFFFFFFFFFFFFFFFFFFFFFFFFFFFFFFFFFFFFFFFFFF DUP3 SUB PUSH2 0xAA6 JUMPI PUSH2 0xAA5 PUSH2 0xA0A JUMP JUMPDEST JUMPDEST PUSH1 0x1 DUP3 ADD SWAP1 POP SWAP2 SWAP1 POP JUMP INVALID LOG2 PUSH5 0x6970667358 0x22 SLT KECCAK256 0xD6 0xAE PC LOG4 0xF6 0xC7 0xCF PUSH19 0x19C622405259DEFE1D682E2CD511A6F5B60013 SSTORE PUSH25 0x7CBD1364736F6C634300081E00330000000000000000000000 "
				},
				"gasEstimates": {
					"creation": {
						"codeDepositCost": "558200",
						"executionCost": "592",
						"totalCost": "558792"
					},
					"external": {
						"ConvertInt(string)": "infinite"
					}
				},
				"methodIdentifiers": {
					"ConvertInt(string)": "7f424aea"
				}
			},
			"storageLayout": {
				"storage": [],
				"types": null
			},
			"userdoc": {
				"kind": "user",
				"methods": {},
				"version": 1
			}
		}
	}
}