{
	"Solidity/IntConvertRoman.sol": {
		"IntConvertRoman": {
			"abi": [
				{
					"inputs": [
						{
							"internalType": "int256",
							"name": "num",
							"type": "int256"
						}
					],
					"name": "ConvertToRoman",
					"outputs": [
						{
							"internalType": "string",
							"name": "",
							"type": "string"
						}
					],
					"stateMutability": "view",
					"type": "function"
				}
			],
			"devdoc": {
				"kind": "dev",
				"methods": {},
				"version": 1
			},
			"evm": {
				"assembly": "    /* \"Solidity/IntConvertRoman.sol\":55:1294  contract IntConvertRoman{... */\n  mstore(0x40, 0x80)\n    /* \"Solidity/IntConvertRoman.sol\":85:139  string[] romStrs = [\"I\", \"V\", \"X\", \"L\", \"C\", \"D\", \"M\"] */\n  mload(0x40)\n  dup1\n  0xe0\n  add\n  0x40\n  mstore\n  dup1\n  mload(0x40)\n  dup1\n  0x40\n  add\n  0x40\n  mstore\n  dup1\n  0x01\n  dup2\n  mstore\n  0x20\n  add\n  0x4900000000000000000000000000000000000000000000000000000000000000\n  dup2\n  mstore\n  pop\n  dup2\n  mstore\n  0x20\n  add\n  mload(0x40)\n  dup1\n  0x40\n  add\n  0x40\n  mstore\n  dup1\n  0x01\n  dup2\n  mstore\n  0x20\n  add\n  0x5600000000000000000000000000000000000000000000000000000000000000\n  dup2\n  mstore\n  pop\n  dup2\n  mstore\n  0x20\n  add\n  mload(0x40)\n  dup1\n  0x40\n  add\n  0x40\n  mstore\n  dup1\n  0x01\n  dup2\n  mstore\n  0x20\n  add\n  0x5800000000000000000000000000000000000000000000000000000000000000\n  dup2\n  mstore\n  pop\n  dup2\n  mstore\n  0x20\n  add\n  mload(0x40)\n  dup1\n  0x40\n  add\n  0x40\n  mstore\n  dup1\n  0x01\n  dup2\n  mstore\n  0x20\n  add\n  0x4c00000000000000000000000000000000000000000000000000000000000000\n  dup2\n  mstore\n  pop\n  dup2\n  mstore\n  0x20\n  add\n  mload(0x40)\n  dup1\n  0x40\n  add\n  0x40\n  mstore\n  dup1\n  0x01\n  dup2\n  mstore\n  0x20\n  add\n  0x4300000000000000000000000000000000000000000000000000000000000000\n  dup2\n  mstore\n  pop\n  dup2\n  mstore\n  0x20\n  add\n  mload(0x40)\n  dup1\n  0x40\n  add\n  0x40\n  mstore\n  dup1\n  0x01\n  dup2\n  mstore\n  0x20\n  add\n  0x4400000000000000000000000000000000000000000000000000000000000000\n  dup2\n  mstore\n  pop\n  dup2\n  mstore\n  0x20\n  add\n  mload(0x40)\n  dup1\n  0x40\n  add\n  0x40\n  mstore\n  dup1\n  0x01\n  dup2\n  mstore\n  0x20\n  add\n  0x4d00000000000000000000000000000000000000000000000000000000000000\n  dup2\n  mstore\n  pop\n  dup2\n  mstore\n  pop\n  0x00\n  swap1\n  0x07\n  tag_1\n  swap3\n  swap2\n  swap1\n  tag_2\n  jump\t// in\ntag_1:\n  pop\n    /* \"Solidity/IntConvertRoman.sol\":55:1294  contract IntConvertRoman{... */\n  callvalue\n  dup1\n  iszero\n  tag_3\n  jumpi\n  revert(0x00, 0x00)\ntag_3:\n  pop\n  jump(tag_4)\ntag_2:\n  dup3\n  dup1\n  sload\n  dup3\n  dup3\n  sstore\n  swap1\n  0x00\n  mstore\n  keccak256(0x00, 0x20)\n  swap1\n  dup2\n  add\n  swap3\n  dup3\n  iszero\n  tag_5\n  jumpi\n  swap2\n  0x20\n  mul\n  dup3\n  add\ntag_6:\n  dup3\n  dup2\n  gt\n  iszero\n  tag_7\n  jumpi\n  dup3\n  mload\n  dup3\n  swap1\n  dup2\n  tag_8\n  swap2\n  swap1\n  tag_9\n  jump\t// in\ntag_8:\n  pop\n  swap2\n  0x20\n  add\n  swap2\n  swap1\n  0x01\n  add\n  swap1\n  jump(tag_6)\ntag_7:\ntag_5:\n  pop\n  swap1\n  pop\n  tag_10\n  swap2\n  swap1\n  tag_11\n  jump\t// in\ntag_10:\n  pop\n  swap1\n  jump\t// out\ntag_11:\ntag_12:\n  dup1\n  dup3\n  gt\n  iszero\n  tag_13\n  jumpi\n  0x00\n  dup2\n  dup2\n  tag_14\n  swap2\n  swap1\n  tag_15\n  jump\t// in\ntag_14:\n  pop\n  0x01\n  add\n  jump(tag_12)\ntag_13:\n  pop\n  swap1\n  jump\t// out\ntag_15:\n  pop\n  dup1\n  sload\n  tag_16\n  swap1\n  tag_17\n  jump\t// in\ntag_16:\n  0x00\n  dup3\n  sstore\n  dup1\n  0x1f\n  lt\n  tag_19\n  jumpi\n  pop\n  jump(tag_18)\ntag_19:\n  0x1f\n  add\n  0x20\n  swap1\n  div\n  swap1\n  0x00\n  mstore\n  keccak256(0x00, 0x20)\n  swap1\n  dup2\n  add\n  swap1\n  tag_20\n  swap2\n  swap1\n  tag_21\n  jump\t// in\ntag_20:\ntag_18:\n  pop\n  jump\t// out\ntag_21:\ntag_22:\n  dup1\n  dup3\n  gt\n  iszero\n  tag_23\n  jumpi\n  0x00\n  dup2\n  0x00\n  swap1\n  sstore\n  pop\n  0x01\n  add\n  jump(tag_22)\ntag_23:\n  pop\n  swap1\n  jump\t// out\n    /* \"#utility.yul\":7:106   */\ntag_24:\n    /* \"#utility.yul\":59:65   */\n  0x00\n    /* \"#utility.yul\":93:98   */\n  dup2\n    /* \"#utility.yul\":87:99   */\n  mload\n    /* \"#utility.yul\":77:99   */\n  swap1\n  pop\n    /* \"#utility.yul\":7:106   */\n  swap2\n  swap1\n  pop\n  jump\t// out\n    /* \"#utility.yul\":112:292   */\ntag_25:\n    /* \"#utility.yul\":160:237   */\n  0x4e487b7100000000000000000000000000000000000000000000000000000000\n    /* \"#utility.yul\":157:158   */\n  0x00\n    /* \"#utility.yul\":150:238   */\n  mstore\n    /* \"#utility.yul\":257:261   */\n  0x41\n    /* \"#utility.yul\":254:255   */\n  0x04\n    /* \"#utility.yul\":247:262   */\n  mstore\n    /* \"#utility.yul\":281:285   */\n  0x24\n    /* \"#utility.yul\":278:279   */\n  0x00\n    /* \"#utility.yul\":271:286   */\n  revert\n    /* \"#utility.yul\":298:478   */\ntag_26:\n    /* \"#utility.yul\":346:423   */\n  0x4e487b7100000000000000000000000000000000000000000000000000000000\n    /* \"#utility.yul\":343:344   */\n  0x00\n    /* \"#utility.yul\":336:424   */\n  mstore\n    /* \"#utility.yul\":443:447   */\n  0x22\n    /* \"#utility.yul\":440:441   */\n  0x04\n    /* \"#utility.yul\":433:448   */\n  mstore\n    /* \"#utility.yul\":467:471   */\n  0x24\n    /* \"#utility.yul\":464:465   */\n  0x00\n    /* \"#utility.yul\":457:472   */\n  revert\n    /* \"#utility.yul\":484:804   */\ntag_17:\n    /* \"#utility.yul\":528:534   */\n  0x00\n    /* \"#utility.yul\":565:566   */\n  0x02\n    /* \"#utility.yul\":559:563   */\n  dup3\n    /* \"#utility.yul\":555:567   */\n  div\n    /* \"#utility.yul\":545:567   */\n  swap1\n  pop\n    /* \"#utility.yul\":612:613   */\n  0x01\n    /* \"#utility.yul\":606:610   */\n  dup3\n    /* \"#utility.yul\":602:614   */\n  and\n    /* \"#utility.yul\":633:651   */\n  dup1\n    /* \"#utility.yul\":623:704   */\n  tag_48\n  jumpi\n    /* \"#utility.yul\":689:693   */\n  0x7f\n    /* \"#utility.yul\":681:687   */\n  dup3\n    /* \"#utility.yul\":677:694   */\n  and\n    /* \"#utility.yul\":667:694   */\n  swap2\n  pop\n    /* \"#utility.yul\":623:704   */\ntag_48:\n    /* \"#utility.yul\":751:753   */\n  0x20\n    /* \"#utility.yul\":743:749   */\n  dup3\n    /* \"#utility.yul\":740:754   */\n  lt\n    /* \"#utility.yul\":720:738   */\n  dup2\n    /* \"#utility.yul\":717:755   */\n  sub\n    /* \"#utility.yul\":714:798   */\n  tag_49\n  jumpi\n    /* \"#utility.yul\":770:788   */\n  tag_50\n  tag_26\n  jump\t// in\ntag_50:\n    /* \"#utility.yul\":714:798   */\ntag_49:\n    /* \"#utility.yul\":535:804   */\n  pop\n    /* \"#utility.yul\":484:804   */\n  swap2\n  swap1\n  pop\n  jump\t// out\n    /* \"#utility.yul\":810:951   */\ntag_27:\n    /* \"#utility.yul\":859:863   */\n  0x00\n    /* \"#utility.yul\":882:885   */\n  dup2\n    /* \"#utility.yul\":874:885   */\n  swap1\n  pop\n    /* \"#utility.yul\":905:908   */\n  dup2\n    /* \"#utility.yul\":902:903   */\n  0x00\n    /* \"#utility.yul\":895:909   */\n  mstore\n    /* \"#utility.yul\":939:943   */\n  0x20\n    /* \"#utility.yul\":936:937   */\n  0x00\n    /* \"#utility.yul\":926:944   */\n  keccak256\n    /* \"#utility.yul\":918:944   */\n  swap1\n  pop\n    /* \"#utility.yul\":810:951   */\n  swap2\n  swap1\n  pop\n  jump\t// out\n    /* \"#utility.yul\":957:1050   */\ntag_28:\n    /* \"#utility.yul\":994:1000   */\n  0x00\n    /* \"#utility.yul\":1041:1043   */\n  0x20\n    /* \"#utility.yul\":1036:1038   */\n  0x1f\n    /* \"#utility.yul\":1029:1034   */\n  dup4\n    /* \"#utility.yul\":1025:1039   */\n  add\n    /* \"#utility.yul\":1021:1044   */\n  div\n    /* \"#utility.yul\":1011:1044   */\n  swap1\n  pop\n    /* \"#utility.yul\":957:1050   */\n  swap2\n  swap1\n  pop\n  jump\t// out\n    /* \"#utility.yul\":1056:1163   */\ntag_29:\n    /* \"#utility.yul\":1100:1108   */\n  0x00\n    /* \"#utility.yul\":1150:1155   */\n  dup3\n    /* \"#utility.yul\":1144:1148   */\n  dup3\n    /* \"#utility.yul\":1140:1156   */\n  shl\n    /* \"#utility.yul\":1119:1156   */\n  swap1\n  pop\n    /* \"#utility.yul\":1056:1163   */\n  swap3\n  swap2\n  pop\n  pop\n  jump\t// out\n    /* \"#utility.yul\":1169:1562   */\ntag_30:\n    /* \"#utility.yul\":1238:1244   */\n  0x00\n    /* \"#utility.yul\":1288:1289   */\n  0x08\n    /* \"#utility.yul\":1276:1286   */\n  dup4\n    /* \"#utility.yul\":1272:1290   */\n  mul\n    /* \"#utility.yul\":1311:1408   */\n  tag_55\n    /* \"#utility.yul\":1341:1407   */\n  0xffffffffffffffffffffffffffffffffffffffffffffffffffffffffffffffff\n    /* \"#utility.yul\":1330:1339   */\n  dup3\n    /* \"#utility.yul\":1311:1408   */\n  tag_29\n  jump\t// in\ntag_55:\n    /* \"#utility.yul\":1429:1468   */\n  tag_56\n    /* \"#utility.yul\":1459:1467   */\n  dup7\n    /* \"#utility.yul\":1448:1457   */\n  dup4\n    /* \"#utility.yul\":1429:1468   */\n  tag_29\n  jump\t// in\ntag_56:\n    /* \"#utility.yul\":1417:1468   */\n  swap6\n  pop\n    /* \"#utility.yul\":1501:1505   */\n  dup1\n    /* \"#utility.yul\":1497:1506   */\n  not\n    /* \"#utility.yul\":1490:1495   */\n  dup5\n    /* \"#utility.yul\":1486:1507   */\n  and\n    /* \"#utility.yul\":1477:1507   */\n  swap4\n  pop\n    /* \"#utility.yul\":1550:1554   */\n  dup1\n    /* \"#utility.yul\":1540:1548   */\n  dup7\n    /* \"#utility.yul\":1536:1555   */\n  and\n    /* \"#utility.yul\":1529:1534   */\n  dup5\n    /* \"#utility.yul\":1526:1556   */\n  or\n    /* \"#utility.yul\":1516:1556   */\n  swap3\n  pop\n    /* \"#utility.yul\":1245:1562   */\n  pop\n  pop\n    /* \"#utility.yul\":1169:1562   */\n  swap4\n  swap3\n  pop\n  pop\n  pop\n  jump\t// out\n    /* \"#utility.yul\":1568:1645   */\ntag_31:\n    /* \"#utility.yul\":1605:1612   */\n  0x00\n    /* \"#utility.yul\":1634:1639   */\n  dup2\n    /* \"#utility.yul\":1623:1639   */\n  swap1\n  pop\n    /* \"#utility.yul\":1568:1645   */\n  swap2\n  swap1\n  pop\n  jump\t// out\n    /* \"#utility.yul\":1651:1711   */\ntag_32:\n    /* \"#utility.yul\":1679:1682   */\n  0x00\n    /* \"#utility.yul\":1700:1705   */\n  dup2\n    /* \"#utility.yul\":1693:1705   */\n  swap1\n  pop\n    /* \"#utility.yul\":1651:1711   */\n  swap2\n  swap1\n  pop\n  jump\t// out\n    /* \"#utility.yul\":1717:1859   */\ntag_33:\n    /* \"#utility.yul\":1767:1776   */\n  0x00\n    /* \"#utility.yul\":1800:1853   */\n  tag_60\n    /* \"#utility.yul\":1818:1852   */\n  tag_61\n    /* \"#utility.yul\":1827:1851   */\n  tag_62\n    /* \"#utility.yul\":1845:1850   */\n  dup5\n    /* \"#utility.yul\":1827:1851   */\n  tag_31\n  jump\t// in\ntag_62:\n    /* \"#utility.yul\":1818:1852   */\n  tag_32\n  jump\t// in\ntag_61:\n    /* \"#utility.yul\":1800:1853   */\n  tag_31\n  jump\t// in\ntag_60:\n    /* \"#utility.yul\":1787:1853   */\n  swap1\n  pop\n    /* \"#utility.yul\":1717:1859   */\n  swap2\n  swap1\n  pop\n  jump\t// out\n    /* \"#utility.yul\":1865:1940   */\ntag_34:\n    /* \"#utility.yul\":1908:1911   */\n  0x00\n    /* \"#utility.yul\":1929:1934   */\n  dup2\n    /* \"#utility.yul\":1922:1934   */\n  swap1\n  pop\n    /* \"#utility.yul\":1865:1940   */\n  swap2\n  swap1\n  pop\n  jump\t// out\n    /* \"#utility.yul\":1946:2215   */\ntag_35:\n    /* \"#utility.yul\":2056:2095   */\n  tag_65\n    /* \"#utility.yul\":2087:2094   */\n  dup4\n    /* \"#utility.yul\":2056:2095   */\n  tag_33\n  jump\t// in\ntag_65:\n    /* \"#utility.yul\":2117:2208   */\n  tag_66\n    /* \"#utility.yul\":2166:2207   */\n  tag_67\n    /* \"#utility.yul\":2190:2206   */\n  dup3\n    /* \"#utility.yul\":2166:2207   */\n  tag_34\n  jump\t// in\ntag_67:\n    /* \"#utility.yul\":2158:2164   */\n  dup5\n    /* \"#utility.yul\":2151:2155   */\n  dup5\n    /* \"#utility.yul\":2145:2156   */\n  sload\n    /* \"#utility.yul\":2117:2208   */\n  tag_30\n  jump\t// in\ntag_66:\n    /* \"#utility.yul\":2111:2115   */\n  dup3\n    /* \"#utility.yul\":2104:2209   */\n  sstore\n    /* \"#utility.yul\":2022:2215   */\n  pop\n    /* \"#utility.yul\":1946:2215   */\n  pop\n  pop\n  pop\n  jump\t// out\n    /* \"#utility.yul\":2221:2294   */\ntag_36:\n    /* \"#utility.yul\":2266:2269   */\n  0x00\n    /* \"#utility.yul\":2287:2288   */\n  0x00\n    /* \"#utility.yul\":2280:2288   */\n  swap1\n  pop\n    /* \"#utility.yul\":2221:2294   */\n  swap1\n  jump\t// out\n    /* \"#utility.yul\":2300:2489   */\ntag_37:\n    /* \"#utility.yul\":2377:2409   */\n  tag_70\n  tag_36\n  jump\t// in\ntag_70:\n    /* \"#utility.yul\":2418:2483   */\n  tag_71\n    /* \"#utility.yul\":2476:2482   */\n  dup2\n    /* \"#utility.yul\":2468:2474   */\n  dup5\n    /* \"#utility.yul\":2462:2466   */\n  dup5\n    /* \"#utility.yul\":2418:2483   */\n  tag_35\n  jump\t// in\ntag_71:\n    /* \"#utility.yul\":2353:2489   */\n  pop\n    /* \"#utility.yul\":2300:2489   */\n  pop\n  pop\n  jump\t// out\n    /* \"#utility.yul\":2495:2681   */\ntag_38:\n    /* \"#utility.yul\":2555:2675   */\ntag_73:\n    /* \"#utility.yul\":2572:2575   */\n  dup2\n    /* \"#utility.yul\":2565:2570   */\n  dup2\n    /* \"#utility.yul\":2562:2576   */\n  lt\n    /* \"#utility.yul\":2555:2675   */\n  iszero\n  tag_75\n  jumpi\n    /* \"#utility.yul\":2626:2665   */\n  tag_76\n    /* \"#utility.yul\":2663:2664   */\n  0x00\n    /* \"#utility.yul\":2656:2661   */\n  dup3\n    /* \"#utility.yul\":2626:2665   */\n  tag_37\n  jump\t// in\ntag_76:\n    /* \"#utility.yul\":2599:2600   */\n  0x01\n    /* \"#utility.yul\":2592:2597   */\n  dup2\n    /* \"#utility.yul\":2588:2601   */\n  add\n    /* \"#utility.yul\":2579:2601   */\n  swap1\n  pop\n    /* \"#utility.yul\":2555:2675   */\n  jump(tag_73)\ntag_75:\n    /* \"#utility.yul\":2495:2681   */\n  pop\n  pop\n  jump\t// out\n    /* \"#utility.yul\":2687:3230   */\ntag_39:\n    /* \"#utility.yul\":2788:2790   */\n  0x1f\n    /* \"#utility.yul\":2783:2786   */\n  dup3\n    /* \"#utility.yul\":2780:2791   */\n  gt\n    /* \"#utility.yul\":2777:3223   */\n  iszero\n  tag_78\n  jumpi\n    /* \"#utility.yul\":2822:2860   */\n  tag_79\n    /* \"#utility.yul\":2854:2859   */\n  dup2\n    /* \"#utility.yul\":2822:2860   */\n  tag_27\n  jump\t// in\ntag_79:\n    /* \"#utility.yul\":2906:2935   */\n  tag_80\n    /* \"#utility.yul\":2924:2934   */\n  dup5\n    /* \"#utility.yul\":2906:2935   */\n  tag_28\n  jump\t// in\ntag_80:\n    /* \"#utility.yul\":2896:2904   */\n  dup2\n    /* \"#utility.yul\":2892:2936   */\n  add\n    /* \"#utility.yul\":3089:3091   */\n  0x20\n    /* \"#utility.yul\":3077:3087   */\n  dup6\n    /* \"#utility.yul\":3074:3092   */\n  lt\n    /* \"#utility.yul\":3071:3120   */\n  iszero\n  tag_81\n  jumpi\n    /* \"#utility.yul\":3110:3118   */\n  dup2\n    /* \"#utility.yul\":3095:3118   */\n  swap1\n  pop\n    /* \"#utility.yul\":3071:3120   */\ntag_81:\n    /* \"#utility.yul\":3133:3213   */\n  tag_82\n    /* \"#utility.yul\":3189:3211   */\n  tag_83\n    /* \"#utility.yul\":3207:3210   */\n  dup6\n    /* \"#utility.yul\":3189:3211   */\n  tag_28\n  jump\t// in\ntag_83:\n    /* \"#utility.yul\":3179:3187   */\n  dup4\n    /* \"#utility.yul\":3175:3212   */\n  add\n    /* \"#utility.yul\":3162:3173   */\n  dup3\n    /* \"#utility.yul\":3133:3213   */\n  tag_38\n  jump\t// in\ntag_82:\n    /* \"#utility.yul\":2792:3223   */\n  pop\n  pop\n    /* \"#utility.yul\":2777:3223   */\ntag_78:\n    /* \"#utility.yul\":2687:3230   */\n  pop\n  pop\n  pop\n  jump\t// out\n    /* \"#utility.yul\":3236:3353   */\ntag_40:\n    /* \"#utility.yul\":3290:3298   */\n  0x00\n    /* \"#utility.yul\":3340:3345   */\n  dup3\n    /* \"#utility.yul\":3334:3338   */\n  dup3\n    /* \"#utility.yul\":3330:3346   */\n  shr\n    /* \"#utility.yul\":3309:3346   */\n  swap1\n  pop\n    /* \"#utility.yul\":3236:3353   */\n  swap3\n  swap2\n  pop\n  pop\n  jump\t// out\n    /* \"#utility.yul\":3359:3528   */\ntag_41:\n    /* \"#utility.yul\":3403:3409   */\n  0x00\n    /* \"#utility.yul\":3436:3487   */\n  tag_86\n    /* \"#utility.yul\":3484:3485   */\n  0x00\n    /* \"#utility.yul\":3480:3486   */\n  not\n    /* \"#utility.yul\":3472:3477   */\n  dup5\n    /* \"#utility.yul\":3469:3470   */\n  0x08\n    /* \"#utility.yul\":3465:3478   */\n  mul\n    /* \"#utility.yul\":3436:3487   */\n  tag_40\n  jump\t// in\ntag_86:\n    /* \"#utility.yul\":3432:3488   */\n  not\n    /* \"#utility.yul\":3517:3521   */\n  dup1\n    /* \"#utility.yul\":3511:3515   */\n  dup4\n    /* \"#utility.yul\":3507:3522   */\n  and\n    /* \"#utility.yul\":3497:3522   */\n  swap2\n  pop\n    /* \"#utility.yul\":3410:3528   */\n  pop\n    /* \"#utility.yul\":3359:3528   */\n  swap3\n  swap2\n  pop\n  pop\n  jump\t// out\n    /* \"#utility.yul\":3533:3828   */\ntag_42:\n    /* \"#utility.yul\":3609:3613   */\n  0x00\n    /* \"#utility.yul\":3755:3784   */\n  tag_88\n    /* \"#utility.yul\":3780:3783   */\n  dup4\n    /* \"#utility.yul\":3774:3778   */\n  dup4\n    /* \"#utility.yul\":3755:3784   */\n  tag_41\n  jump\t// in\ntag_88:\n    /* \"#utility.yul\":3747:3784   */\n  swap2\n  pop\n    /* \"#utility.yul\":3817:3820   */\n  dup3\n    /* \"#utility.yul\":3814:3815   */\n  0x02\n    /* \"#utility.yul\":3810:3821   */\n  mul\n    /* \"#utility.yul\":3804:3808   */\n  dup3\n    /* \"#utility.yul\":3801:3822   */\n  or\n    /* \"#utility.yul\":3793:3822   */\n  swap1\n  pop\n    /* \"#utility.yul\":3533:3828   */\n  swap3\n  swap2\n  pop\n  pop\n  jump\t// out\n    /* \"#utility.yul\":3833:5228   */\ntag_9:\n    /* \"#utility.yul\":3950:3987   */\n  tag_90\n    /* \"#utility.yul\":3983:3986   */\n  dup3\n    /* \"#utility.yul\":3950:3987   */\n  tag_24\n  jump\t// in\ntag_90:\n    /* \"#utility.yul\":4052:4070   */\n  0xffffffffffffffff\n    /* \"#utility.yul\":4044:4050   */\n  dup2\n    /* \"#utility.yul\":4041:4071   */\n  gt\n    /* \"#utility.yul\":4038:4094   */\n  iszero\n  tag_91\n  jumpi\n    /* \"#utility.yul\":4074:4092   */\n  tag_92\n  tag_25\n  jump\t// in\ntag_92:\n    /* \"#utility.yul\":4038:4094   */\ntag_91:\n    /* \"#utility.yul\":4118:4156   */\n  tag_93\n    /* \"#utility.yul\":4150:4154   */\n  dup3\n    /* \"#utility.yul\":4144:4155   */\n  sload\n    /* \"#utility.yul\":4118:4156   */\n  tag_17\n  jump\t// in\ntag_93:\n    /* \"#utility.yul\":4203:4270   */\n  tag_94\n    /* \"#utility.yul\":4263:4269   */\n  dup3\n    /* \"#utility.yul\":4255:4261   */\n  dup3\n    /* \"#utility.yul\":4249:4253   */\n  dup6\n    /* \"#utility.yul\":4203:4270   */\n  tag_39\n  jump\t// in\ntag_94:\n    /* \"#utility.yul\":4297:4298   */\n  0x00\n    /* \"#utility.yul\":4321:4325   */\n  0x20\n    /* \"#utility.yul\":4308:4325   */\n  swap1\n  pop\n    /* \"#utility.yul\":4353:4355   */\n  0x1f\n    /* \"#utility.yul\":4345:4351   */\n  dup4\n    /* \"#utility.yul\":4342:4356   */\n  gt\n    /* \"#utility.yul\":4370:4371   */\n  0x01\n    /* \"#utility.yul\":4365:4983   */\n  dup2\n  eq\n  tag_96\n  jumpi\n    /* \"#utility.yul\":5027:5028   */\n  0x00\n    /* \"#utility.yul\":5044:5050   */\n  dup5\n    /* \"#utility.yul\":5041:5118   */\n  iszero\n  tag_97\n  jumpi\n    /* \"#utility.yul\":5093:5102   */\n  dup3\n    /* \"#utility.yul\":5088:5091   */\n  dup8\n    /* \"#utility.yul\":5084:5103   */\n  add\n    /* \"#utility.yul\":5078:5104   */\n  mload\n    /* \"#utility.yul\":5069:5104   */\n  swap1\n  pop\n    /* \"#utility.yul\":5041:5118   */\ntag_97:\n    /* \"#utility.yul\":5144:5211   */\n  tag_98\n    /* \"#utility.yul\":5204:5210   */\n  dup6\n    /* \"#utility.yul\":5197:5202   */\n  dup3\n    /* \"#utility.yul\":5144:5211   */\n  tag_42\n  jump\t// in\ntag_98:\n    /* \"#utility.yul\":5138:5142   */\n  dup7\n    /* \"#utility.yul\":5131:5212   */\n  sstore\n    /* \"#utility.yul\":5000:5222   */\n  pop\n    /* \"#utility.yul\":4335:5222   */\n  jump(tag_95)\n    /* \"#utility.yul\":4365:4983   */\ntag_96:\n    /* \"#utility.yul\":4417:4421   */\n  0x1f\n    /* \"#utility.yul\":4413:4422   */\n  not\n    /* \"#utility.yul\":4405:4411   */\n  dup5\n    /* \"#utility.yul\":4401:4423   */\n  and\n    /* \"#utility.yul\":4451:4488   */\n  tag_99\n    /* \"#utility.yul\":4483:4487   */\n  dup7\n    /* \"#utility.yul\":4451:4488   */\n  tag_27\n  jump\t// in\ntag_99:\n    /* \"#utility.yul\":4510:4511   */\n  0x00\n    /* \"#utility.yul\":4524:4732   */\ntag_100:\n    /* \"#utility.yul\":4538:4545   */\n  dup3\n    /* \"#utility.yul\":4535:4536   */\n  dup2\n    /* \"#utility.yul\":4532:4546   */\n  lt\n    /* \"#utility.yul\":4524:4732   */\n  iszero\n  tag_102\n  jumpi\n    /* \"#utility.yul\":4617:4626   */\n  dup5\n    /* \"#utility.yul\":4612:4615   */\n  dup10\n    /* \"#utility.yul\":4608:4627   */\n  add\n    /* \"#utility.yul\":4602:4628   */\n  mload\n    /* \"#utility.yul\":4594:4600   */\n  dup3\n    /* \"#utility.yul\":4587:4629   */\n  sstore\n    /* \"#utility.yul\":4668:4669   */\n  0x01\n    /* \"#utility.yul\":4660:4666   */\n  dup3\n    /* \"#utility.yul\":4656:4670   */\n  add\n    /* \"#utility.yul\":4646:4670   */\n  swap2\n  pop\n    /* \"#utility.yul\":4715:4717   */\n  0x20\n    /* \"#utility.yul\":4704:4713   */\n  dup6\n    /* \"#utility.yul\":4700:4718   */\n  add\n    /* \"#utility.yul\":4687:4718   */\n  swap5\n  pop\n    /* \"#utility.yul\":4561:4565   */\n  0x20\n    /* \"#utility.yul\":4558:4559   */\n  dup2\n    /* \"#utility.yul\":4554:4566   */\n  add\n    /* \"#utility.yul\":4549:4566   */\n  swap1\n  pop\n    /* \"#utility.yul\":4524:4732   */\n  jump(tag_100)\ntag_102:\n    /* \"#utility.yul\":4760:4766   */\n  dup7\n    /* \"#utility.yul\":4751:4758   */\n  dup4\n    /* \"#utility.yul\":4748:4767   */\n  lt\n    /* \"#utility.yul\":4745:4924   */\n  iszero\n  tag_103\n  jumpi\n    /* \"#utility.yul\":4818:4827   */\n  dup5\n    /* \"#utility.yul\":4813:4816   */\n  dup10\n    /* \"#utility.yul\":4809:4828   */\n  add\n    /* \"#utility.yul\":4803:4829   */\n  mload\n    /* \"#utility.yul\":4861:4909   */\n  tag_104\n    /* \"#utility.yul\":4903:4907   */\n  0x1f\n    /* \"#utility.yul\":4895:4901   */\n  dup10\n    /* \"#utility.yul\":4891:4908   */\n  and\n    /* \"#utility.yul\":4880:4889   */\n  dup3\n    /* \"#utility.yul\":4861:4909   */\n  tag_41\n  jump\t// in\ntag_104:\n    /* \"#utility.yul\":4853:4859   */\n  dup4\n    /* \"#utility.yul\":4846:4910   */\n  sstore\n    /* \"#utility.yul\":4768:4924   */\n  pop\n    /* \"#utility.yul\":4745:4924   */\ntag_103:\n    /* \"#utility.yul\":4970:4971   */\n  0x01\n    /* \"#utility.yul\":4966:4967   */\n  0x02\n    /* \"#utility.yul\":4958:4964   */\n  dup9\n    /* \"#utility.yul\":4954:4968   */\n  mul\n    /* \"#utility.yul\":4950:4972   */\n  add\n    /* \"#utility.yul\":4944:4948   */\n  dup9\n    /* \"#utility.yul\":4937:4973   */\n  sstore\n    /* \"#utility.yul\":4372:4983   */\n  pop\n  pop\n  pop\n    /* \"#utility.yul\":4335:5222   */\ntag_95:\n  pop\n    /* \"#utility.yul\":3925:5228   */\n  pop\n  pop\n  pop\n    /* \"#utility.yul\":3833:5228   */\n  pop\n  pop\n  jump\t// out\n    /* \"Solidity/IntConvertRoman.sol\":55:1294  contract IntConvertRoman{... */\ntag_4:\n  dataSize(sub_0)\n  dup1\n  dataOffset(sub_0)\n  0x00\n  codecopy\n  0x00\n  return\nstop\n\nsub_0: assembly {\n        /* \"Solidity/IntConvertRoman.sol\":55:1294  contract IntConvertRoman{... */\n      mstore(0x40, 0x80)\n      callvalue\n      dup1\n      iszero\n      tag_1\n      jumpi\n      revert(0x00, 0x00)\n    tag_1:\n      pop\n      jumpi(tag_2, lt(calldatasize, 0x04))\n      shr(0xe0, calldataload(0x00))\n      dup1\n      0xc754d73c\n      eq\n      tag_3\n      jumpi\n    tag_2:\n      revert(0x00, 0x00)\n        /* \"Solidity/IntConvertRoman.sol\":146:1292  function ConvertToRoman(int num) public view returns(string memory){... */\n    tag_3:\n      tag_4\n      0x04\n      dup1\n      calldatasize\n      sub\n      dup2\n      add\n      swap1\n      tag_5\n      swap2\n      swap1\n      tag_6\n      jump\t// in\n    tag_5:\n      tag_7\n      jump\t// in\n    tag_4:\n      mload(0x40)\n      tag_8\n      swap2\n      swap1\n      tag_9\n      jump\t// in\n    tag_8:\n      mload(0x40)\n      dup1\n      swap2\n      sub\n      swap1\n      return\n    tag_7:\n        /* \"Solidity/IntConvertRoman.sol\":199:212  string memory */\n      0x60\n        /* \"Solidity/IntConvertRoman.sol\":220:239  string memory roman */\n      0x00\n        /* \"Solidity/IntConvertRoman.sol\":220:243  string memory roman =\"\" */\n      mload(0x40)\n      dup1\n      0x20\n      add\n      0x40\n      mstore\n      dup1\n      0x00\n      dup2\n      mstore\n      pop\n      swap1\n      pop\n        /* \"Solidity/IntConvertRoman.sol\":249:259  uint index */\n      0x00\n        /* \"Solidity/IntConvertRoman.sol\":262:263  0 */\n      0x00\n        /* \"Solidity/IntConvertRoman.sol\":249:263  uint index = 0 */\n      swap1\n      pop\n        /* \"Solidity/IntConvertRoman.sol\":269:276  int div */\n      0x00\n        /* \"Solidity/IntConvertRoman.sol\":279:282  num */\n      dup5\n        /* \"Solidity/IntConvertRoman.sol\":269:282  int div = num */\n      swap1\n      pop\n        /* \"Solidity/IntConvertRoman.sol\":288:298  int remain */\n      0x00\n        /* \"Solidity/IntConvertRoman.sol\":301:302  0 */\n      0x00\n        /* \"Solidity/IntConvertRoman.sol\":288:302  int remain = 0 */\n      swap1\n      pop\n        /* \"Solidity/IntConvertRoman.sol\":309:1271  while(div >0)... */\n    tag_11:\n        /* \"Solidity/IntConvertRoman.sol\":320:321  0 */\n      0x00\n        /* \"Solidity/IntConvertRoman.sol\":315:318  div */\n      dup3\n        /* \"Solidity/IntConvertRoman.sol\":315:321  div >0 */\n      sgt\n        /* \"Solidity/IntConvertRoman.sol\":309:1271  while(div >0)... */\n      iszero\n      tag_12\n      jumpi\n        /* \"Solidity/IntConvertRoman.sol\":350:352  10 */\n      0x0a\n        /* \"Solidity/IntConvertRoman.sol\":346:349  div */\n      dup3\n        /* \"Solidity/IntConvertRoman.sol\":346:352  div%10 */\n      tag_13\n      swap2\n      swap1\n      tag_14\n      jump\t// in\n    tag_13:\n        /* \"Solidity/IntConvertRoman.sol\":337:352  remain = div%10 */\n      swap1\n      pop\n        /* \"Solidity/IntConvertRoman.sol\":375:376  0 */\n      0x00\n        /* \"Solidity/IntConvertRoman.sol\":365:371  remain */\n      dup2\n        /* \"Solidity/IntConvertRoman.sol\":365:376  remain == 0 */\n      sub\n        /* \"Solidity/IntConvertRoman.sol\":362:417  if(remain == 0) ... */\n      iszero\n        /* \"Solidity/IntConvertRoman.sol\":401:406  break */\n      tag_12\n        /* \"Solidity/IntConvertRoman.sol\":362:417  if(remain == 0) ... */\n      jumpi\n        /* \"Solidity/IntConvertRoman.sol\":440:441  4 */\n      0x04\n        /* \"Solidity/IntConvertRoman.sol\":431:437  remain */\n      dup2\n        /* \"Solidity/IntConvertRoman.sol\":431:441  remain < 4 */\n      slt\n        /* \"Solidity/IntConvertRoman.sol\":427:1222  if (remain < 4)... */\n      iszero\n      tag_16\n      jumpi\n        /* \"Solidity/IntConvertRoman.sol\":506:513  romStrs */\n      0x00\n        /* \"Solidity/IntConvertRoman.sol\":518:523  index */\n      dup4\n        /* \"Solidity/IntConvertRoman.sol\":514:515  2 */\n      0x02\n        /* \"Solidity/IntConvertRoman.sol\":514:523  2 * index */\n      tag_17\n      swap2\n      swap1\n      tag_18\n      jump\t// in\n    tag_17:\n        /* \"Solidity/IntConvertRoman.sol\":506:524  romStrs[2 * index] */\n      dup2\n      sload\n      dup2\n      lt\n      tag_19\n      jumpi\n      tag_20\n      tag_21\n      jump\t// in\n    tag_20:\n    tag_19:\n      swap1\n      0x00\n      mstore\n      keccak256(0x00, 0x20)\n      add\n        /* \"Solidity/IntConvertRoman.sol\":525:530  roman */\n      dup5\n        /* \"Solidity/IntConvertRoman.sol\":492:531  string.concat(romStrs[2 * index],roman) */\n      add(0x20, mload(0x40))\n      tag_23\n      swap3\n      swap2\n      swap1\n      tag_24\n      jump\t// in\n    tag_23:\n      mload(0x40)\n      0x20\n      dup2\n      dup4\n      sub\n      sub\n      dup2\n      mstore\n      swap1\n      0x40\n      mstore\n        /* \"Solidity/IntConvertRoman.sol\":484:531  roman = string.concat(romStrs[2 * index],roman) */\n      swap4\n      pop\n        /* \"Solidity/IntConvertRoman.sol\":427:1222  if (remain < 4)... */\n      jump(tag_25)\n    tag_16:\n        /* \"Solidity/IntConvertRoman.sol\":584:585  4 */\n      0x04\n        /* \"Solidity/IntConvertRoman.sol\":574:580  remain */\n      dup2\n        /* \"Solidity/IntConvertRoman.sol\":574:585  remain == 4 */\n      sub\n        /* \"Solidity/IntConvertRoman.sol\":570:1222  if (remain == 4)... */\n      tag_26\n      jumpi\n        /* \"Solidity/IntConvertRoman.sol\":650:657  romStrs */\n      0x00\n        /* \"Solidity/IntConvertRoman.sol\":662:667  index */\n      dup4\n        /* \"Solidity/IntConvertRoman.sol\":658:659  2 */\n      0x02\n        /* \"Solidity/IntConvertRoman.sol\":658:667  2 * index */\n      tag_27\n      swap2\n      swap1\n      tag_18\n      jump\t// in\n    tag_27:\n        /* \"Solidity/IntConvertRoman.sol\":650:668  romStrs[2 * index] */\n      dup2\n      sload\n      dup2\n      lt\n      tag_28\n      jumpi\n      tag_29\n      tag_21\n      jump\t// in\n    tag_29:\n    tag_28:\n      swap1\n      0x00\n      mstore\n      keccak256(0x00, 0x20)\n      add\n        /* \"Solidity/IntConvertRoman.sol\":669:674  roman */\n      dup5\n        /* \"Solidity/IntConvertRoman.sol\":636:675  string.concat(romStrs[2 * index],roman) */\n      add(0x20, mload(0x40))\n      tag_31\n      swap3\n      swap2\n      swap1\n      tag_24\n      jump\t// in\n    tag_31:\n      mload(0x40)\n      0x20\n      dup2\n      dup4\n      sub\n      sub\n      dup2\n      mstore\n      swap1\n      0x40\n      mstore\n        /* \"Solidity/IntConvertRoman.sol\":628:675  roman = string.concat(romStrs[2 * index],roman) */\n      swap4\n      pop\n        /* \"Solidity/IntConvertRoman.sol\":570:1222  if (remain == 4)... */\n      jump(tag_32)\n    tag_26:\n        /* \"Solidity/IntConvertRoman.sol\":728:729  4 */\n      0x04\n        /* \"Solidity/IntConvertRoman.sol\":718:724  remain */\n      dup2\n        /* \"Solidity/IntConvertRoman.sol\":718:729  remain == 4 */\n      sub\n        /* \"Solidity/IntConvertRoman.sol\":714:1222  if (remain == 4)... */\n      tag_33\n      jumpi\n        /* \"Solidity/IntConvertRoman.sol\":775:782  romStrs */\n      0x00\n        /* \"Solidity/IntConvertRoman.sol\":787:792  index */\n      dup4\n        /* \"Solidity/IntConvertRoman.sol\":783:784  2 */\n      0x02\n        /* \"Solidity/IntConvertRoman.sol\":783:792  2 * index */\n      tag_34\n      swap2\n      swap1\n      tag_18\n      jump\t// in\n    tag_34:\n        /* \"Solidity/IntConvertRoman.sol\":775:793  romStrs[2 * index] */\n      dup2\n      sload\n      dup2\n      lt\n      tag_35\n      jumpi\n      tag_36\n      tag_21\n      jump\t// in\n    tag_36:\n    tag_35:\n      swap1\n      0x00\n      mstore\n      keccak256(0x00, 0x20)\n      add\n        /* \"Solidity/IntConvertRoman.sol\":796:803  romStrs */\n      0x00\n        /* \"Solidity/IntConvertRoman.sol\":816:817  1 */\n      0x01\n        /* \"Solidity/IntConvertRoman.sol\":808:813  index */\n      dup6\n        /* \"Solidity/IntConvertRoman.sol\":804:805  2 */\n      0x02\n        /* \"Solidity/IntConvertRoman.sol\":804:813  2 * index */\n      tag_38\n      swap2\n      swap1\n      tag_18\n      jump\t// in\n    tag_38:\n        /* \"Solidity/IntConvertRoman.sol\":804:817  2 * index + 1 */\n      tag_39\n      swap2\n      swap1\n      tag_40\n      jump\t// in\n    tag_39:\n        /* \"Solidity/IntConvertRoman.sol\":796:818  romStrs[2 * index + 1] */\n      dup2\n      sload\n      dup2\n      lt\n      tag_41\n      jumpi\n      tag_42\n      tag_21\n      jump\t// in\n    tag_42:\n    tag_41:\n      swap1\n      0x00\n      mstore\n      keccak256(0x00, 0x20)\n      add\n        /* \"Solidity/IntConvertRoman.sol\":821:826  roman */\n      dup6\n        /* \"Solidity/IntConvertRoman.sol\":761:827  string.concat(romStrs[2 * index] , romStrs[2 * index + 1] , roman) */\n      add(0x20, mload(0x40))\n      tag_44\n      swap4\n      swap3\n      swap2\n      swap1\n      tag_45\n      jump\t// in\n    tag_44:\n      mload(0x40)\n      0x20\n      dup2\n      dup4\n      sub\n      sub\n      dup2\n      mstore\n      swap1\n      0x40\n      mstore\n        /* \"Solidity/IntConvertRoman.sol\":753:827  roman = string.concat(romStrs[2 * index] , romStrs[2 * index + 1] , roman) */\n      swap4\n      pop\n        /* \"Solidity/IntConvertRoman.sol\":714:1222  if (remain == 4)... */\n      jump(tag_46)\n    tag_33:\n        /* \"Solidity/IntConvertRoman.sol\":866:867  9 */\n      0x09\n        /* \"Solidity/IntConvertRoman.sol\":856:862  remain */\n      dup2\n        /* \"Solidity/IntConvertRoman.sol\":856:867  remain == 9 */\n      sub\n        /* \"Solidity/IntConvertRoman.sol\":852:1222  if (remain == 9)... */\n      tag_47\n      jumpi\n        /* \"Solidity/IntConvertRoman.sol\":913:920  romStrs */\n      0x00\n        /* \"Solidity/IntConvertRoman.sol\":925:930  index */\n      dup4\n        /* \"Solidity/IntConvertRoman.sol\":921:922  2 */\n      0x02\n        /* \"Solidity/IntConvertRoman.sol\":921:930  2 * index */\n      tag_48\n      swap2\n      swap1\n      tag_18\n      jump\t// in\n    tag_48:\n        /* \"Solidity/IntConvertRoman.sol\":913:931  romStrs[2 * index] */\n      dup2\n      sload\n      dup2\n      lt\n      tag_49\n      jumpi\n      tag_50\n      tag_21\n      jump\t// in\n    tag_50:\n    tag_49:\n      swap1\n      0x00\n      mstore\n      keccak256(0x00, 0x20)\n      add\n        /* \"Solidity/IntConvertRoman.sol\":934:941  romStrs */\n      0x00\n        /* \"Solidity/IntConvertRoman.sol\":954:955  2 */\n      0x02\n        /* \"Solidity/IntConvertRoman.sol\":946:951  index */\n      dup6\n        /* \"Solidity/IntConvertRoman.sol\":942:943  2 */\n      0x02\n        /* \"Solidity/IntConvertRoman.sol\":942:951  2 * index */\n      tag_52\n      swap2\n      swap1\n      tag_18\n      jump\t// in\n    tag_52:\n        /* \"Solidity/IntConvertRoman.sol\":942:955  2 * index + 2 */\n      tag_53\n      swap2\n      swap1\n      tag_40\n      jump\t// in\n    tag_53:\n        /* \"Solidity/IntConvertRoman.sol\":934:956  romStrs[2 * index + 2] */\n      dup2\n      sload\n      dup2\n      lt\n      tag_54\n      jumpi\n      tag_55\n      tag_21\n      jump\t// in\n    tag_55:\n    tag_54:\n      swap1\n      0x00\n      mstore\n      keccak256(0x00, 0x20)\n      add\n        /* \"Solidity/IntConvertRoman.sol\":959:964  roman */\n      dup6\n        /* \"Solidity/IntConvertRoman.sol\":899:965  string.concat(romStrs[2 * index] , romStrs[2 * index + 2] , roman) */\n      add(0x20, mload(0x40))\n      tag_57\n      swap4\n      swap3\n      swap2\n      swap1\n      tag_45\n      jump\t// in\n    tag_57:\n      mload(0x40)\n      0x20\n      dup2\n      dup4\n      sub\n      sub\n      dup2\n      mstore\n      swap1\n      0x40\n      mstore\n        /* \"Solidity/IntConvertRoman.sol\":891:965  roman = string.concat(romStrs[2 * index] , romStrs[2 * index + 2] , roman) */\n      swap4\n      pop\n        /* \"Solidity/IntConvertRoman.sol\":852:1222  if (remain == 9)... */\n      jump(tag_58)\n    tag_47:\n        /* \"Solidity/IntConvertRoman.sol\":1017:1022  int i */\n      0x00\n        /* \"Solidity/IntConvertRoman.sol\":1025:1026  0 */\n      0x00\n        /* \"Solidity/IntConvertRoman.sol\":1017:1026  int i = 0 */\n      swap1\n      pop\n        /* \"Solidity/IntConvertRoman.sol\":1012:1146  for (int i = 0; i < (remain - 5); i++)... */\n    tag_59:\n        /* \"Solidity/IntConvertRoman.sol\":1042:1043  5 */\n      0x05\n        /* \"Solidity/IntConvertRoman.sol\":1033:1039  remain */\n      dup3\n        /* \"Solidity/IntConvertRoman.sol\":1033:1043  remain - 5 */\n      tag_62\n      swap2\n      swap1\n      tag_63\n      jump\t// in\n    tag_62:\n        /* \"Solidity/IntConvertRoman.sol\":1028:1029  i */\n      dup2\n        /* \"Solidity/IntConvertRoman.sol\":1028:1044  i < (remain - 5) */\n      slt\n        /* \"Solidity/IntConvertRoman.sol\":1012:1146  for (int i = 0; i < (remain - 5); i++)... */\n      iszero\n      tag_60\n      jumpi\n        /* \"Solidity/IntConvertRoman.sol\":1104:1111  romStrs */\n      0x00\n        /* \"Solidity/IntConvertRoman.sol\":1116:1121  index */\n      dup5\n        /* \"Solidity/IntConvertRoman.sol\":1112:1113  2 */\n      0x02\n        /* \"Solidity/IntConvertRoman.sol\":1112:1121  2 * index */\n      tag_64\n      swap2\n      swap1\n      tag_18\n      jump\t// in\n    tag_64:\n        /* \"Solidity/IntConvertRoman.sol\":1104:1122  romStrs[2 * index] */\n      dup2\n      sload\n      dup2\n      lt\n      tag_65\n      jumpi\n      tag_66\n      tag_21\n      jump\t// in\n    tag_66:\n    tag_65:\n      swap1\n      0x00\n      mstore\n      keccak256(0x00, 0x20)\n      add\n        /* \"Solidity/IntConvertRoman.sol\":1125:1130  roman */\n      dup6\n        /* \"Solidity/IntConvertRoman.sol\":1089:1131  string.concat( romStrs[2 * index] , roman) */\n      add(0x20, mload(0x40))\n      tag_68\n      swap3\n      swap2\n      swap1\n      tag_24\n      jump\t// in\n    tag_68:\n      mload(0x40)\n      0x20\n      dup2\n      dup4\n      sub\n      sub\n      dup2\n      mstore\n      swap1\n      0x40\n      mstore\n        /* \"Solidity/IntConvertRoman.sol\":1081:1131  roman = string.concat( romStrs[2 * index] , roman) */\n      swap5\n      pop\n        /* \"Solidity/IntConvertRoman.sol\":1046:1049  i++ */\n      dup1\n      dup1\n      0x01\n      add\n      swap2\n      pop\n      pop\n        /* \"Solidity/IntConvertRoman.sol\":1012:1146  for (int i = 0; i < (remain - 5); i++)... */\n      jump(tag_59)\n    tag_60:\n      pop\n        /* \"Solidity/IntConvertRoman.sol\":1181:1188  romStrs */\n      0x00\n        /* \"Solidity/IntConvertRoman.sol\":1201:1202  1 */\n      0x01\n        /* \"Solidity/IntConvertRoman.sol\":1193:1198  index */\n      dup5\n        /* \"Solidity/IntConvertRoman.sol\":1189:1190  2 */\n      0x02\n        /* \"Solidity/IntConvertRoman.sol\":1189:1198  2 * index */\n      tag_69\n      swap2\n      swap1\n      tag_18\n      jump\t// in\n    tag_69:\n        /* \"Solidity/IntConvertRoman.sol\":1189:1202  2 * index + 1 */\n      tag_70\n      swap2\n      swap1\n      tag_40\n      jump\t// in\n    tag_70:\n        /* \"Solidity/IntConvertRoman.sol\":1181:1203  romStrs[2 * index + 1] */\n      dup2\n      sload\n      dup2\n      lt\n      tag_71\n      jumpi\n      tag_72\n      tag_21\n      jump\t// in\n    tag_72:\n    tag_71:\n      swap1\n      0x00\n      mstore\n      keccak256(0x00, 0x20)\n      add\n        /* \"Solidity/IntConvertRoman.sol\":1205:1210  roman */\n      dup5\n        /* \"Solidity/IntConvertRoman.sol\":1167:1211  string.concat(romStrs[2 * index + 1] ,roman) */\n      add(0x20, mload(0x40))\n      tag_74\n      swap3\n      swap2\n      swap1\n      tag_24\n      jump\t// in\n    tag_74:\n      mload(0x40)\n      0x20\n      dup2\n      dup4\n      sub\n      sub\n      dup2\n      mstore\n      swap1\n      0x40\n      mstore\n        /* \"Solidity/IntConvertRoman.sol\":1159:1211  roman = string.concat(romStrs[2 * index + 1] ,roman) */\n      swap4\n      pop\n        /* \"Solidity/IntConvertRoman.sol\":852:1222  if (remain == 9)... */\n    tag_58:\n        /* \"Solidity/IntConvertRoman.sol\":714:1222  if (remain == 4)... */\n    tag_46:\n        /* \"Solidity/IntConvertRoman.sol\":570:1222  if (remain == 4)... */\n    tag_32:\n        /* \"Solidity/IntConvertRoman.sol\":427:1222  if (remain < 4)... */\n    tag_25:\n        /* \"Solidity/IntConvertRoman.sol\":1232:1239  index++ */\n      dup3\n      dup1\n      tag_75\n      swap1\n      tag_76\n      jump\t// in\n    tag_75:\n      swap4\n      pop\n      pop\n        /* \"Solidity/IntConvertRoman.sol\":1261:1263  10 */\n      0x0a\n        /* \"Solidity/IntConvertRoman.sol\":1255:1258  div */\n      dup3\n        /* \"Solidity/IntConvertRoman.sol\":1255:1263  div / 10 */\n      tag_77\n      swap2\n      swap1\n      tag_78\n      jump\t// in\n    tag_77:\n        /* \"Solidity/IntConvertRoman.sol\":1249:1263  div = div / 10 */\n      swap2\n      pop\n        /* \"Solidity/IntConvertRoman.sol\":309:1271  while(div >0)... */\n      jump(tag_11)\n    tag_12:\n        /* \"Solidity/IntConvertRoman.sol\":1284:1289  roman */\n      dup4\n        /* \"Solidity/IntConvertRoman.sol\":1277:1289  return roman */\n      swap5\n      pop\n      pop\n      pop\n      pop\n      pop\n        /* \"Solidity/IntConvertRoman.sol\":146:1292  function ConvertToRoman(int num) public view returns(string memory){... */\n      swap2\n      swap1\n      pop\n      jump\t// out\n        /* \"#utility.yul\":88:205   */\n    tag_80:\n        /* \"#utility.yul\":197:198   */\n      0x00\n        /* \"#utility.yul\":194:195   */\n      0x00\n        /* \"#utility.yul\":187:199   */\n      revert\n        /* \"#utility.yul\":334:410   */\n    tag_82:\n        /* \"#utility.yul\":370:377   */\n      0x00\n        /* \"#utility.yul\":399:404   */\n      dup2\n        /* \"#utility.yul\":388:404   */\n      swap1\n      pop\n        /* \"#utility.yul\":334:410   */\n      swap2\n      swap1\n      pop\n      jump\t// out\n        /* \"#utility.yul\":416:536   */\n    tag_83:\n        /* \"#utility.yul\":488:511   */\n      tag_105\n        /* \"#utility.yul\":505:510   */\n      dup2\n        /* \"#utility.yul\":488:511   */\n      tag_82\n      jump\t// in\n    tag_105:\n        /* \"#utility.yul\":481:486   */\n      dup2\n        /* \"#utility.yul\":478:512   */\n      eq\n        /* \"#utility.yul\":468:530   */\n      tag_106\n      jumpi\n        /* \"#utility.yul\":526:527   */\n      0x00\n        /* \"#utility.yul\":523:524   */\n      0x00\n        /* \"#utility.yul\":516:528   */\n      revert\n        /* \"#utility.yul\":468:530   */\n    tag_106:\n        /* \"#utility.yul\":416:536   */\n      pop\n      jump\t// out\n        /* \"#utility.yul\":542:679   */\n    tag_84:\n        /* \"#utility.yul\":587:592   */\n      0x00\n        /* \"#utility.yul\":625:631   */\n      dup2\n        /* \"#utility.yul\":612:632   */\n      calldataload\n        /* \"#utility.yul\":603:632   */\n      swap1\n      pop\n        /* \"#utility.yul\":641:673   */\n      tag_108\n        /* \"#utility.yul\":667:672   */\n      dup2\n        /* \"#utility.yul\":641:673   */\n      tag_83\n      jump\t// in\n    tag_108:\n        /* \"#utility.yul\":542:679   */\n      swap3\n      swap2\n      pop\n      pop\n      jump\t// out\n        /* \"#utility.yul\":685:1012   */\n    tag_6:\n        /* \"#utility.yul\":743:749   */\n      0x00\n        /* \"#utility.yul\":792:794   */\n      0x20\n        /* \"#utility.yul\":780:789   */\n      dup3\n        /* \"#utility.yul\":771:778   */\n      dup5\n        /* \"#utility.yul\":767:790   */\n      sub\n        /* \"#utility.yul\":763:795   */\n      slt\n        /* \"#utility.yul\":760:879   */\n      iszero\n      tag_110\n      jumpi\n        /* \"#utility.yul\":798:877   */\n      tag_111\n      tag_80\n      jump\t// in\n    tag_111:\n        /* \"#utility.yul\":760:879   */\n    tag_110:\n        /* \"#utility.yul\":918:919   */\n      0x00\n        /* \"#utility.yul\":943:995   */\n      tag_112\n        /* \"#utility.yul\":987:994   */\n      dup5\n        /* \"#utility.yul\":978:984   */\n      dup3\n        /* \"#utility.yul\":967:976   */\n      dup6\n        /* \"#utility.yul\":963:985   */\n      add\n        /* \"#utility.yul\":943:995   */\n      tag_84\n      jump\t// in\n    tag_112:\n        /* \"#utility.yul\":933:995   */\n      swap2\n      pop\n        /* \"#utility.yul\":889:1005   */\n      pop\n        /* \"#utility.yul\":685:1012   */\n      swap3\n      swap2\n      pop\n      pop\n      jump\t// out\n        /* \"#utility.yul\":1018:1117   */\n    tag_85:\n        /* \"#utility.yul\":1070:1076   */\n      0x00\n        /* \"#utility.yul\":1104:1109   */\n      dup2\n        /* \"#utility.yul\":1098:1110   */\n      mload\n        /* \"#utility.yul\":1088:1110   */\n      swap1\n      pop\n        /* \"#utility.yul\":1018:1117   */\n      swap2\n      swap1\n      pop\n      jump\t// out\n        /* \"#utility.yul\":1123:1292   */\n    tag_86:\n        /* \"#utility.yul\":1207:1218   */\n      0x00\n        /* \"#utility.yul\":1241:1247   */\n      dup3\n        /* \"#utility.yul\":1236:1239   */\n      dup3\n        /* \"#utility.yul\":1229:1248   */\n      mstore\n        /* \"#utility.yul\":1281:1285   */\n      0x20\n        /* \"#utility.yul\":1276:1279   */\n      dup3\n        /* \"#utility.yul\":1272:1286   */\n      add\n        /* \"#utility.yul\":1257:1286   */\n      swap1\n      pop\n        /* \"#utility.yul\":1123:1292   */\n      swap3\n      swap2\n      pop\n      pop\n      jump\t// out\n        /* \"#utility.yul\":1298:1437   */\n    tag_87:\n        /* \"#utility.yul\":1387:1393   */\n      dup3\n        /* \"#utility.yul\":1382:1385   */\n      dup2\n        /* \"#utility.yul\":1377:1380   */\n      dup4\n        /* \"#utility.yul\":1371:1394   */\n      mcopy\n        /* \"#utility.yul\":1428:1429   */\n      0x00\n        /* \"#utility.yul\":1419:1425   */\n      dup4\n        /* \"#utility.yul\":1414:1417   */\n      dup4\n        /* \"#utility.yul\":1410:1426   */\n      add\n        /* \"#utility.yul\":1403:1430   */\n      mstore\n        /* \"#utility.yul\":1298:1437   */\n      pop\n      pop\n      pop\n      jump\t// out\n        /* \"#utility.yul\":1443:1545   */\n    tag_88:\n        /* \"#utility.yul\":1484:1490   */\n      0x00\n        /* \"#utility.yul\":1535:1537   */\n      0x1f\n        /* \"#utility.yul\":1531:1538   */\n      not\n        /* \"#utility.yul\":1526:1528   */\n      0x1f\n        /* \"#utility.yul\":1519:1524   */\n      dup4\n        /* \"#utility.yul\":1515:1529   */\n      add\n        /* \"#utility.yul\":1511:1539   */\n      and\n        /* \"#utility.yul\":1501:1539   */\n      swap1\n      pop\n        /* \"#utility.yul\":1443:1545   */\n      swap2\n      swap1\n      pop\n      jump\t// out\n        /* \"#utility.yul\":1551:1928   */\n    tag_89:\n        /* \"#utility.yul\":1639:1642   */\n      0x00\n        /* \"#utility.yul\":1667:1706   */\n      tag_118\n        /* \"#utility.yul\":1700:1705   */\n      dup3\n        /* \"#utility.yul\":1667:1706   */\n      tag_85\n      jump\t// in\n    tag_118:\n        /* \"#utility.yul\":1722:1793   */\n      tag_119\n        /* \"#utility.yul\":1786:1792   */\n      dup2\n        /* \"#utility.yul\":1781:1784   */\n      dup6\n        /* \"#utility.yul\":1722:1793   */\n      tag_86\n      jump\t// in\n    tag_119:\n        /* \"#utility.yul\":1715:1793   */\n      swap4\n      pop\n        /* \"#utility.yul\":1802:1867   */\n      tag_120\n        /* \"#utility.yul\":1860:1866   */\n      dup2\n        /* \"#utility.yul\":1855:1858   */\n      dup6\n        /* \"#utility.yul\":1848:1852   */\n      0x20\n        /* \"#utility.yul\":1841:1846   */\n      dup7\n        /* \"#utility.yul\":1837:1853   */\n      add\n        /* \"#utility.yul\":1802:1867   */\n      tag_87\n      jump\t// in\n    tag_120:\n        /* \"#utility.yul\":1892:1921   */\n      tag_121\n        /* \"#utility.yul\":1914:1920   */\n      dup2\n        /* \"#utility.yul\":1892:1921   */\n      tag_88\n      jump\t// in\n    tag_121:\n        /* \"#utility.yul\":1887:1890   */\n      dup5\n        /* \"#utility.yul\":1883:1922   */\n      add\n        /* \"#utility.yul\":1876:1922   */\n      swap2\n      pop\n        /* \"#utility.yul\":1643:1928   */\n      pop\n        /* \"#utility.yul\":1551:1928   */\n      swap3\n      swap2\n      pop\n      pop\n      jump\t// out\n        /* \"#utility.yul\":1934:2247   */\n    tag_9:\n        /* \"#utility.yul\":2047:2051   */\n      0x00\n        /* \"#utility.yul\":2085:2087   */\n      0x20\n        /* \"#utility.yul\":2074:2083   */\n      dup3\n        /* \"#utility.yul\":2070:2088   */\n      add\n        /* \"#utility.yul\":2062:2088   */\n      swap1\n      pop\n        /* \"#utility.yul\":2134:2143   */\n      dup2\n        /* \"#utility.yul\":2128:2132   */\n      dup2\n        /* \"#utility.yul\":2124:2144   */\n      sub\n        /* \"#utility.yul\":2120:2121   */\n      0x00\n        /* \"#utility.yul\":2109:2118   */\n      dup4\n        /* \"#utility.yul\":2105:2122   */\n      add\n        /* \"#utility.yul\":2098:2145   */\n      mstore\n        /* \"#utility.yul\":2162:2240   */\n      tag_123\n        /* \"#utility.yul\":2235:2239   */\n      dup2\n        /* \"#utility.yul\":2226:2232   */\n      dup5\n        /* \"#utility.yul\":2162:2240   */\n      tag_89\n      jump\t// in\n    tag_123:\n        /* \"#utility.yul\":2154:2240   */\n      swap1\n      pop\n        /* \"#utility.yul\":1934:2247   */\n      swap3\n      swap2\n      pop\n      pop\n      jump\t// out\n        /* \"#utility.yul\":2253:2433   */\n    tag_90:\n        /* \"#utility.yul\":2301:2378   */\n      0x4e487b7100000000000000000000000000000000000000000000000000000000\n        /* \"#utility.yul\":2298:2299   */\n      0x00\n        /* \"#utility.yul\":2291:2379   */\n      mstore\n        /* \"#utility.yul\":2398:2402   */\n      0x12\n        /* \"#utility.yul\":2395:2396   */\n      0x04\n        /* \"#utility.yul\":2388:2403   */\n      mstore\n        /* \"#utility.yul\":2422:2426   */\n      0x24\n        /* \"#utility.yul\":2419:2420   */\n      0x00\n        /* \"#utility.yul\":2412:2427   */\n      revert\n        /* \"#utility.yul\":2439:2613   */\n    tag_14:\n        /* \"#utility.yul\":2470:2471   */\n      0x00\n        /* \"#utility.yul\":2487:2506   */\n      tag_126\n        /* \"#utility.yul\":2504:2505   */\n      dup3\n        /* \"#utility.yul\":2487:2506   */\n      tag_82\n      jump\t// in\n    tag_126:\n        /* \"#utility.yul\":2482:2506   */\n      swap2\n      pop\n        /* \"#utility.yul\":2520:2539   */\n      tag_127\n        /* \"#utility.yul\":2537:2538   */\n      dup4\n        /* \"#utility.yul\":2520:2539   */\n      tag_82\n      jump\t// in\n    tag_127:\n        /* \"#utility.yul\":2515:2539   */\n      swap3\n      pop\n        /* \"#utility.yul\":2558:2559   */\n      dup3\n        /* \"#utility.yul\":2548:2583   */\n      tag_128\n      jumpi\n        /* \"#utility.yul\":2563:2581   */\n      tag_129\n      tag_90\n      jump\t// in\n    tag_129:\n        /* \"#utility.yul\":2548:2583   */\n    tag_128:\n        /* \"#utility.yul\":2605:2606   */\n      dup3\n        /* \"#utility.yul\":2602:2603   */\n      dup3\n        /* \"#utility.yul\":2597:2607   */\n      smod\n        /* \"#utility.yul\":2592:2607   */\n      swap1\n      pop\n        /* \"#utility.yul\":2439:2613   */\n      swap3\n      swap2\n      pop\n      pop\n      jump\t// out\n        /* \"#utility.yul\":2619:2696   */\n    tag_91:\n        /* \"#utility.yul\":2656:2663   */\n      0x00\n        /* \"#utility.yul\":2685:2690   */\n      dup2\n        /* \"#utility.yul\":2674:2690   */\n      swap1\n      pop\n        /* \"#utility.yul\":2619:2696   */\n      swap2\n      swap1\n      pop\n      jump\t// out\n        /* \"#utility.yul\":2702:2882   */\n    tag_92:\n        /* \"#utility.yul\":2750:2827   */\n      0x4e487b7100000000000000000000000000000000000000000000000000000000\n        /* \"#utility.yul\":2747:2748   */\n      0x00\n        /* \"#utility.yul\":2740:2828   */\n      mstore\n        /* \"#utility.yul\":2847:2851   */\n      0x11\n        /* \"#utility.yul\":2844:2845   */\n      0x04\n        /* \"#utility.yul\":2837:2852   */\n      mstore\n        /* \"#utility.yul\":2871:2875   */\n      0x24\n        /* \"#utility.yul\":2868:2869   */\n      0x00\n        /* \"#utility.yul\":2861:2876   */\n      revert\n        /* \"#utility.yul\":2888:3298   */\n    tag_18:\n        /* \"#utility.yul\":2928:2935   */\n      0x00\n        /* \"#utility.yul\":2951:2971   */\n      tag_133\n        /* \"#utility.yul\":2969:2970   */\n      dup3\n        /* \"#utility.yul\":2951:2971   */\n      tag_91\n      jump\t// in\n    tag_133:\n        /* \"#utility.yul\":2946:2971   */\n      swap2\n      pop\n        /* \"#utility.yul\":2985:3005   */\n      tag_134\n        /* \"#utility.yul\":3003:3004   */\n      dup4\n        /* \"#utility.yul\":2985:3005   */\n      tag_91\n      jump\t// in\n    tag_134:\n        /* \"#utility.yul\":2980:3005   */\n      swap3\n      pop\n        /* \"#utility.yul\":3040:3041   */\n      dup3\n        /* \"#utility.yul\":3037:3038   */\n      dup3\n        /* \"#utility.yul\":3033:3042   */\n      mul\n        /* \"#utility.yul\":3062:3092   */\n      tag_135\n        /* \"#utility.yul\":3080:3091   */\n      dup2\n        /* \"#utility.yul\":3062:3092   */\n      tag_91\n      jump\t// in\n    tag_135:\n        /* \"#utility.yul\":3051:3092   */\n      swap2\n      pop\n        /* \"#utility.yul\":3241:3242   */\n      dup3\n        /* \"#utility.yul\":3232:3239   */\n      dup3\n        /* \"#utility.yul\":3228:3243   */\n      div\n        /* \"#utility.yul\":3225:3226   */\n      dup5\n        /* \"#utility.yul\":3222:3244   */\n      eq\n        /* \"#utility.yul\":3202:3203   */\n      dup4\n        /* \"#utility.yul\":3195:3204   */\n      iszero\n        /* \"#utility.yul\":3175:3258   */\n      or\n        /* \"#utility.yul\":3152:3291   */\n      tag_136\n      jumpi\n        /* \"#utility.yul\":3271:3289   */\n      tag_137\n      tag_92\n      jump\t// in\n    tag_137:\n        /* \"#utility.yul\":3152:3291   */\n    tag_136:\n        /* \"#utility.yul\":2936:3298   */\n      pop\n        /* \"#utility.yul\":2888:3298   */\n      swap3\n      swap2\n      pop\n      pop\n      jump\t// out\n        /* \"#utility.yul\":3304:3484   */\n    tag_21:\n        /* \"#utility.yul\":3352:3429   */\n      0x4e487b7100000000000000000000000000000000000000000000000000000000\n        /* \"#utility.yul\":3349:3350   */\n      0x00\n        /* \"#utility.yul\":3342:3430   */\n      mstore\n        /* \"#utility.yul\":3449:3453   */\n      0x32\n        /* \"#utility.yul\":3446:3447   */\n      0x04\n        /* \"#utility.yul\":3439:3454   */\n      mstore\n        /* \"#utility.yul\":3473:3477   */\n      0x24\n        /* \"#utility.yul\":3470:3471   */\n      0x00\n        /* \"#utility.yul\":3463:3478   */\n      revert\n        /* \"#utility.yul\":3490:3670   */\n    tag_93:\n        /* \"#utility.yul\":3538:3615   */\n      0x4e487b7100000000000000000000000000000000000000000000000000000000\n        /* \"#utility.yul\":3535:3536   */\n      0x00\n        /* \"#utility.yul\":3528:3616   */\n      mstore\n        /* \"#utility.yul\":3635:3639   */\n      0x22\n        /* \"#utility.yul\":3632:3633   */\n      0x04\n        /* \"#utility.yul\":3625:3640   */\n      mstore\n        /* \"#utility.yul\":3659:3663   */\n      0x24\n        /* \"#utility.yul\":3656:3657   */\n      0x00\n        /* \"#utility.yul\":3649:3664   */\n      revert\n        /* \"#utility.yul\":3676:3996   */\n    tag_94:\n        /* \"#utility.yul\":3720:3726   */\n      0x00\n        /* \"#utility.yul\":3757:3758   */\n      0x02\n        /* \"#utility.yul\":3751:3755   */\n      dup3\n        /* \"#utility.yul\":3747:3759   */\n      div\n        /* \"#utility.yul\":3737:3759   */\n      swap1\n      pop\n        /* \"#utility.yul\":3804:3805   */\n      0x01\n        /* \"#utility.yul\":3798:3802   */\n      dup3\n        /* \"#utility.yul\":3794:3806   */\n      and\n        /* \"#utility.yul\":3825:3843   */\n      dup1\n        /* \"#utility.yul\":3815:3896   */\n      tag_141\n      jumpi\n        /* \"#utility.yul\":3881:3885   */\n      0x7f\n        /* \"#utility.yul\":3873:3879   */\n      dup3\n        /* \"#utility.yul\":3869:3886   */\n      and\n        /* \"#utility.yul\":3859:3886   */\n      swap2\n      pop\n        /* \"#utility.yul\":3815:3896   */\n    tag_141:\n        /* \"#utility.yul\":3943:3945   */\n      0x20\n        /* \"#utility.yul\":3935:3941   */\n      dup3\n        /* \"#utility.yul\":3932:3946   */\n      lt\n        /* \"#utility.yul\":3912:3930   */\n      dup2\n        /* \"#utility.yul\":3909:3947   */\n      sub\n        /* \"#utility.yul\":3906:3990   */\n      tag_142\n      jumpi\n        /* \"#utility.yul\":3962:3980   */\n      tag_143\n      tag_93\n      jump\t// in\n    tag_143:\n        /* \"#utility.yul\":3906:3990   */\n    tag_142:\n        /* \"#utility.yul\":3727:3996   */\n      pop\n        /* \"#utility.yul\":3676:3996   */\n      swap2\n      swap1\n      pop\n      jump\t// out\n        /* \"#utility.yul\":4002:4150   */\n    tag_95:\n        /* \"#utility.yul\":4104:4115   */\n      0x00\n        /* \"#utility.yul\":4141:4144   */\n      dup2\n        /* \"#utility.yul\":4126:4144   */\n      swap1\n      pop\n        /* \"#utility.yul\":4002:4150   */\n      swap3\n      swap2\n      pop\n      pop\n      jump\t// out\n        /* \"#utility.yul\":4156:4297   */\n    tag_96:\n        /* \"#utility.yul\":4205:4209   */\n      0x00\n        /* \"#utility.yul\":4228:4231   */\n      dup2\n        /* \"#utility.yul\":4220:4231   */\n      swap1\n      pop\n        /* \"#utility.yul\":4251:4254   */\n      dup2\n        /* \"#utility.yul\":4248:4249   */\n      0x00\n        /* \"#utility.yul\":4241:4255   */\n      mstore\n        /* \"#utility.yul\":4285:4289   */\n      0x20\n        /* \"#utility.yul\":4282:4283   */\n      0x00\n        /* \"#utility.yul\":4272:4290   */\n      keccak256\n        /* \"#utility.yul\":4264:4290   */\n      swap1\n      pop\n        /* \"#utility.yul\":4156:4297   */\n      swap2\n      swap1\n      pop\n      jump\t// out\n        /* \"#utility.yul\":4327:5201   */\n    tag_97:\n        /* \"#utility.yul\":4430:4433   */\n      0x00\n        /* \"#utility.yul\":4467:4472   */\n      dup2\n        /* \"#utility.yul\":4461:4473   */\n      sload\n        /* \"#utility.yul\":4496:4532   */\n      tag_147\n        /* \"#utility.yul\":4522:4531   */\n      dup2\n        /* \"#utility.yul\":4496:4532   */\n      tag_94\n      jump\t// in\n    tag_147:\n        /* \"#utility.yul\":4548:4637   */\n      tag_148\n        /* \"#utility.yul\":4630:4636   */\n      dup2\n        /* \"#utility.yul\":4625:4628   */\n      dup7\n        /* \"#utility.yul\":4548:4637   */\n      tag_95\n      jump\t// in\n    tag_148:\n        /* \"#utility.yul\":4541:4637   */\n      swap5\n      pop\n        /* \"#utility.yul\":4668:4669   */\n      0x01\n        /* \"#utility.yul\":4657:4666   */\n      dup3\n        /* \"#utility.yul\":4653:4670   */\n      and\n        /* \"#utility.yul\":4684:4685   */\n      0x00\n        /* \"#utility.yul\":4679:4845   */\n      dup2\n      eq\n      tag_150\n      jumpi\n        /* \"#utility.yul\":4859:4860   */\n      0x01\n        /* \"#utility.yul\":4854:5195   */\n      dup2\n      eq\n      tag_151\n      jumpi\n        /* \"#utility.yul\":4646:5195   */\n      jump(tag_149)\n        /* \"#utility.yul\":4679:4845   */\n    tag_150:\n        /* \"#utility.yul\":4763:4767   */\n      0xff\n        /* \"#utility.yul\":4759:4768   */\n      not\n        /* \"#utility.yul\":4748:4757   */\n      dup4\n        /* \"#utility.yul\":4744:4769   */\n      and\n        /* \"#utility.yul\":4739:4742   */\n      dup7\n        /* \"#utility.yul\":4732:4770   */\n      mstore\n        /* \"#utility.yul\":4825:4831   */\n      dup2\n        /* \"#utility.yul\":4818:4832   */\n      iszero\n        /* \"#utility.yul\":4811:4833   */\n      iszero\n        /* \"#utility.yul\":4803:4809   */\n      dup3\n        /* \"#utility.yul\":4799:4834   */\n      mul\n        /* \"#utility.yul\":4794:4797   */\n      dup7\n        /* \"#utility.yul\":4790:4835   */\n      add\n        /* \"#utility.yul\":4783:4835   */\n      swap4\n      pop\n        /* \"#utility.yul\":4679:4845   */\n      jump(tag_149)\n        /* \"#utility.yul\":4854:5195   */\n    tag_151:\n        /* \"#utility.yul\":4921:4959   */\n      tag_152\n        /* \"#utility.yul\":4953:4958   */\n      dup6\n        /* \"#utility.yul\":4921:4959   */\n      tag_96\n      jump\t// in\n    tag_152:\n        /* \"#utility.yul\":4981:4982   */\n      0x00\n        /* \"#utility.yul\":4995:5149   */\n    tag_153:\n        /* \"#utility.yul\":5009:5015   */\n      dup4\n        /* \"#utility.yul\":5006:5007   */\n      dup2\n        /* \"#utility.yul\":5003:5016   */\n      lt\n        /* \"#utility.yul\":4995:5149   */\n      iszero\n      tag_155\n      jumpi\n        /* \"#utility.yul\":5083:5090   */\n      dup2\n        /* \"#utility.yul\":5077:5091   */\n      sload\n        /* \"#utility.yul\":5073:5074   */\n      dup2\n        /* \"#utility.yul\":5068:5071   */\n      dup10\n        /* \"#utility.yul\":5064:5075   */\n      add\n        /* \"#utility.yul\":5057:5092   */\n      mstore\n        /* \"#utility.yul\":5133:5134   */\n      0x01\n        /* \"#utility.yul\":5124:5131   */\n      dup3\n        /* \"#utility.yul\":5120:5135   */\n      add\n        /* \"#utility.yul\":5109:5135   */\n      swap2\n      pop\n        /* \"#utility.yul\":5031:5035   */\n      0x20\n        /* \"#utility.yul\":5028:5029   */\n      dup2\n        /* \"#utility.yul\":5024:5036   */\n      add\n        /* \"#utility.yul\":5019:5036   */\n      swap1\n      pop\n        /* \"#utility.yul\":4995:5149   */\n      jump(tag_153)\n    tag_155:\n        /* \"#utility.yul\":5178:5184   */\n      dup4\n        /* \"#utility.yul\":5173:5176   */\n      dup9\n        /* \"#utility.yul\":5169:5185   */\n      add\n        /* \"#utility.yul\":5162:5185   */\n      swap6\n      pop\n        /* \"#utility.yul\":4861:5195   */\n      pop\n      pop\n        /* \"#utility.yul\":4646:5195   */\n    tag_149:\n      pop\n        /* \"#utility.yul\":4434:5201   */\n      pop\n      pop\n        /* \"#utility.yul\":4327:5201   */\n      swap3\n      swap2\n      pop\n      pop\n      jump\t// out\n        /* \"#utility.yul\":5207:5597   */\n    tag_98:\n        /* \"#utility.yul\":5313:5316   */\n      0x00\n        /* \"#utility.yul\":5341:5380   */\n      tag_157\n        /* \"#utility.yul\":5374:5379   */\n      dup3\n        /* \"#utility.yul\":5341:5380   */\n      tag_85\n      jump\t// in\n    tag_157:\n        /* \"#utility.yul\":5396:5485   */\n      tag_158\n        /* \"#utility.yul\":5478:5484   */\n      dup2\n        /* \"#utility.yul\":5473:5476   */\n      dup6\n        /* \"#utility.yul\":5396:5485   */\n      tag_95\n      jump\t// in\n    tag_158:\n        /* \"#utility.yul\":5389:5485   */\n      swap4\n      pop\n        /* \"#utility.yul\":5494:5559   */\n      tag_159\n        /* \"#utility.yul\":5552:5558   */\n      dup2\n        /* \"#utility.yul\":5547:5550   */\n      dup6\n        /* \"#utility.yul\":5540:5544   */\n      0x20\n        /* \"#utility.yul\":5533:5538   */\n      dup7\n        /* \"#utility.yul\":5529:5545   */\n      add\n        /* \"#utility.yul\":5494:5559   */\n      tag_87\n      jump\t// in\n    tag_159:\n        /* \"#utility.yul\":5584:5590   */\n      dup1\n        /* \"#utility.yul\":5579:5582   */\n      dup5\n        /* \"#utility.yul\":5575:5591   */\n      add\n        /* \"#utility.yul\":5568:5591   */\n      swap2\n      pop\n        /* \"#utility.yul\":5317:5597   */\n      pop\n        /* \"#utility.yul\":5207:5597   */\n      swap3\n      swap2\n      pop\n      pop\n      jump\t// out\n        /* \"#utility.yul\":5603:6032   */\n    tag_24:\n        /* \"#utility.yul\":5780:5783   */\n      0x00\n        /* \"#utility.yul\":5802:5894   */\n      tag_161\n        /* \"#utility.yul\":5890:5893   */\n      dup3\n        /* \"#utility.yul\":5881:5887   */\n      dup6\n        /* \"#utility.yul\":5802:5894   */\n      tag_97\n      jump\t// in\n    tag_161:\n        /* \"#utility.yul\":5795:5894   */\n      swap2\n      pop\n        /* \"#utility.yul\":5911:6006   */\n      tag_162\n        /* \"#utility.yul\":6002:6005   */\n      dup3\n        /* \"#utility.yul\":5993:5999   */\n      dup5\n        /* \"#utility.yul\":5911:6006   */\n      tag_98\n      jump\t// in\n    tag_162:\n        /* \"#utility.yul\":5904:6006   */\n      swap2\n      pop\n        /* \"#utility.yul\":6023:6026   */\n      dup2\n        /* \"#utility.yul\":6016:6026   */\n      swap1\n      pop\n        /* \"#utility.yul\":5603:6032   */\n      swap4\n      swap3\n      pop\n      pop\n      pop\n      jump\t// out\n        /* \"#utility.yul\":6038:6229   */\n    tag_40:\n        /* \"#utility.yul\":6078:6081   */\n      0x00\n        /* \"#utility.yul\":6097:6117   */\n      tag_164\n        /* \"#utility.yul\":6115:6116   */\n      dup3\n        /* \"#utility.yul\":6097:6117   */\n      tag_91\n      jump\t// in\n    tag_164:\n        /* \"#utility.yul\":6092:6117   */\n      swap2\n      pop\n        /* \"#utility.yul\":6131:6151   */\n      tag_165\n        /* \"#utility.yul\":6149:6150   */\n      dup4\n        /* \"#utility.yul\":6131:6151   */\n      tag_91\n      jump\t// in\n    tag_165:\n        /* \"#utility.yul\":6126:6151   */\n      swap3\n      pop\n        /* \"#utility.yul\":6174:6175   */\n      dup3\n        /* \"#utility.yul\":6171:6172   */\n      dup3\n        /* \"#utility.yul\":6167:6176   */\n      add\n        /* \"#utility.yul\":6160:6176   */\n      swap1\n      pop\n        /* \"#utility.yul\":6195:6198   */\n      dup1\n        /* \"#utility.yul\":6192:6193   */\n      dup3\n        /* \"#utility.yul\":6189:6199   */\n      gt\n        /* \"#utility.yul\":6186:6222   */\n      iszero\n      tag_166\n      jumpi\n        /* \"#utility.yul\":6202:6220   */\n      tag_167\n      tag_92\n      jump\t// in\n    tag_167:\n        /* \"#utility.yul\":6186:6222   */\n    tag_166:\n        /* \"#utility.yul\":6038:6229   */\n      swap3\n      swap2\n      pop\n      pop\n      jump\t// out\n        /* \"#utility.yul\":6235:6818   */\n    tag_45:\n        /* \"#utility.yul\":6457:6460   */\n      0x00\n        /* \"#utility.yul\":6479:6571   */\n      tag_169\n        /* \"#utility.yul\":6567:6570   */\n      dup3\n        /* \"#utility.yul\":6558:6564   */\n      dup7\n        /* \"#utility.yul\":6479:6571   */\n      tag_97\n      jump\t// in\n    tag_169:\n        /* \"#utility.yul\":6472:6571   */\n      swap2\n      pop\n        /* \"#utility.yul\":6588:6680   */\n      tag_170\n        /* \"#utility.yul\":6676:6679   */\n      dup3\n        /* \"#utility.yul\":6667:6673   */\n      dup6\n        /* \"#utility.yul\":6588:6680   */\n      tag_97\n      jump\t// in\n    tag_170:\n        /* \"#utility.yul\":6581:6680   */\n      swap2\n      pop\n        /* \"#utility.yul\":6697:6792   */\n      tag_171\n        /* \"#utility.yul\":6788:6791   */\n      dup3\n        /* \"#utility.yul\":6779:6785   */\n      dup5\n        /* \"#utility.yul\":6697:6792   */\n      tag_98\n      jump\t// in\n    tag_171:\n        /* \"#utility.yul\":6690:6792   */\n      swap2\n      pop\n        /* \"#utility.yul\":6809:6812   */\n      dup2\n        /* \"#utility.yul\":6802:6812   */\n      swap1\n      pop\n        /* \"#utility.yul\":6235:6818   */\n      swap5\n      swap4\n      pop\n      pop\n      pop\n      pop\n      jump\t// out\n        /* \"#utility.yul\":6824:7196   */\n    tag_63:\n        /* \"#utility.yul\":6863:6867   */\n      0x00\n        /* \"#utility.yul\":6883:6902   */\n      tag_173\n        /* \"#utility.yul\":6900:6901   */\n      dup3\n        /* \"#utility.yul\":6883:6902   */\n      tag_82\n      jump\t// in\n    tag_173:\n        /* \"#utility.yul\":6878:6902   */\n      swap2\n      pop\n        /* \"#utility.yul\":6916:6935   */\n      tag_174\n        /* \"#utility.yul\":6933:6934   */\n      dup4\n        /* \"#utility.yul\":6916:6935   */\n      tag_82\n      jump\t// in\n    tag_174:\n        /* \"#utility.yul\":6911:6935   */\n      swap3\n      pop\n        /* \"#utility.yul\":6959:6960   */\n      dup3\n        /* \"#utility.yul\":6956:6957   */\n      dup3\n        /* \"#utility.yul\":6952:6961   */\n      sub\n        /* \"#utility.yul\":6944:6961   */\n      swap1\n      pop\n        /* \"#utility.yul\":7153:7154   */\n      dup2\n        /* \"#utility.yul\":7147:7151   */\n      dup2\n        /* \"#utility.yul\":7143:7155   */\n      slt\n        /* \"#utility.yul\":7139:7140   */\n      0x00\n        /* \"#utility.yul\":7136:7137   */\n      dup5\n        /* \"#utility.yul\":7132:7141   */\n      slt\n        /* \"#utility.yul\":7128:7156   */\n      and\n        /* \"#utility.yul\":7111:7112   */\n      dup3\n        /* \"#utility.yul\":7105:7109   */\n      dup3\n        /* \"#utility.yul\":7101:7113   */\n      sgt\n        /* \"#utility.yul\":7096:7097   */\n      0x00\n        /* \"#utility.yul\":7093:7094   */\n      dup6\n        /* \"#utility.yul\":7089:7098   */\n      slt\n        /* \"#utility.yul\":7082:7099   */\n      iszero\n        /* \"#utility.yul\":7078:7114   */\n      and\n        /* \"#utility.yul\":7062:7166   */\n      or\n        /* \"#utility.yul\":7059:7189   */\n      iszero\n      tag_175\n      jumpi\n        /* \"#utility.yul\":7169:7187   */\n      tag_176\n      tag_92\n      jump\t// in\n    tag_176:\n        /* \"#utility.yul\":7059:7189   */\n    tag_175:\n        /* \"#utility.yul\":6824:7196   */\n      swap3\n      swap2\n      pop\n      pop\n      jump\t// out\n        /* \"#utility.yul\":7202:7435   */\n    tag_76:\n        /* \"#utility.yul\":7241:7244   */\n      0x00\n        /* \"#utility.yul\":7264:7288   */\n      tag_178\n        /* \"#utility.yul\":7282:7287   */\n      dup3\n        /* \"#utility.yul\":7264:7288   */\n      tag_91\n      jump\t// in\n    tag_178:\n        /* \"#utility.yul\":7255:7288   */\n      swap2\n      pop\n        /* \"#utility.yul\":7310:7376   */\n      0xffffffffffffffffffffffffffffffffffffffffffffffffffffffffffffffff\n        /* \"#utility.yul\":7303:7308   */\n      dup3\n        /* \"#utility.yul\":7300:7377   */\n      sub\n        /* \"#utility.yul\":7297:7400   */\n      tag_179\n      jumpi\n        /* \"#utility.yul\":7380:7398   */\n      tag_180\n      tag_92\n      jump\t// in\n    tag_180:\n        /* \"#utility.yul\":7297:7400   */\n    tag_179:\n        /* \"#utility.yul\":7427:7428   */\n      0x01\n        /* \"#utility.yul\":7420:7425   */\n      dup3\n        /* \"#utility.yul\":7416:7429   */\n      add\n        /* \"#utility.yul\":7409:7429   */\n      swap1\n      pop\n        /* \"#utility.yul\":7202:7435   */\n      swap2\n      swap1\n      pop\n      jump\t// out\n        /* \"#utility.yul\":7441:7826   */\n    tag_78:\n        /* \"#utility.yul\":7480:7481   */\n      0x00\n        /* \"#utility.yul\":7497:7516   */\n      tag_182\n        /* \"#utility.yul\":7514:7515   */\n      dup3\n        /* \"#utility.yul\":7497:7516   */\n      tag_82\n      jump\t// in\n    tag_182:\n        /* \"#utility.yul\":7492:7516   */\n      swap2\n      pop\n        /* \"#utility.yul\":7530:7549   */\n      tag_183\n        /* \"#utility.yul\":7547:7548   */\n      dup4\n        /* \"#utility.yul\":7530:7549   */\n      tag_82\n      jump\t// in\n    tag_183:\n        /* \"#utility.yul\":7525:7549   */\n      swap3\n      pop\n        /* \"#utility.yul\":7568:7569   */\n      dup3\n        /* \"#utility.yul\":7558:7593   */\n      tag_184\n      jumpi\n        /* \"#utility.yul\":7573:7591   */\n      tag_185\n      tag_90\n      jump\t// in\n    tag_185:\n        /* \"#utility.yul\":7558:7593   */\n    tag_184:\n        /* \"#utility.yul\":7759:7760   */\n      0x01\n        /* \"#utility.yul\":7756:7757   */\n      0x00\n        /* \"#utility.yul\":7752:7761   */\n      sub\n        /* \"#utility.yul\":7749:7750   */\n      dup4\n        /* \"#utility.yul\":7746:7762   */\n      eq\n        /* \"#utility.yul\":7665:7731   */\n      0x8000000000000000000000000000000000000000000000000000000000000000\n        /* \"#utility.yul\":7662:7663   */\n      dup4\n        /* \"#utility.yul\":7659:7732   */\n      eq\n        /* \"#utility.yul\":7642:7772   */\n      and\n        /* \"#utility.yul\":7639:7795   */\n      iszero\n      tag_186\n      jumpi\n        /* \"#utility.yul\":7775:7793   */\n      tag_187\n      tag_92\n      jump\t// in\n    tag_187:\n        /* \"#utility.yul\":7639:7795   */\n    tag_186:\n        /* \"#utility.yul\":7818:7819   */\n      dup3\n        /* \"#utility.yul\":7815:7816   */\n      dup3\n        /* \"#utility.yul\":7810:7820   */\n      sdiv\n        /* \"#utility.yul\":7805:7820   */\n      swap1\n      pop\n        /* \"#utility.yul\":7441:7826   */\n      swap3\n      swap2\n      pop\n      pop\n      jump\t// out\n\n    auxdata: 0xa2646970667358221220e0774951e13ce12fade5310329f23ff1670a96a8f695eb10e7bf88dc583d3f5664736f6c634300081e0033\n}\n",
				"bytecode": {
					"linkReferences": {},
					"object": "60806040526040518060e001604052806040518060400160405280600181526020017f490000000000000000000000000000000000000000000000000000000000000081525081526020016040518060400160405280600181526020017f560000000000000000000000000000000000000000000000000000000000000081525081526020016040518060400160405280600181526020017f580000000000000000000000000000000000000000000000000000000000000081525081526020016040518060400160405280600181526020017f4c0000000000000000000000000000000000000000000000000000000000000081525081526020016040518060400160405280600181526020017f430000000000000000000000000000000000000000000000000000000000000081525081526020016040518060400160405280600181526020017f440000000000000000000000000000000000000000000000000000000000000081525081526020016040518060400160405280600181526020017f4d000000000000000000000000000000000000000000000000000000000000008152508152505f9060076101b99291906101cb565b503480156101c5575f5ffd5b506105a9565b828054828255905f5260205f20908101928215610211579160200282015b8281111561021057825182908161020091906104da565b50916020019190600101906101e9565b5b50905061021e9190610222565b5090565b5b80821115610241575f81816102389190610245565b50600101610223565b5090565b50805461025190610301565b5f825580601f10610262575061027f565b601f0160209004905f5260205f209081019061027e9190610282565b5b50565b5b80821115610299575f815f905550600101610283565b5090565b5f81519050919050565b7f4e487b71000000000000000000000000000000000000000000000000000000005f52604160045260245ffd5b7f4e487b71000000000000000000000000000000000000000000000000000000005f52602260045260245ffd5b5f600282049050600182168061031857607f821691505b60208210810361032b5761032a6102d4565b5b50919050565b5f819050815f5260205f209050919050565b5f6020601f8301049050919050565b5f82821b905092915050565b5f6008830261038d7fffffffffffffffffffffffffffffffffffffffffffffffffffffffffffffffff82610352565b6103978683610352565b95508019841693508086168417925050509392505050565b5f819050919050565b5f819050919050565b5f6103db6103d66103d1846103af565b6103b8565b6103af565b9050919050565b5f819050919050565b6103f4836103c1565b610408610400826103e2565b84845461035e565b825550505050565b5f5f905090565b61041f610410565b61042a8184846103eb565b505050565b5b8181101561044d576104425f82610417565b600181019050610430565b5050565b601f8211156104925761046381610331565b61046c84610343565b8101602085101561047b578190505b61048f61048785610343565b83018261042f565b50505b505050565b5f82821c905092915050565b5f6104b25f1984600802610497565b1980831691505092915050565b5f6104ca83836104a3565b9150826002028217905092915050565b6104e38261029d565b67ffffffffffffffff8111156104fc576104fb6102a7565b5b6105068254610301565b610511828285610451565b5f60209050601f831160018114610542575f8415610530578287015190505b61053a85826104bf565b8655506105a1565b601f19841661055086610331565b5f5b8281101561057757848901518255600182019150602085019450602081019050610552565b868310156105945784890151610590601f8916826104a3565b8355505b6001600288020188555050505b505050505050565b610822806105b65f395ff3fe608060405234801561000f575f5ffd5b5060043610610029575f3560e01c8063c754d73c1461002d575b5f5ffd5b61004760048036038101906100429190610392565b61005d565b604051610054919061042d565b60405180910390f35b60605f60405180602001604052805f81525090505f5f90505f8490505f5f90505b5f82131561034f57600a82610093919061047a565b90505f81031561034f5760048112156100f5575f8360026100b491906104e0565b815481106100c5576100c4610521565b5b905f5260205f2001846040516020016100df929190610677565b604051602081830303815290604052935061032d565b6004810361014c575f83600261010b91906104e0565b8154811061011c5761011b610521565b5b905f5260205f200184604051602001610136929190610677565b604051602081830303815290604052935061032c565b600481036101d7575f83600261016291906104e0565b8154811061017357610172610521565b5b905f5260205f20015f600185600261018b91906104e0565b610195919061069a565b815481106101a6576101a5610521565b5b905f5260205f2001856040516020016101c1939291906106cd565b604051602081830303815290604052935061032b565b60098103610262575f8360026101ed91906104e0565b815481106101fe576101fd610521565b5b905f5260205f20015f600285600261021691906104e0565b610220919061069a565b8154811061023157610230610521565b5b905f5260205f20018560405160200161024c939291906106cd565b604051602081830303815290604052935061032a565b5f5f90505b60058261027491906106fd565b8112156102d2575f84600261028991906104e0565b8154811061029a57610299610521565b5b905f5260205f2001856040516020016102b4929190610677565b60405160208183030381529060405294508080600101915050610267565b505f60018460026102e391906104e0565b6102ed919061069a565b815481106102fe576102fd610521565b5b905f5260205f200184604051602001610318929190610677565b60405160208183030381529060405293505b5b5b5b82806103389061073d565b935050600a826103489190610784565b915061007e565b83945050505050919050565b5f5ffd5b5f819050919050565b6103718161035f565b811461037b575f5ffd5b50565b5f8135905061038c81610368565b92915050565b5f602082840312156103a7576103a661035b565b5b5f6103b48482850161037e565b91505092915050565b5f81519050919050565b5f82825260208201905092915050565b8281835e5f83830152505050565b5f601f19601f8301169050919050565b5f6103ff826103bd565b61040981856103c7565b93506104198185602086016103d7565b610422816103e5565b840191505092915050565b5f6020820190508181035f83015261044581846103f5565b905092915050565b7f4e487b71000000000000000000000000000000000000000000000000000000005f52601260045260245ffd5b5f6104848261035f565b915061048f8361035f565b92508261049f5761049e61044d565b5b828207905092915050565b5f819050919050565b7f4e487b71000000000000000000000000000000000000000000000000000000005f52601160045260245ffd5b5f6104ea826104aa565b91506104f5836104aa565b9250828202610503816104aa565b9150828204841483151761051a576105196104b3565b5b5092915050565b7f4e487b71000000000000000000000000000000000000000000000000000000005f52603260045260245ffd5b7f4e487b71000000000000000000000000000000000000000000000000000000005f52602260045260245ffd5b5f600282049050600182168061059257607f821691505b6020821081036105a5576105a461054e565b5b50919050565b5f81905092915050565b5f819050815f5260205f209050919050565b5f81546105d38161057b565b6105dd81866105ab565b9450600182165f81146105f7576001811461060c5761063e565b60ff198316865281151582028601935061063e565b610615856105b5565b5f5b8381101561063657815481890152600182019150602081019050610617565b838801955050505b50505092915050565b5f610651826103bd565b61065b81856105ab565b935061066b8185602086016103d7565b80840191505092915050565b5f61068282856105c7565b915061068e8284610647565b91508190509392505050565b5f6106a4826104aa565b91506106af836104aa565b92508282019050808211156106c7576106c66104b3565b5b92915050565b5f6106d882866105c7565b91506106e482856105c7565b91506106f08284610647565b9150819050949350505050565b5f6107078261035f565b91506107128361035f565b925082820390508181125f8412168282135f851215161715610737576107366104b3565b5b92915050565b5f610747826104aa565b91507fffffffffffffffffffffffffffffffffffffffffffffffffffffffffffffffff8203610779576107786104b3565b5b600182019050919050565b5f61078e8261035f565b91506107998361035f565b9250826107a9576107a861044d565b5b60015f0383147f8000000000000000000000000000000000000000000000000000000000000000831416156107e1576107e06104b3565b5b82820590509291505056fea2646970667358221220e0774951e13ce12fade5310329f23ff1670a96a8f695eb10e7bf88dc583d3f5664736f6c634300081e0033",
					"opcodes": "PUSH1 0x80 PUSH1 0x40 MSTORE PUSH1 0x40 MLOAD DUP1 PUSH1 0xE0 ADD PUSH1 0x40 MSTORE DUP1 PUSH1 0x40 MLOAD DUP1 PUSH1 0x40 ADD PUSH1 0x40 MSTORE DUP1 PUSH1 0x1 DUP2 MSTORE PUSH1 0x20 ADD PUSH32 0x4900000000000000000000000000000000000000000000000000000000000000 DUP2 MSTORE POP DUP2 MSTORE PUSH1 0x20 ADD PUSH1 0x40 MLOAD DUP1 PUSH1 0x40 ADD PUSH1 0x40 MSTORE DUP1 PUSH1 0x1 DUP2 MSTORE PUSH1 0x20 ADD PUSH32 0x5600000000000000000000000000000000000000000000000000000000000000 DUP2 MSTORE POP DUP2 MSTORE PUSH1 0x20 ADD PUSH1 0x40 MLOAD DUP1 PUSH1 0x40 ADD PUSH1 0x40 MSTORE DUP1 PUSH1 0x1 DUP2 MSTORE PUSH1 0x20 ADD PUSH32 0x5800000000000000000000000000000000000000000000000000000000000000 DUP2 MSTORE POP DUP2 MSTORE PUSH1 0x20 ADD PUSH1 0x40 MLOAD DUP1 PUSH1 0x40 ADD PUSH1 0x40 MSTORE DUP1 PUSH1 0x1 DUP2 MSTORE PUSH1 0x20 ADD PUSH32 0x4C00000000000000000000000000000000000000000000000000000000000000 DUP2 MSTORE POP DUP2 MSTORE PUSH1 0x20 ADD PUSH1 0x40 MLOAD DUP1 PUSH1 0x40 ADD PUSH1 0x40 MSTORE DUP1 PUSH1 0x1 DUP2 MSTORE PUSH1 0x20 ADD PUSH32 0x4300000000000000000000000000000000000000000000000000000000000000 DUP2 MSTORE POP DUP2 MSTORE PUSH1 0x20 ADD PUSH1 0x40 MLOAD DUP1 PUSH1 0x40 ADD PUSH1 0x40 MSTORE DUP1 PUSH1 0x1 DUP2 MSTORE PUSH1 0x20 ADD PUSH32 0x4400000000000000000000000000000000000000000000000000000000000000 DUP2 MSTORE POP DUP2 MSTORE PUSH1 0x20 ADD PUSH1 0x40 MLOAD DUP1 PUSH1 0x40 ADD PUSH1 0x40 MSTORE DUP1 PUSH1 0x1 DUP2 MSTORE PUSH1 0x20 ADD PUSH32 0x4D00000000000000000000000000000000000000000000000000000000000000 DUP2 MSTORE POP DUP2 MSTORE POP PUSH0 SWAP1 PUSH1 0x7 PUSH2 0x1B9 SWAP3 SWAP2 SWAP1 PUSH2 0x1CB JUMP JUMPDEST POP CALLVALUE DUP1 ISZERO PUSH2 0x1C5 JUMPI PUSH0 PUSH0 REVERT JUMPDEST POP PUSH2 0x5A9 JUMP JUMPDEST DUP3 DUP1 SLOAD DUP3 DUP3 SSTORE SWAP1 PUSH0 MSTORE PUSH1 0x20 PUSH0 KECCAK256 SWAP1 DUP2 ADD SWAP3 DUP3 ISZERO PUSH2 0x211 JUMPI SWAP2 PUSH1 0x20 MUL DUP3 ADD JUMPDEST DUP3 DUP2 GT ISZERO PUSH2 0x210 JUMPI DUP3 MLOAD DUP3 SWAP1 DUP2 PUSH2 0x200 SWAP2 SWAP1 PUSH2 0x4DA JUMP JUMPDEST POP SWAP2 PUSH1 0x20 ADD SWAP2 SWAP1 PUSH1 0x1 ADD SWAP1 PUSH2 0x1E9 JUMP JUMPDEST JUMPDEST POP SWAP1 POP PUSH2 0x21E SWAP2 SWAP1 PUSH2 0x222 JUMP JUMPDEST POP SWAP1 JUMP JUMPDEST JUMPDEST DUP1 DUP3 GT ISZERO PUSH2 0x241 JUMPI PUSH0 DUP2 DUP2 PUSH2 0x238 SWAP2 SWAP1 PUSH2 0x245 JUMP JUMPDEST POP PUSH1 0x1 ADD PUSH2 0x223 JUMP JUMPDEST POP SWAP1 JUMP JUMPDEST POP DUP1 SLOAD PUSH2 0x251 SWAP1 PUSH2 0x301 JUMP JUMPDEST PUSH0 DUP3 SSTORE DUP1 PUSH1 0x1F LT PUSH2 0x262 JUMPI POP PUSH2 0x27F JUMP JUMPDEST PUSH1 0x1F ADD PUSH1 0x20 SWAP1 DIV SWAP1 PUSH0 MSTORE PUSH1 0x20 PUSH0 KECCAK256 SWAP1 DUP2 ADD SWAP1 PUSH2 0x27E SWAP2 SWAP1 PUSH2 0x282 JUMP JUMPDEST JUMPDEST POP JUMP JUMPDEST JUMPDEST DUP1 DUP3 GT ISZERO PUSH2 0x299 JUMPI PUSH0 DUP2 PUSH0 SWAP1 SSTORE POP PUSH1 0x1 ADD PUSH2 0x283 JUMP JUMPDEST POP SWAP1 JUMP JUMPDEST PUSH0 DUP2 MLOAD SWAP1 POP SWAP2 SWAP1 POP JUMP JUMPDEST PUSH32 0x4E487B7100000000000000000000000000000000000000000000000000000000 PUSH0 MSTORE PUSH1 0x41 PUSH1 0x4 MSTORE PUSH1 0x24 PUSH0 REVERT JUMPDEST PUSH32 0x4E487B7100000000000000000000000000000000000000000000000000000000 PUSH0 MSTORE PUSH1 0x22 PUSH1 0x4 MSTORE PUSH1 0x24 PUSH0 REVERT JUMPDEST PUSH0 PUSH1 0x2 DUP3 DIV SWAP1 POP PUSH1 0x1 DUP3 AND DUP1 PUSH2 0x318 JUMPI PUSH1 0x7F DUP3 AND SWAP2 POP JUMPDEST PUSH1 0x20 DUP3 LT DUP2 SUB PUSH2 0x32B JUMPI PUSH2 0x32A PUSH2 0x2D4 JUMP JUMPDEST JUMPDEST POP SWAP2 SWAP1 POP JUMP JUMPDEST PUSH0 DUP2 SWAP1 POP DUP2 PUSH0 MSTORE PUSH1 0x20 PUSH0 KECCAK256 SWAP1 POP SWAP2 SWAP1 POP JUMP JUMPDEST PUSH0 PUSH1 0x20 PUSH1 0x1F DUP4 ADD DIV SWAP1 POP SWAP2 SWAP1 POP JUMP JUMPDEST PUSH0 DUP3 DUP3 SHL SWAP1 POP SWAP3 SWAP2 POP POP JUMP JUMPDEST PUSH0 PUSH1 0x8 DUP4 MUL PUSH2 0x38D PUSH32 0xFFFFFFFFFFFFFFFFFFFFFFFFFFFFFFFFFFFFFFFFFFFFFFFFFFFFFFFFFFFFFFFF DUP3 PUSH2 0x352 JUMP JUMPDEST PUSH2 0x397 DUP7 DUP4 PUSH2 0x352 JUMP JUMPDEST SWAP6 POP DUP1 NOT DUP5 AND SWAP4 POP DUP1 DUP7 AND DUP5 OR SWAP3 POP POP POP SWAP4 SWAP3 POP POP POP JUMP JUMPDEST PUSH0 DUP2 SWAP1 POP SWAP2 SWAP1 POP JUMP JUMPDEST PUSH0 DUP2 SWAP1 POP SWAP2 SWAP1 POP JUMP JUMPDEST PUSH0 PUSH2 0x3DB PUSH2 0x3D6 PUSH2 0x3D1 DUP5 PUSH2 0x3AF JUMP JUMPDEST PUSH2 0x3B8 JUMP JUMPDEST PUSH2 0x3AF JUMP JUMPDEST SWAP1 POP SWAP2 SWAP1 POP JUMP JUMPDEST PUSH0 DUP2 SWAP1 POP SWAP2 SWAP1 POP JUMP JUMPDEST PUSH2 0x3F4 DUP4 PUSH2 0x3C1 JUMP JUMPDEST PUSH2 0x408 PUSH2 0x400 DUP3 PUSH2 0x3E2 JUMP JUMPDEST DUP5 DUP5 SLOAD PUSH2 0x35E JUMP JUMPDEST DUP3 SSTORE POP POP POP POP JUMP JUMPDEST PUSH0 PUSH0 SWAP1 POP SWAP1 JUMP JUMPDEST PUSH2 0x41F PUSH2 0x410 JUMP JUMPDEST PUSH2 0x42A DUP2 DUP5 DUP5 PUSH2 0x3EB JUMP JUMPDEST POP POP POP JUMP JUMPDEST JUMPDEST DUP2 DUP2 LT ISZERO PUSH2 0x44D JUMPI PUSH2 0x442 PUSH0 DUP3 PUSH2 0x417 JUMP JUMPDEST PUSH1 0x1 DUP2 ADD SWAP1 POP PUSH2 0x430 JUMP JUMPDEST POP POP JUMP JUMPDEST PUSH1 0x1F DUP3 GT ISZERO PUSH2 0x492 JUMPI PUSH2 0x463 DUP2 PUSH2 0x331 JUMP JUMPDEST PUSH2 0x46C DUP5 PUSH2 0x343 JUMP JUMPDEST DUP2 ADD PUSH1 0x20 DUP6 LT ISZERO PUSH2 0x47B JUMPI DUP2 SWAP1 POP JUMPDEST PUSH2 0x48F PUSH2 0x487 DUP6 PUSH2 0x343 JUMP JUMPDEST DUP4 ADD DUP3 PUSH2 0x42F JUMP JUMPDEST POP POP JUMPDEST POP POP POP JUMP JUMPDEST PUSH0 DUP3 DUP3 SHR SWAP1 POP SWAP3 SWAP2 POP POP JUMP JUMPDEST PUSH0 PUSH2 0x4B2 PUSH0 NOT DUP5 PUSH1 0x8 MUL PUSH2 0x497 JUMP JUMPDEST NOT DUP1 DUP4 AND SWAP2 POP POP SWAP3 SWAP2 POP POP JUMP JUMPDEST PUSH0 PUSH2 0x4CA DUP4 DUP4 PUSH2 0x4A3 JUMP JUMPDEST SWAP2 POP DUP3 PUSH1 0x2 MUL DUP3 OR SWAP1 POP SWAP3 SWAP2 POP POP JUMP JUMPDEST PUSH2 0x4E3 DUP3 PUSH2 0x29D JUMP JUMPDEST PUSH8 0xFFFFFFFFFFFFFFFF DUP2 GT ISZERO PUSH2 0x4FC JUMPI PUSH2 0x4FB PUSH2 0x2A7 JUMP JUMPDEST JUMPDEST PUSH2 0x506 DUP3 SLOAD PUSH2 0x301 JUMP JUMPDEST PUSH2 0x511 DUP3 DUP3 DUP6 PUSH2 0x451 JUMP JUMPDEST PUSH0 PUSH1 0x20 SWAP1 POP PUSH1 0x1F DUP4 GT PUSH1 0x1 DUP2 EQ PUSH2 0x542 JUMPI PUSH0 DUP5 ISZERO PUSH2 0x530 JUMPI DUP3 DUP8 ADD MLOAD SWAP1 POP JUMPDEST PUSH2 0x53A DUP6 DUP3 PUSH2 0x4BF JUMP JUMPDEST DUP7 SSTORE POP PUSH2 0x5A1 JUMP JUMPDEST PUSH1 0x1F NOT DUP5 AND PUSH2 0x550 DUP7 PUSH2 0x331 JUMP JUMPDEST PUSH0 JUMPDEST DUP3 DUP2 LT ISZERO PUSH2 0x577 JUMPI DUP5 DUP10 ADD MLOAD DUP3 SSTORE PUSH1 0x1 DUP3 ADD SWAP2 POP PUSH1 0x20 DUP6 ADD SWAP5 POP PUSH1 0x20 DUP2 ADD SWAP1 POP PUSH2 0x552 JUMP JUMPDEST DUP7 DUP4 LT ISZERO PUSH2 0x594 JUMPI DUP5 DUP10 ADD MLOAD PUSH2 0x590 PUSH1 0x1F DUP10 AND DUP3 PUSH2 0x4A3 JUMP JUMPDEST DUP4 SSTORE POP JUMPDEST PUSH1 0x1 PUSH1 0x2 DUP9 MUL ADD DUP9 SSTORE POP POP POP JUMPDEST POP POP POP POP POP POP JUMP JUMPDEST PUSH2 0x822 DUP1 PUSH2 0x5B6 PUSH0 CODECOPY PUSH0 RETURN INVALID PUSH1 0x80 PUSH1 0x40 MSTORE CALLVALUE DUP1 ISZERO PUSH2 0xF JUMPI PUSH0 PUSH0 REVERT JUMPDEST POP PUSH1 0x4 CALLDATASIZE LT PUSH2 0x29 JUMPI PUSH0 CALLDATALOAD PUSH1 0xE0 SHR DUP1 PUSH4 0xC754D73C EQ PUSH2 0x2D JUMPI JUMPDEST PUSH0 PUSH0 REVERT JUMPDEST PUSH2 0x47 PUSH1 0x4 DUP1 CALLDATASIZE SUB DUP2 ADD SWAP1 PUSH2 0x42 SWAP2 SWAP1 PUSH2 0x392 JUMP JUMPDEST PUSH2 0x5D JUMP JUMPDEST PUSH1 0x40 MLOAD PUSH2 0x54 SWAP2 SWAP1 PUSH2 0x42D JUMP JUMPDEST PUSH1 0x40 MLOAD DUP1 SWAP2 SUB SWAP1 RETURN JUMPDEST PUSH1 0x60 PUSH0 PUSH1 0x40 MLOAD DUP1 PUSH1 0x20 ADD PUSH1 0x40 MSTORE DUP1 PUSH0 DUP2 MSTORE POP SWAP1 POP PUSH0 PUSH0 SWAP1 POP PUSH0 DUP5 SWAP1 POP PUSH0 PUSH0 SWAP1 POP JUMPDEST PUSH0 DUP3 SGT ISZERO PUSH2 0x34F JUMPI PUSH1 0xA DUP3 PUSH2 0x93 SWAP2 SWAP1 PUSH2 0x47A JUMP JUMPDEST SWAP1 POP PUSH0 DUP2 SUB ISZERO PUSH2 0x34F JUMPI PUSH1 0x4 DUP2 SLT ISZERO PUSH2 0xF5 JUMPI PUSH0 DUP4 PUSH1 0x2 PUSH2 0xB4 SWAP2 SWAP1 PUSH2 0x4E0 JUMP JUMPDEST DUP2 SLOAD DUP2 LT PUSH2 0xC5 JUMPI PUSH2 0xC4 PUSH2 0x521 JUMP JUMPDEST JUMPDEST SWAP1 PUSH0 MSTORE PUSH1 0x20 PUSH0 KECCAK256 ADD DUP5 PUSH1 0x40 MLOAD PUSH1 0x20 ADD PUSH2 0xDF SWAP3 SWAP2 SWAP1 PUSH2 0x677 JUMP JUMPDEST PUSH1 0x40 MLOAD PUSH1 0x20 DUP2 DUP4 SUB SUB DUP2 MSTORE SWAP1 PUSH1 0x40 MSTORE SWAP4 POP PUSH2 0x32D JUMP JUMPDEST PUSH1 0x4 DUP2 SUB PUSH2 0x14C JUMPI PUSH0 DUP4 PUSH1 0x2 PUSH2 0x10B SWAP2 SWAP1 PUSH2 0x4E0 JUMP JUMPDEST DUP2 SLOAD DUP2 LT PUSH2 0x11C JUMPI PUSH2 0x11B PUSH2 0x521 JUMP JUMPDEST JUMPDEST SWAP1 PUSH0 MSTORE PUSH1 0x20 PUSH0 KECCAK256 ADD DUP5 PUSH1 0x40 MLOAD PUSH1 0x20 ADD PUSH2 0x136 SWAP3 SWAP2 SWAP1 PUSH2 0x677 JUMP JUMPDEST PUSH1 0x40 MLOAD PUSH1 0x20 DUP2 DUP4 SUB SUB DUP2 MSTORE SWAP1 PUSH1 0x40 MSTORE SWAP4 POP PUSH2 0x32C JUMP JUMPDEST PUSH1 0x4 DUP2 SUB PUSH2 0x1D7 JUMPI PUSH0 DUP4 PUSH1 0x2 PUSH2 0x162 SWAP2 SWAP1 PUSH2 0x4E0 JUMP JUMPDEST DUP2 SLOAD DUP2 LT PUSH2 0x173 JUMPI PUSH2 0x172 PUSH2 0x521 JUMP JUMPDEST JUMPDEST SWAP1 PUSH0 MSTORE PUSH1 0x20 PUSH0 KECCAK256 ADD PUSH0 PUSH1 0x1 DUP6 PUSH1 0x2 PUSH2 0x18B SWAP2 SWAP1 PUSH2 0x4E0 JUMP JUMPDEST PUSH2 0x195 SWAP2 SWAP1 PUSH2 0x69A JUMP JUMPDEST DUP2 SLOAD DUP2 LT PUSH2 0x1A6 JUMPI PUSH2 0x1A5 PUSH2 0x521 JUMP JUMPDEST JUMPDEST SWAP1 PUSH0 MSTORE PUSH1 0x20 PUSH0 KECCAK256 ADD DUP6 PUSH1 0x40 MLOAD PUSH1 0x20 ADD PUSH2 0x1C1 SWAP4 SWAP3 SWAP2 SWAP1 PUSH2 0x6CD JUMP JUMPDEST PUSH1 0x40 MLOAD PUSH1 0x20 DUP2 DUP4 SUB SUB DUP2 MSTORE SWAP1 PUSH1 0x40 MSTORE SWAP4 POP PUSH2 0x32B JUMP JUMPDEST PUSH1 0x9 DUP2 SUB PUSH2 0x262 JUMPI PUSH0 DUP4 PUSH1 0x2 PUSH2 0x1ED SWAP2 SWAP1 PUSH2 0x4E0 JUMP JUMPDEST DUP2 SLOAD DUP2 LT PUSH2 0x1FE JUMPI PUSH2 0x1FD PUSH2 0x521 JUMP JUMPDEST JUMPDEST SWAP1 PUSH0 MSTORE PUSH1 0x20 PUSH0 KECCAK256 ADD PUSH0 PUSH1 0x2 DUP6 PUSH1 0x2 PUSH2 0x216 SWAP2 SWAP1 PUSH2 0x4E0 JUMP JUMPDEST PUSH2 0x220 SWAP2 SWAP1 PUSH2 0x69A JUMP JUMPDEST DUP2 SLOAD DUP2 LT PUSH2 0x231 JUMPI PUSH2 0x230 PUSH2 0x521 JUMP JUMPDEST JUMPDEST SWAP1 PUSH0 MSTORE PUSH1 0x20 PUSH0 KECCAK256 ADD DUP6 PUSH1 0x40 MLOAD PUSH1 0x20 ADD PUSH2 0x24C SWAP4 SWAP3 SWAP2 SWAP1 PUSH2 0x6CD JUMP JUMPDEST PUSH1 0x40 MLOAD PUSH1 0x20 DUP2 DUP4 SUB SUB DUP2 MSTORE SWAP1 PUSH1 0x40 MSTORE SWAP4 POP PUSH2 0x32A JUMP JUMPDEST PUSH0 PUSH0 SWAP1 POP JUMPDEST PUSH1 0x5 DUP3 PUSH2 0x274 SWAP2 SWAP1 PUSH2 0x6FD JUMP JUMPDEST DUP2 SLT ISZERO PUSH2 0x2D2 JUMPI PUSH0 DUP5 PUSH1 0x2 PUSH2 0x289 SWAP2 SWAP1 PUSH2 0x4E0 JUMP JUMPDEST DUP2 SLOAD DUP2 LT PUSH2 0x29A JUMPI PUSH2 0x299 PUSH2 0x521 JUMP JUMPDEST JUMPDEST SWAP1 PUSH0 MSTORE PUSH1 0x20 PUSH0 KECCAK256 ADD DUP6 PUSH1 0x40 MLOAD PUSH1 0x20 ADD PUSH2 0x2B4 SWAP3 SWAP2 SWAP1 PUSH2 0x677 JUMP JUMPDEST PUSH1 0x40 MLOAD PUSH1 0x20 DUP2 DUP4 SUB SUB DUP2 MSTORE SWAP1 PUSH1 0x40 MSTORE SWAP5 POP DUP1 DUP1 PUSH1 0x1 ADD SWAP2 POP POP PUSH2 0x267 JUMP JUMPDEST POP PUSH0 PUSH1 0x1 DUP5 PUSH1 0x2 PUSH2 0x2E3 SWAP2 SWAP1 PUSH2 0x4E0 JUMP JUMPDEST PUSH2 0x2ED SWAP2 SWAP1 PUSH2 0x69A JUMP JUMPDEST DUP2 SLOAD DUP2 LT PUSH2 0x2FE JUMPI PUSH2 0x2FD PUSH2 0x521 JUMP JUMPDEST JUMPDEST SWAP1 PUSH0 MSTORE PUSH1 0x20 PUSH0 KECCAK256 ADD DUP5 PUSH1 0x40 MLOAD PUSH1 0x20 ADD PUSH2 0x318 SWAP3 SWAP2 SWAP1 PUSH2 0x677 JUMP JUMPDEST PUSH1 0x40 MLOAD PUSH1 0x20 DUP2 DUP4 SUB SUB DUP2 MSTORE SWAP1 PUSH1 0x40 MSTORE SWAP4 POP JUMPDEST JUMPDEST JUMPDEST JUMPDEST DUP3 DUP1 PUSH2 0x338 SWAP1 PUSH2 0x73D JUMP JUMPDEST SWAP4 POP POP PUSH1 0xA DUP3 PUSH2 0x348 SWAP2 SWAP1 PUSH2 0x784 JUMP JUMPDEST SWAP2 POP PUSH2 0x7E JUMP JUMPDEST DUP4 SWAP5 POP POP POP POP POP SWAP2 SWAP1 POP JUMP JUMPDEST PUSH0 PUSH0 REVERT JUMPDEST PUSH0 DUP2 SWAP1 POP SWAP2 SWAP1 POP JUMP JUMPDEST PUSH2 0x371 DUP2 PUSH2 0x35F JUMP JUMPDEST DUP2 EQ PUSH2 0x37B JUMPI PUSH0 PUSH0 REVERT JUMPDEST POP JUMP JUMPDEST PUSH0 DUP2 CALLDATALOAD SWAP1 POP PUSH2 0x38C DUP2 PUSH2 0x368 JUMP JUMPDEST SWAP3 SWAP2 POP POP JUMP JUMPDEST PUSH0 PUSH1 0x20 DUP3 DUP5 SUB SLT ISZERO PUSH2 0x3A7 JUMPI PUSH2 0x3A6 PUSH2 0x35B JUMP JUMPDEST JUMPDEST PUSH0 PUSH2 0x3B4 DUP5 DUP3 DUP6 ADD PUSH2 0x37E JUMP JUMPDEST SWAP2 POP POP SWAP3 SWAP2 POP POP JUMP JUMPDEST PUSH0 DUP2 MLOAD SWAP1 POP SWAP2 SWAP1 POP JUMP JUMPDEST PUSH0 DUP3 DUP3 MSTORE PUSH1 0x20 DUP3 ADD SWAP1 POP SWAP3 SWAP2 POP POP JUMP JUMPDEST DUP3 DUP2 DUP4 MCOPY PUSH0 DUP4 DUP4 ADD MSTORE POP POP POP JUMP JUMPDEST PUSH0 PUSH1 0x1F NOT PUSH1 0x1F DUP4 ADD AND SWAP1 POP SWAP2 SWAP1 POP JUMP JUMPDEST PUSH0 PUSH2 0x3FF DUP3 PUSH2 0x3BD JUMP JUMPDEST PUSH2 0x409 DUP2 DUP6 PUSH2 0x3C7 JUMP JUMPDEST SWAP4 POP PUSH2 0x419 DUP2 DUP6 PUSH1 0x20 DUP7 ADD PUSH2 0x3D7 JUMP JUMPDEST PUSH2 0x422 DUP2 PUSH2 0x3E5 JUMP JUMPDEST DUP5 ADD SWAP2 POP POP SWAP3 SWAP2 POP POP JUMP JUMPDEST PUSH0 PUSH1 0x20 DUP3 ADD SWAP1 POP DUP2 DUP2 SUB PUSH0 DUP4 ADD MSTORE PUSH2 0x445 DUP2 DUP5 PUSH2 0x3F5 JUMP JUMPDEST SWAP1 POP SWAP3 SWAP2 POP POP JUMP JUMPDEST PUSH32 0x4E487B7100000000000000000000000000000000000000000000000000000000 PUSH0 MSTORE PUSH1 0x12 PUSH1 0x4 MSTORE PUSH1 0x24 PUSH0 REVERT JUMPDEST PUSH0 PUSH2 0x484 DUP3 PUSH2 0x35F JUMP JUMPDEST SWAP2 POP PUSH2 0x48F DUP4 PUSH2 0x35F JUMP JUMPDEST SWAP3 POP DUP3 PUSH2 0x49F JUMPI PUSH2 0x49E PUSH2 0x44D JUMP JUMPDEST JUMPDEST DUP3 DUP3 SMOD SWAP1 POP SWAP3 SWAP2 POP POP JUMP JUMPDEST PUSH0 DUP2 SWAP1 POP SWAP2 SWAP1 POP JUMP JUMPDEST PUSH32 0x4E487B7100000000000000000000000000000000000000000000000000000000 PUSH0 MSTORE PUSH1 0x11 PUSH1 0x4 MSTORE PUSH1 0x24 PUSH0 REVERT JUMPDEST PUSH0 PUSH2 0x4EA DUP3 PUSH2 0x4AA JUMP JUMPDEST SWAP2 POP PUSH2 0x4F5 DUP4 PUSH2 0x4AA JUMP JUMPDEST SWAP3 POP DUP3 DUP3 MUL PUSH2 0x503 DUP2 PUSH2 0x4AA JUMP JUMPDEST SWAP2 POP DUP3 DUP3 DIV DUP5 EQ DUP4 ISZERO OR PUSH2 0x51A JUMPI PUSH2 0x519 PUSH2 0x4B3 JUMP JUMPDEST JUMPDEST POP SWAP3 SWAP2 POP POP JUMP JUMPDEST PUSH32 0x4E487B7100000000000000000000000000000000000000000000000000000000 PUSH0 MSTORE PUSH1 0x32 PUSH1 0x4 MSTORE PUSH1 0x24 PUSH0 REVERT JUMPDEST PUSH32 0x4E487B7100000000000000000000000000000000000000000000000000000000 PUSH0 MSTORE PUSH1 0x22 PUSH1 0x4 MSTORE PUSH1 0x24 PUSH0 REVERT JUMPDEST PUSH0 PUSH1 0x2 DUP3 DIV SWAP1 POP PUSH1 0x1 DUP3 AND DUP1 PUSH2 0x592 JUMPI PUSH1 0x7F DUP3 AND SWAP2 POP JUMPDEST PUSH1 0x20 DUP3 LT DUP2 SUB PUSH2 0x5A5 JUMPI PUSH2 0x5A4 PUSH2 0x54E JUMP JUMPDEST JUMPDEST POP SWAP2 SWAP1 POP JUMP JUMPDEST PUSH0 DUP2 SWAP1 POP SWAP3 SWAP2 POP POP JUMP JUMPDEST PUSH0 DUP2 SWAP1 POP DUP2 PUSH0 MSTORE PUSH1 0x20 PUSH0 KECCAK256 SWAP1 POP SWAP2 SWAP1 POP JUMP JUMPDEST PUSH0 DUP2 SLOAD PUSH2 0x5D3 DUP2 PUSH2 0x57B JUMP JUMPDEST PUSH2 0x5DD DUP2 DUP7 PUSH2 0x5AB JUMP JUMPDEST SWAP5 POP PUSH1 0x1 DUP3 AND PUSH0 DUP2 EQ PUSH2 0x5F7 JUMPI PUSH1 0x1 DUP2 EQ PUSH2 0x60C JUMPI PUSH2 0x63E JUMP JUMPDEST PUSH1 0xFF NOT DUP4 AND DUP7 MSTORE DUP2 ISZERO ISZERO DUP3 MUL DUP7 ADD SWAP4 POP PUSH2 0x63E JUMP JUMPDEST PUSH2 0x615 DUP6 PUSH2 0x5B5 JUMP JUMPDEST PUSH0 JUMPDEST DUP4 DUP2 LT ISZERO PUSH2 0x636 JUMPI DUP2 SLOAD DUP2 DUP10 ADD MSTORE PUSH1 0x1 DUP3 ADD SWAP2 POP PUSH1 0x20 DUP2 ADD SWAP1 POP PUSH2 0x617 JUMP JUMPDEST DUP4 DUP9 ADD SWAP6 POP POP POP JUMPDEST POP POP POP SWAP3 SWAP2 POP POP JUMP JUMPDEST PUSH0 PUSH2 0x651 DUP3 PUSH2 0x3BD JUMP JUMPDEST PUSH2 0x65B DUP2 DUP6 PUSH2 0x5AB JUMP JUMPDEST SWAP4 POP PUSH2 0x66B DUP2 DUP6 PUSH1 0x20 DUP7 ADD PUSH2 0x3D7 JUMP JUMPDEST DUP1 DUP5 ADD SWAP2 POP POP SWAP3 SWAP2 POP POP JUMP JUMPDEST PUSH0 PUSH2 0x682 DUP3 DUP6 PUSH2 0x5C7 JUMP JUMPDEST SWAP2 POP PUSH2 0x68E DUP3 DUP5 PUSH2 0x647 JUMP JUMPDEST SWAP2 POP DUP2 SWAP1 POP SWAP4 SWAP3 POP POP POP JUMP JUMPDEST PUSH0 PUSH2 0x6A4 DUP3 PUSH2 0x4AA JUMP JUMPDEST SWAP2 POP PUSH2 0x6AF DUP4 PUSH2 0x4AA JUMP JUMPDEST SWAP3 POP DUP3 DUP3 ADD SWAP1 POP DUP1 DUP3 GT ISZERO PUSH2 0x6C7 JUMPI PUSH2 0x6C6 PUSH2 0x4B3 JUMP JUMPDEST JUMPDEST SWAP3 SWAP2 POP POP JUMP JUMPDEST PUSH0 PUSH2 0x6D8 DUP3 DUP7 PUSH2 0x5C7 JUMP JUMPDEST SWAP2 POP PUSH2 0x6E4 DUP3 DUP6 PUSH2 0x5C7 JUMP JUMPDEST SWAP2 POP PUSH2 0x6F0 DUP3 DUP5 PUSH2 0x647 JUMP JUMPDEST SWAP2 POP DUP2 SWAP1 POP SWAP5 SWAP4 POP POP POP POP JUMP JUMPDEST PUSH0 PUSH2 0x707 DUP3 PUSH2 0x35F JUMP JUMPDEST SWAP2 POP PUSH2 0x712 DUP4 PUSH2 0x35F JUMP JUMPDEST SWAP3 POP DUP3 DUP3 SUB SWAP1 POP DUP2 DUP2 SLT PUSH0 DUP5 SLT AND DUP3 DUP3 SGT PUSH0 DUP6 SLT ISZERO AND OR ISZERO PUSH2 0x737 JUMPI PUSH2 0x736 PUSH2 0x4B3 JUMP JUMPDEST JUMPDEST SWAP3 SWAP2 POP POP JUMP JUMPDEST PUSH0 PUSH2 0x747 DUP3 PUSH2 0x4AA JUMP JUMPDEST SWAP2 POP PUSH32 0xFFFFFFFFFFFFFFFFFFFFFFFFFFFFFFFFFFFFFFFFFFFFFFFFFFFFFFFFFFFFFFFF DUP3 SUB PUSH2 0x779 JUMPI PUSH2 0x778 PUSH2 0x4B3 JUMP JUMPDEST JUMPDEST PUSH1 0x1 DUP3 ADD SWAP1 POP SWAP2 SWAP1 POP JUMP JUMPDEST PUSH0 PUSH2 0x78E DUP3 PUSH2 0x35F JUMP JUMPDEST SWAP2 POP PUSH2 0x799 DUP4 PUSH2 0x35F JUMP JUMPDEST SWAP3 POP DUP3 PUSH2 0x7A9 JUMPI PUSH2 0x7A8 PUSH2 0x44D JUMP JUMPDEST JUMPDEST PUSH1 0x1 PUSH0 SUB DUP4 EQ PUSH32 0x8000000000000000000000000000000000000000000000000000000000000000 DUP4 EQ AND ISZERO PUSH2 0x7E1 JUMPI PUSH2 0x7E0 PUSH2 0x4B3 JUMP JUMPDEST JUMPDEST DUP3 DUP3 SDIV SWAP1 POP SWAP3 SWAP2 POP POP JUMP INVALID LOG2 PUSH5 0x6970667358 0x22 SLT KECCAK256 RJUMP 0x7749 MLOAD RJUMPI 0x3CE1 0x2F 0xAD JUMPF 0x3103 0x29 CALLCODE EXTCODEHASH CALL PUSH8 0xA96A8F695EB10E7 0xBF DUP9 0xDC PC RETURNDATASIZE EXTCODEHASH JUMP PUSH5 0x736F6C6343 STOP ADDMOD 0x1E STOP CALLER "
				},
				"gasEstimates": {
					"creation": {
						"codeDepositCost": "416400",
						"executionCost": "infinite",
						"totalCost": "infinite"
					},
					"external": {
						"ConvertToRoman(int256)": "infinite"
					}
				},
				"methodIdentifiers": {
					"ConvertToRoman(int256)": "c754d73c"
				}
			},
			"storageLayout": {
				"storage": [
					{
						"astId": 12,
						"contract": "Solidity/IntConvertRoman.sol:IntConvertRoman",
						"label": "romStrs",
						"offset": 0,
						"slot": "0",
						"type": "t_array(t_string_storage)dyn_storage"
					}
				],
				"types": {
					"t_array(t_string_storage)dyn_storage": {
						"base": "t_string_storage",
						"encoding": "dynamic_array",
						"label": "string[]",
						"numberOfBytes": "32"
					},
					"t_string_storage": {
						"encoding": "bytes",
						"label": "string",
						"numberOfBytes": "32"
					}
				}
			},
			"userdoc": {
				"kind": "user",
				"methods": {},
				"version": 1
			}
		}
	}
}