{
    "contractName": "MyERC20",
    "abi": [
        {
            "inputs": [
                {
                    "internalType": "string",
                    "name": "name_",
                    "type": "string"
                },
                {
                    "internalType": "string",
                    "name": "symbol_",
                    "type": "string"
                }
            ],
            "stateMutability": "nonpayable",
            "type": "constructor"
        },
        {
            "anonymous": false,
            "inputs": [
                {
                    "indexed": true,
                    "internalType": "address",
                    "name": "owner",
                    "type": "address"
                },
                {
                    "indexed": true,
                    "internalType": "address",
                    "name": "spender",
                    "type": "address"
                },
                {
                    "indexed": false,
                    "internalType": "uint256",
                    "name": "value",
                    "type": "uint256"
                }
            ],
            "name": "Approval",
            "type": "event"
        },
        {
            "anonymous": false,
            "inputs": [
                {
                    "indexed": true,
                    "internalType": "address",
                    "name": "to",
                    "type": "address"
                },
                {
                    "indexed": false,
                    "internalType": "uint256",
                    "name": "amount",
                    "type": "uint256"
                }
            ],
            "name": "Mint",
            "type": "event"
        },
        {
            "anonymous": false,
            "inputs": [
                {
                    "indexed": true,
                    "internalType": "address",
                    "name": "from",
                    "type": "address"
                },
                {
                    "indexed": true,
                    "internalType": "address",
                    "name": "to",
                    "type": "address"
                },
                {
                    "indexed": false,
                    "internalType": "uint256",
                    "name": "value",
                    "type": "uint256"
                }
            ],
            "name": "Transfer",
            "type": "event"
        },
        {
            "inputs": [
                {
                    "internalType": "address",
                    "name": "account",
                    "type": "address"
                },
                {
                    "internalType": "address",
                    "name": "spender",
                    "type": "address"
                }
            ],
            "name": "allowance",
            "outputs": [
                {
                    "internalType": "uint256",
                    "name": "",
                    "type": "uint256"
                }
            ],
            "stateMutability": "view",
            "type": "function"
        },
        {
            "inputs": [
                {
                    "internalType": "address",
                    "name": "spender",
                    "type": "address"
                },
                {
                    "internalType": "uint256",
                    "name": "amount",
                    "type": "uint256"
                }
            ],
            "name": "approve",
            "outputs": [
                {
                    "internalType": "bool",
                    "name": "",
                    "type": "bool"
                }
            ],
            "stateMutability": "nonpayable",
            "type": "function"
        },
        {
            "inputs": [
                {
                    "internalType": "address",
                    "name": "account",
                    "type": "address"
                }
            ],
            "name": "balanceOf",
            "outputs": [
                {
                    "internalType": "uint256",
                    "name": "",
                    "type": "uint256"
                }
            ],
            "stateMutability": "view",
            "type": "function"
        },
        {
            "inputs": [],
            "name": "decimals",
            "outputs": [
                {
                    "internalType": "uint8",
                    "name": "",
                    "type": "uint8"
                }
            ],
            "stateMutability": "view",
            "type": "function"
        },
        {
            "inputs": [],
            "name": "name",
            "outputs": [
                {
                    "internalType": "string",
                    "name": "",
                    "type": "string"
                }
            ],
            "stateMutability": "view",
            "type": "function"
        },
        {
            "inputs": [],
            "name": "symbol",
            "outputs": [
                {
                    "internalType": "string",
                    "name": "",
                    "type": "string"
                }
            ],
            "stateMutability": "view",
            "type": "function"
        },
        {
            "inputs": [],
            "name": "totalsupply",
            "outputs": [
                {
                    "internalType": "uint256",
                    "name": "",
                    "type": "uint256"
                }
            ],
            "stateMutability": "view",
            "type": "function"
        },
        {
            "inputs": [
                {
                    "internalType": "address",
                    "name": "to",
                    "type": "address"
                },
                {
                    "internalType": "uint256",
                    "name": "amount",
                    "type": "uint256"
                }
            ],
            "name": "transfer",
            "outputs": [
                {
                    "internalType": "bool",
                    "name": "",
                    "type": "bool"
                }
            ],
            "stateMutability": "nonpayable",
            "type": "function"
        },
        {
            "inputs": [
                {
                    "internalType": "address",
                    "name": "from",
                    "type": "address"
                },
                {
                    "internalType": "address",
                    "name": "to",
                    "type": "address"
                },
                {
                    "internalType": "uint256",
                    "name": "amount",
                    "type": "uint256"
                }
            ],
            "name": "transferFrom",
            "outputs": [
                {
                    "internalType": "bool",
                    "name": "",
                    "type": "bool"
                }
            ],
            "stateMutability": "nonpayable",
            "type": "function"
        }
    ],
    "bytecode": "60806040523461047d57610d0f8038038061001981610481565b92833981019060408183031261047d5780516001600160401b03811161047d57826100459183016104a6565b60208201519092906001600160401b03811161047d5761006592016104a6565b81516001600160401b038111610393575f54600181811c91168015610473575b602082101461037557601f8111610411575b50602092601f82116001146103b257928192935f926103a7575b50508160011b915f199060031b1c1916175f555b80516001600160401b03811161039357600154600181811c91168015610389575b602082101461037557601f8111610312575b50602091601f82116001146102b2579181925f926102a7575b50508160011b915f199060031b1c1916176001555b600280546001600160a81b03191633600881811b610100600160a81b0316929092176012179283905591901c6001600160a01b03169081900361026d5780156102285769152d02c7e14af68186a0600355805f52600460205260405f2080549069152d02c7e14af680000082018092116102145755807f0f6798a560793a54c3bcfe86a93cde1e73087d944c0ea20544137d4121396885602060405169152d02c7e14af68000008152a25f7fddf252ad1be2c89b69c2b068fc378daa952ba7f163c4a11628f55a4df523b3ef602060405169152d02c7e14af68000008152a360405161081790816104f88239f35b634e487b7160e01b5f52601160045260245ffd5b60405162461bcd60e51b815260206004820152601860248201527f6d696e7420746f20746865207a65726f206164647265737300000000000000006044820152606490fd5b60405162461bcd60e51b81526020600482015260126024820152711bdb9b1e481bdddb995c88185b1b1bddd95960721b6044820152606490fd5b015190505f80610111565b601f1982169260015f52805f20915f5b8581106102fa575083600195106102e2575b505050811b01600155610126565b01515f1960f88460031b161c191690555f80806102d4565b919260206001819286850151815501940192016102c2565b60015f527fb10e2d527612073b26eecdfd717e6a320cf44b4afac2b0732d9fcbe2b7fa0cf6601f830160051c8101916020841061036b575b601f0160051c01905b81811061036057506100f8565b5f8155600101610353565b909150819061034a565b634e487b7160e01b5f52602260045260245ffd5b90607f16906100e6565b634e487b7160e01b5f52604160045260245ffd5b015190505f806100b1565b601f198216935f8052805f20915f5b8681106103f957508360019596106103e1575b505050811b015f556100c5565b01515f1960f88460031b161c191690555f80806103d4565b919260206001819286850151815501940192016103c1565b5f80527f290decd9548b62a8d60345a988386fc84ba6bc95484008f6362f93160ef3e563601f830160051c81019160208410610469575b601f0160051c01905b81811061045e5750610097565b5f8155600101610451565b9091508190610448565b90607f1690610085565b5f80fd5b6040519190601f01601f191682016001600160401b0381118382101761039357604052565b81601f8201121561047d578051906001600160401b038211610393576104d5601f8301601f1916602001610481565b928284526020838301011161047d57815f9260208093018386015e830101529056fe6080806040526004361015610012575f80fd5b5f3560e01c90816306fdde031461052b57508063095ea7b3146103d757806323b872dd14610295578063313ce5671461027557806370a082311461023d57806372dd529b1461022057806395d89b4114610105578063a9059cbb146100d35763dd62ed3e1461007f575f80fd5b346100cf5760403660031901126100cf57610098610622565b6100a0610638565b6001600160a01b039182165f908152600560209081526040808320949093168252928352819020549051908152f35b5f80fd5b346100cf5760403660031901126100cf5760206100fb6100f1610622565b602435903361064e565b6040519015158152f35b346100cf575f3660031901126100cf576040515f6001548060011c90600181168015610216575b602083108114610202578285529081156101e65750600114610191575b50819003601f01601f191681019067ffffffffffffffff82118183101761017d57610179829182604052826105f8565b0390f35b634e487b7160e01b5f52604160045260245ffd5b905060015f527fb10e2d527612073b26eecdfd717e6a320cf44b4afac2b0732d9fcbe2b7fa0cf65f905b8282106101d057506020915082010182610149565b60018160209254838588010152019101906101bb565b90506020925060ff191682840152151560051b82010182610149565b634e487b7160e01b5f52602260045260245ffd5b91607f169161012c565b346100cf575f3660031901126100cf576020600354604051908152f35b346100cf5760203660031901126100cf576001600160a01b0361025e610622565b165f526004602052602060405f2054604051908152f35b346100cf575f3660031901126100cf57602060ff60025416604051908152f35b346100cf5760603660031901126100cf576102ae610622565b6102b6610638565b604435906001600160a01b038316801561039b576001600160a01b03821615610361575f52600560205260405f2060018060a01b0333165f526020528160405f205410610312576103069261064e565b50602060405160018152f35b60405162461bcd60e51b815260206004820152602160248201527f7472616e7366657220616d6f756e74206578636565647320616c6c6f77616e636044820152606560f81b6064820152608490fd5b60405162461bcd60e51b8152602060048201526012602482015271746f2061646472657373206973207a65726f60701b6044820152606490fd5b60405162461bcd60e51b815260206004820152601460248201527366726f6d2061646472657373206973207a65726f60601b6044820152606490fd5b346100cf5760403660031901126100cf576103f0610622565b6024359033156104ee576001600160a01b03169081156104a957335f5260046020528060405f20541061046c57335f52600560205260405f20825f526020528060405f20556040519081527f8c5be1e5ebec7d5bd14f71427d1e84f3dd0314c0f7b2291e5b200ac8c7c3b92560203392a3602060405160018152f35b60405162461bcd60e51b8152602060048201526015602482015274034b739bab33334b1b4b2b73a103130b630b731b29605d1b6044820152606490fd5b60405162461bcd60e51b815260206004820152601760248201527f7370656e6465722061646472657373206973207a65726f0000000000000000006044820152606490fd5b60405162461bcd60e51b81526020600482015260156024820152746f776e65722061646472657373206973207a65726f60581b6044820152606490fd5b346100cf575f3660031901126100cf575f5f548060011c906001811680156105ee575b602083108114610202578285529081156101e6575060011461059a5750819003601f01601f191681019067ffffffffffffffff82118183101761017d57610179829182604052826105f8565b90505f80527f290decd9548b62a8d60345a988386fc84ba6bc95484008f6362f93160ef3e5635f905b8282106105d857506020915082010182610149565b60018160209254838588010152019101906105c3565b91607f169161054e565b602060409281835280519182918282860152018484015e5f828201840152601f01601f1916010190565b600435906001600160a01b03821682036100cf57565b602435906001600160a01b03821682036100cf57565b6001600160a01b0316908115610789576001600160a01b031691821561073457815f52600460205260405f20548181106106f8578181039081116106e457825f52600460205260405f2055825f52600460205260405f208054918083018093116106e4577fddf252ad1be2c89b69c2b068fc378daa952ba7f163c4a11628f55a4df523b3ef9260209255604051908152a3600190565b634e487b7160e01b5f52601160045260245ffd5b60405162461bcd60e51b8152602060048201526014602482015273696e73756666696369656e742062616c616e636560601b6044820152606490fd5b60405162461bcd60e51b815260206004820152602760248201527f4552433230546f6b656e3a7472616e7366657220746f20746865207a65726f206044820152666164647265737360c81b6064820152608490fd5b60405162461bcd60e51b815260206004820152602a60248201527f4552433230546f6b656e3a7472616e736665722066726f6d2020746865207a65604482015269726f206164647265737360b01b6064820152608490fdfea264697066735822122097debe1aa45cec710af1ed99a5916450899ced30778814607826a77ea6b05c8a64736f6c634300081e0033",
    "sourcePath": "/Users/Apple/Documents/GitHub/web3-task/Solidity/Task2/MyERC20.sol",
    "compiler": {
        "name": "solc",
        "version": "0.8.30+commit.73712a01"
    },
    "functionHashes": {
        "allowance(address,address)": "dd62ed3e",
        "approve(address,uint256)": "095ea7b3",
        "balanceOf(address)": "70a08231",
        "decimals()": "313ce567",
        "name()": "06fdde03",
        "symbol()": "95d89b41",
        "totalsupply()": "72dd529b",
        "transfer(address,uint256)": "a9059cbb",
        "transferFrom(address,address,uint256)": "23b872dd"
    },
    "gasEstimates": {
        "creation": {
            "codeDepositCost": "414200",
            "executionCost": "infinite",
            "totalCost": "infinite"
        },
        "external": {
            "allowance(address,address)": "2746",
            "approve(address,uint256)": "26507",
            "balanceOf(address)": "2494",
            "decimals()": "2328",
            "name()": "infinite",
            "symbol()": "infinite",
            "totalsupply()": "2366",
            "transfer(address,uint256)": "50973",
            "transferFrom(address,address,uint256)": "53268"
        },
        "internal": {
            "_approve(address,address,uint256)": "infinite",
            "_transfer(address,address,uint256)": "infinite",
            "mint(address,uint256)": "infinite"
        }
    }
}